:020000040000fa
:080000000002040000000000f2
:020000040000fa
:04000800fc030000f5
:020000040000fa
:04000c000e040000de
:020000040000fa
:040010001e040000ca
:020000040000fa
:0400140004040000e0
:020000040000fa
:0400180016040000ca
:020000040000fa
:04001c004a05000091
:020000040000fa
:0400200026040000b2
:020000040000fa
:040024004a05000089
:020000040000fa
:040028004a05000085
:020000040000fa
:04002c002e0400009e
:020000040000fa
:040030004a0500007d
:020000040000fa
:040034004a05000079
:020000040000fa
:040038004a05000075
:020000040000fa
:04003c004a05000071
:020000040000fa
:040040004a0500006d
:020000040000fa
:04004400660400004e
:020000040000fa
:040048004a05000065
:020000040000fa
:04004c004a05000061
:020000040000fa
:040050004a0500005d
:020000040000fa
:040054004a05000059
:020000040000fa
:040058004a05000055
:020000040000fa
:04005c004a05000051
:020000040000fa
:040060004a0500004d
:020000040000fa
:04006400d0040000c4
:020000040000fa
:04006800b2040000de
:020000040000fa
:04006c0094040000f8
:020000040000fa
:040070004a0500003d
:020000040000fa
:040074004a05000039
:020000040000fa
:040078004a05000035
:020000040000fa
:04007c004a05000031
:020000040000fa
:040080004a0500002d
:020000040000fa
:040084001c05000057
:020000040000fa
:04008800ee04000082
:020000040000fa
:04008c004a05000021
:020000040000fa
:040090004a0500001d
:020000040000fa
:040094004a05000019
:020000040000fa
:040098004a05000015
:020000040000fa
:04009c004a05000011
:020000040000fa
:0400a0004a0500000d
:020000040000fa
:0400a4004a05000009
:020000040000fa
:0400a8004a05000005
:020000040000fa
:0400ac004a05000001
:020000040000fa
:0400b0004a050000fd
:020000040000fa
:0400b4004a050000f9
:020000040000fa
:0400b8004a050000f5
:020000040000fa
:0400bc004a050000f1
:020000040000fa
:0400c0004a050000ed
:020000040000fa
:0400c4004a050000e9
:020000040000fa
:0400c8004a050000e5
:020000040000fa
:0400cc004a050000e1
:020000040000fa
:0400d0004a050000dd
:020000040000fa
:0400d4004a050000d9
:020000040000fa
:0400d8004a050000d5
:020000040000fa
:0400dc004a050000d1
:020000040000fa
:0400e0004a050000cd
:020000040000fa
:0400e4004a050000c9
:020000040000fa
:0400e8004a050000c5
:020000040000fa
:0400ec004a050000c1
:020000040000fa
:0400f0004a050000bd
:020000040000fa
:0400f4004a050000b9
:020000040000fa
:0400f8004a050000b5
:020000040000fa
:0400fc004a050000b1
:020000040000fa
:040100004a050000ac
:020000040000fa
:040104004a050000a8
:020000040000fa
:040108004a050000a4
:020000040000fa
:04010c004a050000a0
:020000040000fa
:040110004a0500009c
:020000040000fa
:040114004a05000098
:020000040000fa
:040118004a05000094
:020000040000fa
:04011c004a05000090
:020000040000fa
:040120004a0500008c
:020000040000fa
:040124004a05000088
:020000040000fa
:040128004a05000084
:020000040000fa
:04012c004a05000080
:020000040000fa
:040130004a0500007c
:020000040000fa
:040134004a05000078
:020000040000fa
:040138004a05000074
:020000040000fa
:04013c004a05000070
:020000040000fa
:040140004a0500006c
:020000040000fa
:040144004a05000068
:020000040000fa
:040148004a05000064
:020000040000fa
:04014c004a05000060
:020000040000fa
:040150004a0500005c
:020000040000fa
:040154004a05000058
:020000040000fa
:040158004a05000054
:020000040000fa
:04015c004a05000050
:020000040000fa
:040160004a0500004c
:020000040000fa
:040164004a05000048
:020000040000fa
:040168004a05000044
:020000040000fa
:04016c004a05000040
:020000040000fa
:040170004a0500003c
:020000040000fa
:040174004a05000038
:020000040000fa
:040178004a05000034
:020000040000fa
:04017c004a05000030
:020000040000fa
:040180004a0500002c
:020000040000fa
:040184004a05000028
:020000040000fa
:040188004a05000024
:020000040000fa
:04018c004a05000020
:020000040000fa
:040190004a0500001c
:020000040000fa
:040194004a05000018
:020000040000fa
:040198004a05000014
:020000040000fa
:04019c004a05000010
:020000040000fa
:0401a0004a0500000c
:020000040000fa
:0401a4004a05000008
:020000040000fa
:0401a8004a05000004
:020000040000fa
:0401ac004a05000000
:020000040000fa
:0401b0004a050000fc
:020000040000fa
:0401b4004a050000f8
:020000040000fa
:0401b8004a050000f4
:020000040000fa
:0401bc004a050000f0
:020000040000fa
:0401c0004a050000ec
:020000040000fa
:0401c4004a050000e8
:020000040000fa
:0401c8004a050000e4
:020000040000fa
:0401cc004a050000e0
:020000040000fa
:0401d0004a050000dc
:020000040000fa
:0401d4004a050000d8
:020000040000fa
:0401d8004a050000d4
:020000040000fa
:0401dc004a050000d0
:020000040000fa
:0401e0004a050000cc
:020000040000fa
:0401e4004a050000c8
:020000040000fa
:0401e8004a050000c4
:020000040000fa
:0401ec004a050000c0
:020000040000fa
:0401f0004a050000bc
:020000040000fa
:0401f4004a050000b8
:020000040000fa
:0401f8004a050000b4
:020000040000fa
:0401fc004a050000b0
:020000040000fa
:040200004a050000ab
:020000040000fa
:040204004a050000a7
:020000040000fa
:040208004a050000a3
:020000040000fa
:04020c004a0500009f
:020000040000fa
:040210004a0500009b
:020000040000fa
:040214004a05000097
:020000040000fa
:040218004a05000093
:020000040000fa
:04021c004a0500008f
:020000040000fa
:040220004a0500008b
:020000040000fa
:040224004a05000087
:020000040000fa
:040228004a05000083
:020000040000fa
:04022c004a0500007f
:020000040000fa
:04023000c003000007
:020000040000fa
:04023400de030000e5
:020000040000fa
:040238004a05000073
:020000040000fa
:04023c004a0500006f
:020000040000fa
:040240004a0500006b
:020000040000fa
:040244004a05000067
:020000040000fa
:040248004a05000063
:020000040000fa
:04024c004a0500005f
:020000040000fa
:040250004a0500005b
:020000040000fa
:040254004a05000057
:020000040000fa
:040258004a05000053
:020000040000fa
:04025c004a0500004f
:020000040000fa
:040260004a0500004b
:020000040000fa
:040264004a05000047
:020000040000fa
:040268004a05000043
:020000040000fa
:04026c004a0500003f
:020000040000fa
:040270004a0500003b
:020000040000fa
:040274004a05000037
:020000040000fa
:040278004a05000033
:020000040000fa
:04027c004a0500002f
:020000040000fa
:040280004a0500002b
:020000040000fa
:040284004a05000027
:020000040000fa
:040288004a05000023
:020000040000fa
:04028c004a0500001f
:020000040000fa
:040290004a0500001b
:020000040000fa
:040294004a05000017
:020000040000fa
:040298004a05000013
:020000040000fa
:04029c004a0500000f
:020000040000fa
:0402a0004a0500000b
:020000040000fa
:0402a4004a05000007
:020000040000fa
:0402a8004a05000003
:020000040000fa
:0402ac004a050000ff
:020000040000fa
:0402b0004a050000fb
:020000040000fa
:0402b4004a050000f7
:020000040000fa
:0402b8004a050000f3
:020000040000fa
:0402bc004a050000ef
:020000040000fa
:0402c0004a050000eb
:020000040000fa
:0402c4004a050000e7
:020000040000fa
:0402c8004a050000e3
:020000040000fa
:0402cc004a050000df
:020000040000fa
:0402d0004a050000db
:020000040000fa
:0402d4004a050000d7
:020000040000fa
:0402d8004a050000d3
:020000040000fa
:0402dc004a050000cf
:020000040000fa
:0402e0004a050000cb
:020000040000fa
:0402e4004a050000c7
:020000040000fa
:0402e8004a050000c3
:020000040000fa
:0402ec004a050000bf
:020000040000fa
:0402f0004a050000bb
:020000040000fa
:0402f4004a050000b7
:020000040000fa
:0402f8004a050000b3
:020000040000fa
:0402fc004a050000af
:020000040000fa
:040300004a050000aa
:020000040000fa
:040304004a050000a6
:020000040000fa
:040308004a050000a2
:020000040000fa
:04030c004a0500009e
:020000040000fa
:040310004a0500009a
:020000040000fa
:040314004a05000096
:020000040000fa
:040318004a05000092
:020000040000fa
:04031c004a0500008e
:020000040000fa
:040320004a0500008a
:020000040000fa
:10040000ef0a21000eff24000e01880000002000ea
:100410000000e000020032000001200020028800fd
:1004200014000700a70107000000e00003003a00e5
:1004300060d32200010020000200370000002000ed
:1004400001002000810f70004220ae000f00070065
:10045000000020000000e0004220ae00000002008a
:1004600000000000742c0200000000000040da00d0
:100470000000fe00200020000000e000020032002a
:10048000100020009001880000000600a1028800f2
:10049000800478000000eb001f003700e284440075
:1004a00054a0b4009905ba00e284440054a0b400fa
:1004b0009906ba00e284440054a0b4000006eb00a0
:1004c000476fde00fd07b200ae018800636ce100fb
:1004d00003003a000ad801000000eb000e003700cc
:1004e000606ce10008003a00004deb000a05e800ee
:1004f000020039003420ec000af0a0008b05e9006e
:10050000f9ff3e00040037006168e100010032009d
:100510000086eb000b00070019c7ba001905ba00e6
:100520000e04e00003003a000a00e000dbff3a009e
:1005300000000600fe07b200ae0288008a047800c0
:10054000f5ff37000cd0a300e20f4d001c0039006e
:1005500089027800354dba000a05e800020039002a
:100560003420ec000af0a0008b05e9000f003200f7
:10057000254dba000a05e800020039003420ec00dd
:100580000af0a0008b05e900080032000c00e00032
:100590000600320015cdba000a05e8000200390055
:1005a0003420ec000af0a0008b05e9008984e80003
:1005b00054a0b4000b00e000e2ff3a000000060087
:1005c0009902ba00055d78008b05e900f7ff32005b
:1005d000c82ade00055d78008b05e900f3ff3200d4
:1005e0000c00e000f1ff320019ddba00eeff370029
:1005f0006100e10001003200100005003200f80047
:100600003400f8000002be00930188003200be00f2
:100610000100e0000700320032037800c733de003b
:10062000a7018800f607b2007f30e1000400320025
:10063000200020003400f9003200f900000006001c
:100640008100e9000500e00003003a000180090094
:1006500032100300edff37000180090032900300e3
:10066000d561ae00e9ff370030002000f1ff370010
:1006700050052000b00e8800a00a2000b00e8800af
:10068000d3e1a8000000060050052000b00e88004d
:10069000a00a2000b00e8800d3e1a90000000600e7
:1006a000a41c040000000000ae1c040000000000b8
:1006b0009c1c040000000000741c040000000000ea
:1006c000021b0400000000003c1b040000000000ae
:1006d000581b040000000000be1b040000000000c6
:1006e0000a1c0400000000006e1b04000000000053
:1006f000481c040000000000141b0400000000005f
:100700001e1b040000000000281b04000000000065
:10071000321b0400000000007e1b040000000000eb
:10072000881b040000000000921b04000000000071
:10073000ee1a0400000000009c1b040000000000f2
:10074000d8230400000000009230040000000000e4
:100750004e24040000000000b62404000000000045
:1007600004250400000000004e25040000000000e5
:10077000e82b0400000000008a2e040000000000a6
:100780003600f800809fbe00829fbe00849fbe009e
:10079000869fbe000000fa00be0e07001048a900a8
:1007a0000080fa004f03be004f02be004f01be00a2
:1007b0004f00be003600f900004006003600f80089
:1007c000809fbe00829fbe00849fbe00869fbe00a9
:1007d0000000fa00e80e07001068a9000080fa0087
:1007e0004f03be004f02be004f01be004f00be00cf
:1007f0003600f900004006003600f800c028a900c5
:100800000000eb006f1607003600f80071160700b5
:10081000c048a900100020006a1607003600f80042
:10082000c068a90020002000661607003600f80006
:10083000c088a90030002000621607003600f800ca
:10084000c608a900700020005e1607003600f800f8
:10085000c408a900b00020005a1607003600f800ae
:10086000809fbe00829fbe00849fbe00869fbe0008
:100870000000fa000028a9000421ef009080800009
:100880000000e000020032009080800000000100c3
:10089000d00a2100104078008040e800d00a2100f2
:1008a00001487800c00a210011c0b3000148780057
:1008b0000080fa004f03be004f02be004f01be0091
:1008c0004f00be003600f900004006003600f80078
:1008d000809fbe00829fbe00849fbe00869fbe0098
:1008e0000000fa0001408000000820000080600045
:1008f0000000e00005003200600a210011c0b300d2
:10090000014878008f11070000e8a9000080fa0074
:100910004f03be004f02be004f01be004f00be009d
:100920003600f900004006003600f800809fbe0047
:10093000829fbe00849fbe00869fbe000000fa001a
:1009400010808000000001000080fa004f03be000c
:100950004f02be004f01be004f00be003600f9003e
:10096000004006003600f800809fbe00829fbe0057
:10097000849fbe00869fbe000000fa002080800099
:10098000000001000080fa004f03be004f02be00cd
:100990004f01be004f00be003600f90000400600c7
:1009a0003600f800809fbe00829fbe00849fbe007c
:1009b000869fbe000000fa00bb15070001e8a900f1
:1009c0000080fa004f03be004f02be004f01be0080
:1009d0004f00be003600f900004006003600f80067
:1009e000809fbe00829fbe00849fbe00869fbe0087
:1009f0000000fa001140800000102000008060001c
:100a00000000e00005003200800a210011c0b300a0
:100a1000014878006f1207000308a9000080fa005f
:100a20004f03be004f02be004f01be004f00be008c
:100a30003600f900004006003600f800809fbe0036
:100a4000829fbe00849fbe00869fbe000000fa0009
:100a50001140800000082000008060000000e000dd
:100a6000050032006b120700900a210011c0b3008c
:100a70000148780002e8a9000080fa004f03be0098
:100a80004f02be004f01be004f00be003600f9000d
:100a9000004006000040da000000fe000600fa00f8
:100aa000000f780011079800220798001e009000a0
:100ab000ae009000ef0b07002e0090000080fa00bf
:100ac000000006000000050003f0a200889fbe00a1
:100ad0008a9fbe008c1f7800170107001e0133009b
:100ae0006450e1004f0032006420e1005200320007
:100af00003826c0007003b000905d0000306d0000c
:100b0000820f54000c065d00020039000200320022
:100b100089017800030678008582550004003d00b5
:100b20000003fd008103fd008502ea008b85420081
:100b3000840f720002003b0060001000e08018008b
:100b40006011b8000005eb007a28e1000a003900c6
:100b500006007800c75ddd00f707b20087807500ea
:100b60002d003700828171000a0178006105600064
:100b70008180d1000080d3008502e900f9ff3b00ad
:100b8000060440008784480002003b006004140013
:100b9000e0841c000988a300070032008a817100ec
:100ba00082817100610164008904d1000884d3004e
:100bb0008b05e800170037000978a30013003a00fe
:100bc0000b00e000130034008b05e900080444002a
:100bd00089844c000a4474000978a3000d003a008f
:100be0000b00e000070034008b05e9000804440016
:100bf00089844c0001003a000b0020000978a30012
:100c0000f7ff32000001eb00020037008281710023
:100c10000a0178008d0007000cf0a70001f0a00089
:100c2000d60037006420e10002003a00838f6c0098
:100c3000d60033000801be000200be00cf0037001e
:100c4000889fbe008a9fbe008c1f7800ba000700f4
:100c5000c100330003866c006450e1002e003200b6
:100c60006420e100330032006150e1002f003200c7
:100c70006120e1003100320085855500eb07b000ae
:100c80000900200008042000050037000804440083
:100c900089844c000a0031000603430087834b001f
:100ca0000001530081815b00f8ff33000203be00a6
:100cb0000800a0000804440089844c00f6ff3900b5
:100cc000c639dd00830173000100320013002000eb
:100cd0008904d1000884d3000998a30005003200dc
:100ce0000800a7000300a0008904d1000884d300f5
:100cf0008b05e8008904d1000884d3000001eb00d3
:100d00000281d2005100070001f0a1000cf0a70001
:100d100001f0a000990037006420e1009b00320040
:100d20000801be000200be00f7ff37006120e100ad
:100d3000960032006000b800f3ff3700000020008a
:100d400001f82700f0ff37000001be006500070032
:100d50000470a70003f0a1006509b100160032007d
:100d60000d0035006828e10006003500f0ff2f0077
:100d7000f1ff27000300e00013003b000100280002
:100d80000000050000004000818048008502e90065
:100d9000fcff3a0008003700f88f420002003c00d8
:100da0008000eb00000005008100d1000080d3002e
:100db0008502e800fcff3a000300e00002003b006f
:100dc00060001000e0801800000006000001be0076
:100dd000440007000470a70003f0a10003f8a3007b
:100de00013003a006509b100100032000900350017
:100df0006928e1000200350001002800000005001c
:100e000000004000818048008502e900fcff3a00b4
:100e100000000600f88f4200050035008100d10077
:100e20000080d3008502e800fcff3a0000000600c5
:100e30008000eb00000005004f89de008201780091
:100e4000890037006011b80097003700810020004a
:100e5000618055000b003d000b00200061fe2f005b
:100e60000100e1001d003400828171006101640015
:100e70008904d1000884d3000000e800faff3a009a
:100e80007100200061006400030070000200600037
:100e90000900320061044400e0844c000988a50088
:100ea000050032008b05e8006808e10002003a0006
:100eb0008904d1000884d300f20f20000258e10019
:100ec00005003d00c75ddd00f907b20089807500af
:100ed00008007800000006000bf827008b0078005f
:100ee00000000500c70ade00f107b200f50fb200ee
:100ef00008003200e1cf4200020032000170a00081
:100f000024000500810f7000010032000408050074
:100f100044000500810f700002003a001400050033
:100f20008502e9000000400081c04800fcff3b0052
:100f30000170a000240005000004be00e9ff0700c6
:100f40000003be000405be000200be00e5ff07006e
:100f5000844f7500000006000200be006450e100ee
:100f6000050036006420e100020036000968a30095
:100f700001003a000800be000160a0004f067800a2
:100f80004f05be004f04be0000000600f0ff2f001a
:100f9000f1ff2700f9ff3700889fbe008a9fbe003f
:100fa0008c1f7800e4ff0700ebff330003866c0022
:100fb0006450e100240032006420e1002700320088
:100fc0006150e100220032006120e1002100320086
:100fd0008b854200eb07b1000134b800003ab8003d
:100fe0000804420089844a00013ab8000030b80081
:100ff0008880400009014a000400330000004000de
:1010000081804800020149008b05e900c909dd0023
:10101000830170000100320013002000c814de00bc
:101020004814dd004709de001200b200c808de00e7
:101030000884700085ff070001f0a1000cf0a700f4
:1010400001f0a000cdff37006120e100cfff3200aa
:101050000801be000200be00f7ff37006150e1004a
:10106000fcff3a00c9ff3700881f780003047800ae
:101070000300e00007003d0060001000e080180061
:1010800060011900e081190002003b0001f02d0011
:10109000030037000400070008f0a70001f0a000db
:1010a0004f04780000000600889fbe008a9fbe00a3
:1010b0000082700004027100048271002600320078
:1010c0000004be000200be006011b8006b092000e1
:1010d000950220000182cf000a0039000541b100cd
:1010e0000082cf00070039000541b1000982cf001e
:1010f000040039000541b1000882cf000100390029
:101100000541b10005425200120032000a003b00c6
:1011100082817100610164008100d1000080d300f0
:101120008984d3000884d3008b05e8000442e800da
:10113000f7ff3a00070037000804440089844c0098
:1011400000004800818048008b05e9000442e90066
:10115000f9ff3a003dff07004f05be004f04be00f7
:041160000000060085
:020000040000fa
:1011640000000000ca0000001f000000000204008c
:10117400000000003a0300004c0300005c03000080
:101184004203000054030000fe0400006403000056
:10119400fe040000fe0400006c030000fe040000d6
:1011a400fe040000fe040000fe040000fe04000033
:1011b400fe040000fe040000fe040000fe04000023
:1011c400fe040000fe040000fe040000fe04000013
:1011d400fe0400009c030000fe040000fe04000066
:1011e400fe040000fe040000fe040000fe040000f3
:1011f400fe040000fe040000fe040000fe040000e3
:10120400fe040000fe040000fe040000fe040000d2
:10121400fe040000fe040000fe040000fe040000c2
:10122400fe040000fe040000fe040000fe040000b2
:10123400fe040000fe040000fe040000fe040000a2
:10124400fe040000fe040000fe040000fe04000092
:10125400fe040000fe040000fe040000fe04000082
:10126400fe040000fe040000fe040000fe04000072
:10127400fe040000fe040000fe040000fe04000062
:10128400fe040000fe040000fe040000fe04000052
:10129400fe040000fe040000fe040000fe04000042
:1012a400fe040000fe040000fe040000fe04000032
:1012b400fe040000fe040000fe040000fe04000022
:1012c400fe040000fe040000fe040000fe04000012
:1012d400fe040000fe040000fe040000fe04000002
:1012e400fe040000fe040000fe040000fe040000f2
:1012f400fe040000fe040000fe040000fe040000e2
:10130400fe040000fe040000fe040000fe040000d1
:10131400fe040000fe040000fe040000fe040000c1
:10132400fe040000fe040000fe040000fe040000b1
:10133400fe040000fe040000fe040000fe040000a1
:10134400fe040000fe040000fe040000fe04000091
:10135400fe040000fe040000fe040000fe04000081
:10136400fe040000fe040000fe040000fe04000071
:10137400fe040000fe040000fe040000fe04000061
:10138400fe040000fe040000fe040000fe04000051
:10139400fe040000fe040000fe040000fe02000043
:1013a4001c030000fe040000fe040000fe04000014
:1013b400fe040000fe040000fe040000fe04000021
:1013c400fe040000fe040000fe040000fe04000011
:1013d400fe040000fe040000fe040000fe04000001
:1013e400fe040000fe040000fe040000fe040000f1
:1013f400fe040000fe040000fe040000fe040000e1
:10140400fe040000fe040000fe040000fe040000d0
:10141400fe040000fe040000fe040000fe040000c0
:10142400fe040000fe040000fe040000fe040000b0
:10143400fe040000fe040000fe040000fe040000a0
:10144400fe040000fe040000fe040000fe04000090
:10145400fe040000fe040000fe040000fe04000080
:10146400fe040000fe040000fe040000fe04000070
:10147400fe040000fe040000fe040000fe04000060
:10148400fe040000fe040000fe0400000000fe0054
:101494000000fe0000020000000200001f00000027
:1014a4004f0421000eff21000e01880000000000ff
:1014b400000020000000e0000200320000012000d3
:1014c4002002880014000700760107000000e000f5
:1014d40003003a0060c2200001002000020037002f
:1014e4000000200001002000810f70000100320084
:1014f4000f000700000020000000e000020032009e
:101504000000020000000000380902000000000092
:101514000040da000000fe00200020000000e0008f
:101524000200320010002000900188000000060034
:10153400a1028800800478000000eb001f0037003f
:10154400e284440054a0b4009905ba00e284440043
:1015540054a0b4009906ba00e284440054a0b40034
:101564000006eb00476fde00fd07b200ae01880005
:10157400636ce10003003a000ad801000000eb00ac
:101584000e003700606ce10008003a00004deb00eb
:101594000a05e800020039003420ec000af0a0003b
:1015a4008b05e900f9ff3e00040037006168e100a3
:1015b400010032000086eb000b00070019c7ba00d7
:1015c4001905ba000e04e00003003a000a00e00026
:1015d400dbff3a0000000600fe07b200ae028800fe
:1015e4008a047800f5ff37000cd0a300e20f4d0009
:1015f4001c00390089027800354dba000a05e8005c
:10160400020039003420ec000af0a0008b05e90048
:101614000f003200254dba000a05e8000200390027
:101624003420ec000af0a0008b05e9000800320029
:101634000c00e0000600320015cdba000a05e800ef
:10164400020039003420ec000af0a0008b05e90008
:101654008984e80054a0b4000b00e000e2ff3a00e3
:10166400000006009902ba00055d78008b05e900c8
:10167400f7ff3200c82ade00055d78008b05e9001b
:10168400f3ff32000c00e000f1ff320019ddba0074
:10169400eeff3700620a0400000000003600f80084
:1016a400809fbe00829fbe00849fbe00869fbe00b6
:1016b4000000fa00980107001048a9000080fa0011
:1016c4004f03be004f02be004f01be004f00be00dc
:1016d4003600f900004006003600f800809fbe0086
:1016e400829fbe00849fbe00869fbe000000fa0059
:1016f400b70107001068a9000080fa004f03be007c
:101704004f02be004f01be004f00be003600f9007c
:10171400004006003600f800c028a9000000eb00d5
:10172400b90407003600f800bb040700c048a9004c
:1017340010002000b40407003600f800c068a900b7
:1017440020002000b00407003600f800c088a9007b
:1017540030002000ac0407003600f800c608a900d9
:1017640070002000a80407003600f800c408a9008f
:10177400b0002000a40407003600f800809fbe00db
:10178400829fbe00849fbe00869fbe000000fa00b8
:10179400f08180000000e00002003200f08180004f
:1017a4000000010041d0bf000040e80041f0b70054
:1017b40010c0b30040f0b7000028a9000080fa0070
:1017c4004f03be004f02be004f01be004f00be00db
:1017d4003600f900004006003600f800809fbe0085
:1017e400829fbe00849fbe00869fbe000200fa0056
:1017f40090818000e20f500088003200e20f500018
:1018040003003900e30f50007700320095003700e1
:101814000110800000402000008060000000e00013
:1018240005003a00211080000002200000806000c2
:101834000000e0000a0032000110800000082000cf
:10184400008060000000e0002400320021108000cd
:1018540000202000008060000000e0001f00320033
:1018640020108000640060000000e0000c003a00da
:1018740010002000cd010700a08180000000e000de
:1018840004003200a0818000c110800081407800f3
:10189400014878001000200090818800360037004d
:1018a400c0108000004f78000000eb00bf0107006b
:1018b400b08180000000e00005003200b0818000ab
:1018c400104078000080fb00a01088000182a8006e
:1018d400200020009081880027003700011080003c
:1018e40000402000008060000000e0002200320080
:1018f4002110800000022000008060000000e00051
:101904001d003a0020108000640060000000e00028
:1019140004003a003c70ef00300020009081880001
:10192400130037003cd0bf000004e0000d0032007b
:101934000000eb009d010700b08180000000e00082
:1019440005003200b0818000104078000080fb0068
:10195400a01088000182a800200020009081880047
:10196400030037003c70ef003000200090818800b5
:10197400c0108000004f780090818000e10f50007b
:1019840039003a002110800000022000008060002d
:101994000000e00036003200211080000004200026
:1019a400008060000000e0000b003a00a08180008d
:1019b4000000e00004003200a0818000c11080001b
:1019c400814078000148780020002000770107005a
:1019d4002ff0b70029003700c0108000004f7800b6
:1019e40004c2a90025003700300020006f01070061
:1019f4002ff0b70010c0b3003cf0b7002fd0bf00e9
:101a04000004e00002003200c0108000004f7800a3
:101a140010002000908188001800370021108000f9
:101a240000002800008060000000e0000b003a0085
:101a34000000eb005d010700b08180000000e000c1
:101a44000d003200b0818000104078000080fb005f
:101a5400a01088000182a800080037003230ef008f
:101a640006003700ffff37000000000003003700c6
:101a74000000000001003700000000000208a90077
:101a84000080fa004f03be004f02be004f01be00ab
:101a94004f00be003600f900004006000040da00a6
:101aa4000000fe00000005000000fa00d221ef0053
:101ab4001048a9003048a8001068a9003068a800a0
:101ac4000080fa00000006000000fa00d321a800fc
:101ad4000080fa00000006000000fa0088a00a0056
:101ae400d40100000080fb0000f0a7000000ea0021
:101af4000000ea004f00de00004078000080fa0099
:101b0400000006000000fa00d321a9000080fa00ba
:101b1400000006000000fa0099a00a00d4010000a9
:101b24000080fb0000f0a7000000ea000000ea00cb
:101b34004f00de00004078000080fa00000006003c
:101b44000000fa00d301a8000080fa00000006009b
:101b54000000fa00d301a9000080fa00000006008a
:101b64000200fa0030002000000f7800a10e80006f
:101b740000002800008060000000e0000300320044
:101b840040002000000f780015003700dca00a0098
:101b9400d40100000080fb00e10f50000700320078
:101ba400e20f5000080032000000e00009003a0093
:101bb4000000eb00000f780009003700200020002f
:101bc400000f78000600370010002000000f780096
:101bd4000300370030002000000f780000000000f0
:101be4001e0078000080fa00000006000600fa00db
:101bf40010079800210798000000eb00000f780000
:101c04000f003700d10f800000102000008060001a
:101c14000000e0000e003a00f10f80001e0090006a
:101c2400010878001e0090000080e800100798006a
:101c34002e0090000000e900200798001e0fe80025
:101c44002e0090000000e000eeff3a000100370093
:101c5400000000001e0078000080fa00000006006a
:101c64000600fa0010079800210798000000eb0016
:101c7400000f78000e003700d00f80006200600073
:101c84000000e0000e003a001e00900010007800f2
:101c9400e00f88001e0090000080e8001007980004
:101ca40000060000000200001f0000002e0090004b
:101cb4000000e900200798001e0fe8002e009000a5
:101cc4000000e000efff3a000100370000000000d0
:101cd4001e0078000080fa00000006000400fa00ec
:101ce400100798000040eb00004f78001000070038
:101cf4000004e000060032001e009000100078008e
:101d0400d00e880010c0b300004f780002003700e6
:101d14000040eb00004f78001e4078000080fa007d
:101d2400000006000000fa000080fa00000006002f
:101d34000000fa00c00e80006100600000f0a700ff
:101d44000000ea000000e9004f00de0000407800d7
:101d54000080fa00000006000400fa001007980052
:101d64000040eb00004f78001f0007000004e00073
:101d740015003200e10e80001e009000010878007a
:101d8400f10e80001e00900011009800010f8000e9
:101d94001e00900021009800110f80001e0090008a
:101da40031009800210f80001e009000410098002f
:101db400310f80001e0090005100980010c0b30045
:101dc400004f7800020037000040eb00004f78001d
:101dd4001e4078000080fa00000006000000fa00af
:101de4000080fa00000006000000fa0011a00a00ba
:101df400d80100000080fb0000f0a7000000ea000a
:101e04000000ea004f00de00004078000080fa0085
:101e1400000006000000fa0030742500b07d880040
:101e24000080fa00000006000200fa00004f78006b
:101e34009e80fb00000221000080400010407800da
:101e44000080fa00000006000200fa00004f78004b
:101e5400114798009e80fb00000221000080400092
:101e64009e409000014878000080fa0000000600bf
:101e74000000fa0000002800001088000422ef008f
:101e8400d000200025000700d00020001d0007001e
:101e94003230ef000000eb00060007000000eb000a
:101ea4000a0007000208a9002208a8000080fa001e
:101eb400000006000200fa00000f78009e0078007f
:101ec400b18188000080fa00000006000200fa00d8
:101ed400000f78009e007800a18188000080fa003d
:101ee400000006000000fa00b08180000080fa00c3
:101ef400000006000000fa00a08180000080fa00c3
:101f0400000006000200fa00000f78009e0078002e
:101f1400611088000080fa00000006000200fa0048
:101f2400000f7800f00720009e007800808f50009a
:101f3400020036000142a800010037000142a90056
:101f44003230ef009e007800411088000080fa00d3
:101f5400000006000000fa00b08180000000e000ec
:101f640006003200b0818000104078000080fb0041
:101f7400a01088000182a8000100370000000000c2
:101f84000080fa00000006000000fa00a081800032
:101f94000000e00005003200a0818000c110800034
:101fa40081407800014878000100370000000000fb
:101fb4000080fa00000006000200fa00000f78001a
:101fc40011a00a00760e00000004a2006140600027
:101fd4000080fb006100600000004000b1738000dd
:101fe4000110a10001007000b073880089ff070090
:101ff4001e007800e10f500011003200e10f500084
:1020040003003900e20f500013003200360037009d
:1020140001022100c0818000808040000000e800af
:10202400c081880001007800a2ff0700c081800001
:10203400ec0f5000270036003830ef002a0037003c
:102044003a30ef0010c0b3002ef0b700d0022100e8
:102054009eff0700240037002ed0bf000004e000dc
:102064000e003200d08180000000e00005003a003c
:102074002dd0bf000080fb00c08188003a30ef0003
:102084002e70ef00c0818000ec0f5000130036006a
:10209400d0002000c081880013003700c081800078
:1020a400d102210091407800014178000102210011
:1020b40081004000824878000000e800c081880068
:1020c400c0818000ec0f5000060036003830ef006d
:1020d4000500370000000000030037000000000086
:1020e400010037000000000010c0b3000080fa00b7
:1020f400000006000000fa00007c80000080fa0066
:10210400000006000200fa00faff0700000f780042
:102114001e007800240007000004e00002003200e2
:1021240000002800710007001e0078002a00070044
:102134000004e00002003200000024006b000700ed
:102144001e007800320007000004e00002003200a4
:1021540000202000650007001e0078003a000700f8
:102164000004e00002003200000820005f000700c5
:102174001e007800420007000004e0000200320064
:1021840000042000590007001e0078004a000700e0
:102194000004e000020032000001200053000700a8
:1021a4000080fa00000006000400fa0010079800fe
:1021b4000040eb00004f78001e0090000000e0009b
:1021c40002003d0010c0b300004f78001e407800ac
:1021d4000080fa00000006000400fa0010079800ce
:1021e4000040eb00004f78009e00900000002400a7
:1021f400008060000000e0000200320010c0b30064
:10220400004f78001e4078000080fa0000000600ad
:102214000400fa00100798000040eb00004f78001b
:102224009e00900000202000008060000000e0007c
:102234000200320010c0b300004f78001e40780046
:102244000080fa00000006000400fa00100798005d
:102254000040eb00004f78009e0090000008200032
:10226400008060000000e0000200320010c0b300f3
:10227400004f78001e4078000080fa00000006003d
:102284000400fa00100798000040eb00004f7800ab
:102294009e00900000042000008060000000e00028
:1022a4000200320010c0b300004f78001e407800d6
:1022b4000080fa00000006000400fa0010079800ed
:1022c4000040eb00004f78001e009000700060009a
:1022d4000000e0000200320010c0b300004f78009c
:1022e4001e4078000080fa00000006000200fa0098
:1022f400000f78009e80ea00007c8000008060006f
:10230400007c88000080fa00000006000000fa004b
:10231400802fef000080fa00000006000e00fa0093
:10232400680107000000eb00000f78000000eb00dc
:102334001007980000000000f9fd07000004a20047
:102344000004e000fcff3a0000fe0700000000006b
:10235400f3fd07000004e000fdff3a00fffd070065
:102364000e80e8007cfe07009e009000f00f200025
:1023740000806000000f78001e009000004078008c
:10238400804078000040eb00affe07001e00900084
:102394004800de00004078008040780010c0b300a0
:1023a400a9fe07002e0090000040780080407800cd
:1023b40020c0b300a4fe07002e0090004800de00f9
:1023c400004078008040780030c0b3009efe0700d3
:1023d4003e009000004078008040780040c0b30088
:1023e40099fe07003e0090004800de00004078009f
:1023f4008040780050c0b30093fe07000e007800c0
:1024040036fe0700b3fd070000000000b5fd07001d
:102414000004a2000004e000fcff3a00bcfd070039
:1024240000000000affd07000004e000fdff3a00db
:102434000100370000000000b9fd07000004e000bf
:10244400fcff3200c1fd070000000000b4fd0700de
:102454000004e000fdff3a000e80e8003efe0700a5
:10246400befd07001e0090004800de00004078001a
:102474008040780010c0b30073fe07002e00900067
:10248400004078008040780020c0b3006efe070052
:102494002e0090004800de00004078008040780064
:1024a40030c0b30068fe07003e009000000a000040
:1024b400660100001f0000000040780080407800a2
:1024c40040c0b30063fe07003e0090004800de00f9
:1024d400004078008040780050c0b3005dfe0700e3
:1024e400d8ff37000000fa000421ef00104e2e0040
:1024f400400888000003280000088800f08180005c
:102504000000e00002003a0020a620002f0007008f
:102514000028a9002028a8004070ef000080fa00dd
:10252400000006000200fa00000f78009e00780008
:10253400410888004070ef000080fa0000000600a7
:102544000000fa00400880000080fa000000060045
:102554000200fa00000f78009e007800210888002d
:102564004070ef000080fa00000006000000fa004e
:10257400200880000080fa00000006000200fa0033
:102584000040eb002bfe07000000fb00000f78006a
:102594000e007800d4fd070051fd07000000000084
:1025a40053fd07000004a2000004e000fcff3a0011
:1025b4005afd0700000000004dfd07000004e00084
:1025c400fdff3a000080fa00000006000200fa0055
:1025d400000f78002028a9009e007800f18188006f
:1025e4002028a8000080fa00000006000000fa007d
:1025f4004070ef002028a80001e1a8000080fa0044
:10260400000006000000fa0001e1a9002028a9004a
:102614000080fa00000006000200fa000104210014
:1026240091407800014f78001e4078000004e000db
:10263400010032004070ef001e4078000080fa0074
:10264400000006000000fa0041d0bf000080fb003b
:102654000080fa00000006000000fa004170ef005c
:102664000080fa00000006000000fa0010002300b9
:10267400307c880060092000407c88001004200021
:10268400507c880010102000707c880060092000b5
:10269400807c880010042000907c8800b82fef0014
:1026a400ba2fef00002def00a42fef00a62fef00ac
:1026b400aa2fef00ae2fef00b02fef00b22fef00e4
:1026c4001200200080072000a109200053f82000f8
:1026d40080497800814978008249780012002000fe
:1026e400600420007105200043f820008049780030
:1026f400814978008249780000000000207c800035
:10270400610060000000e000fcff3a0000000000ef
:10271400217c800000022000008060000000e000b6
:10272400fbff32000080fa00000006000000fa00ff
:10273400062eef00222eef003e2eef005a2eef0061
:10274400762eef00f0012000107088000080eb006e
:10275400f0708800f0cf2f00d07188000080eb006b
:10276400b0728800d0ff2f00907388000c2eef0009
:10277400282eef00442eef00602eef007c2eef0099
:102784000a2eef00262eef00422eef005e2eef0001
:102794007a2eef00082eef00242eef00402eef00db
:1027a4005c2eef00782eef00e0012000007088001e
:1027b400f0092000e0708800f00c2000c07188004f
:1027c40000c02700a07288000004200080738800e5
:1027d4000080fa00000006000200fa00000f7800f2
:1027e40003003700804f2200110020007e00070004
:1027f4001e00780000f0a7000000ea000000ea00d4
:102804004f00de00004078001e0fe9000004e000e5
:10281400f4ff3a000080fa00000006000200fa000b
:10282400000f78000500370000962000010020000a
:102834006d00070001fe2f001e8f40001e0078006f
:10284400ff0f5000f8ff3e0003003700b0042000e3
:1028540001002000640007001e00780000f0a700bb
:102864000000ea000000ea004f00de0000407800ab
:102874001e0fe9000004e000f4ff3a000080fa00b3
:10288400000006000200fa00000f78002102800018
:10289400200f2000008060001e00700020028800cd
:1028a4000080fa00000006000000fa00c3e8a80057
:1028b40000000000000000000080fa000000060094
:1028c4000000fa00b5efa8000080fa00000006003e
:1028d4000000fa0095ff070063ff070020000700cf
:1028e40077fc070065fd0700fefe0700eeff07000a
:1028f40000022000e3ff0700f1ff07000080fa0058
:1029040000000600421000000200000082000000e7
:10291400ffff000000100000200000008000000005
:102924003e10000004000000800000003010000091
:102934000e000000800000002010000010000000c5
:1029440082000000969696009696960096969600bb
:102954009696960096aa010001000000000000006f
:102964000000fa0011002000a8210a0080080000dd
:1029740011002000ec210a00800800001100200052
:1029840064210a00480800001100200020210a00e8
:10299400480800001100200064210a0040080000db
:1029a4000080fa00000006000000fa002eff070075
:1029b4000080fa00000006000000fa00007c80009d
:1029c4000080fa00000006000000fa00d0fd0700b5
:1029d4000080fa00000006000000fa004efe070026
:1029e4000080fa0000000600f03fb1000180b10051
:1029f40006003500ee03090000000000403fb1006e
:102a04000180b100fbff3d001000b000203fb0008a
:102a140002003500008009000000000000000600ec
:102a2400000f78009e00780011828800ffff3700b5
:102a34000000fa00000021008007780080012100d6
:102a4400000188000080fa00000006000000fe007b
:082a540000000000000000007a
:020000040000fa
:102a5c000400fa0020479800ae409000c0c4b300b8
:102a6c0096070700004f78001e4078000080fa009f
:102a7c00000006000200fa00004f78001147980091
:102a8c001e4190009e407800c0c4b3005007070060
:102a9c000080fa00000006000a00fa00004f9800bf
:102aac000e4890000080fb00e10f50001300320034
:102abc00e10f500003003c000000e0000600320073
:102acc0029003700e20f500015003200e30f5000d0
:102adc001c003200240037000040eb00dcff070034
:102aec000080fb00000f780090c2b300d8ff0700f5
:102afc000080fb00100798002000370010c0b300c6
:102b0c00d3ff07000080fb00000f780000c1b3006a
:102b1c00cfff07000080fb0010079800170037005c
:102b2c0030c2b300caff07000080fb00000f780022
:102b3c0040c2b300c6ff07000080fb0010079800de
:102b4c000e003700a0c2b300c1ff07000080fb00dd
:102b5c00000f7800b0c2b300bdff07000080fb007f
:102b6c0010079800050037000000eb00000f7800fc
:102b7c000000eb0010079800000000001e00780019
:102b8c00c300dd001e0090004500de000080400008
:102b9c008000eb00a8f80700200798003107980088
:102bac0002002000031024002e009000be009000b4
:102bbc0020f8070020079800310798000200200039
:102bcc00032824002e009000be009000bbf70700e5
:102bdc0020079800310798002e009000be0090004e
:102bec000080fa00000006000600fa00204798005a
:102bfc0021079800ae009000f00b2000808f500051
:102c0c0003003400f00b200020079800060037006a
:102c1c00ae00900000fc2f00808f500002003d00a1
:102c2c0000fc2f00200798002e0090000004b0003c
:102c3c00200798002e009000004f78002e40900046
:102c4c000080fb00e10f50000e003200e10f50003d
:102c5c0003003c000000e0000600320015003700c5
:102c6c00e20f50000b003200e30f50000d00320059
:102c7c00100037009e40780050c0b3007dff070065
:102c8c000c0037009e40780070c0b30079ff07003d
:102c9c00080037009e40780050c1b30075ff070054
:102cac00040037009e407800c0c2b30071ff0700db
:102cbc00000000000080fa00000006000600fa0088
:102ccc002047980021079800ae009000f00b2000e0
:102cdc00808f500003003400f00b20002007980078
:102cec0006003700ae00900000fc2f00808f5000d3
:102cfc0002003d0000fc2f00200798002e009000e1
:102d0c000004b000200798002e009000004f7800bf
:102d1c002e4090000080fb00e10f50000e003200ae
:102d2c00e10f500003003c000000e0000600320000
:102d3c0015003700e20f50000b003200e30f50007b
:102d4c000d003200100037009e40780060c0b300c8
:102d5c0048ff07000c0037009e40780080c0b3008d
:102d6c0044ff0700080037009e40780060c1b300a4
:102d7c0040ff0700040037009e407800d0c2b3002b
:102d8c003cff0700000000000080fa000000060075
:102d9c000200fa00004f7800114798001e80fb00db
:102dac00e20f500008003200e30f50000a0032001e
:102dbc00e10f50000d003a009e40900070c2b3002d
:102dcc002cff07000a0037009e40900080c2b30021
:102ddc0028ff0700060037009e40900010c3b30088
:102dec0024ff070000000000010037000000000075
:102dfc000080fa00000006000200fa00004f780084
:102e0c00114798001e80fb00e10f500003003200b8
:102e1c00e20f500005003200080037009e40900081
:102e2c0050c2b30013ff0700040037009e4090000f
:102e3c0060c2b3000fff0700000000000080fa0022
:102e4c00000006000200fa00004f78009e40780057
:102e5c0010c2b30007ff07000080fa000000060054
:102e6c000600fa002047980021079800ae00900059
:102e7c00f00b2000808f500003003400f00b20007a
:102e8c002007980006003700ae00900000fc2f00d1
:102e9c00808f500002003d0000fc2f00200798009e
:102eac002e0090000004b000200798002e00900027
:102ebc00004f78002e4090000080fb00e10f500086
:102ecc000e003200e10f500003003c000000e00057
:102edc000600320015003700e20f50000b003200e4
:102eec00e30f50000d003200100037009e407800b8
:102efc0000c2b300dffe07000c0037009e407800d4
:102f0c0090c1b300dbfe0700080037009e4078003c
:102f1c00a0c1b300d7fe0700040037009e40780024
:102f2c0000c3b300d3fe0700000000000080fa00cd
:102f3c00000006000000fa00f10b20000040eb003e
:102f4c0029ff070001fc2f000040eb005bff07008e
:102f5c00f10b200010c0b30023ff070001fc2f0071
:102f6c0010c0b30055ff0700f10b200020c0b300c8
:102f7c001dff070001fc2f0020c0b3004fff07000e
:102f8c00f10b200030c0b30017ff070001fc2f002d
:102f9c0030c0b30049ff070041c0b30030c0b300dc
:102fac00b4fe07008040eb00f0c1b300b1fe070097
:102fbc000040eb00a3ff07000080fa0000000600b1
:102fcc000200fa00000f78001e0078007080880064
:102fdc000080fa00000006000200fa00000f7800e2
:102fec009e007800718088000080fa0000000600c6
:102ffc000800fa00881f78000004780061479800e8
:10300c006e40900092fe0700004f780010c0b30095
:10301c00104798001e80fb006100600000407800a3
:10302c000004e0000300320010c0b30020479800f9
:10303c00020037000040eb00204798001e80fb0088
:10304c00620060000000e0000300320010c0b3001a
:10305c0030479800020037000040eb0030479800e2
:10306c001e80fb00640060000000e00003003200e2
:10307c0010c0b30040479800020037000040eb003e
:10308c00404798001e80fb00680060000000e000d4
:10309c000300320010c0b300504798000200370004
:1030ac000040eb0050479800e10047000400090085
:1030bc00315c78005800b100080078004f047800ab
:1030cc000080fa00000006001e00fa0020c0b300c9
:1030dc005ffe0700004f78001e80fb00640060005c
:1030ec000000e0000b003200b0c1b30058fe070036
:1030fc0010479800780047009e409000bcff0700e6
:10310c00f20047007801470004000900b25878002b
:10311c000a0037000040eb00205798000040eb00fd
:10312c00305798000040eb00405798000040eb00ef
:10313c00505798000040eb00605798001e80fb0031
:10314c00700060000000e0000800320078004700ca
:10315c0051c3b300a6ff0700e30047007801470006
:10316c0004000900b25878000a0037000040eb0058
:10317c00304798000040eb00404798000040eb00bf
:10318c00504798000040eb00604798000040eb006f
:10319c00704798001e80fb00680060000000e00093
:1031ac00080032007800470061c3b30090ff0700ad
:1031bc00e80047007801470004000900b258780085
:1031cc000a0037000040eb00004f98000040eb0075
:1031dc00104f98000040eb00204f98000040eb008f
:1031ec00304f98000040eb00404f98001e80fb00d1
:1031fc00620060000000e000080032007800470028
:10320c0071c3b3007aff0700ed0047007801470057
:10321c0004000900b25878000a0037000040eb00a7
:10322c00504f98000040eb00604f98000040eb00be
:10323c00704f98000040eb00005798000040eb00e6
:10324c00105798001e4078000004e00003003d0079
:10325c0010c0b30020479800020037000040eb007c
:10326c002047980070808000f6874700f680570052
:10327c006201470009000900b2187800b2587800c2
:10328c005101b10000000100f68757000080fa00e0
:10329c00000006000400fa00000f780011079800e7
:1032ac001e0190009e0078000000eb00ad010700ad
:1032bc000080fa00000006000400fa00000f7800fd
:1032cc00110798001e0190009e007800100020004d
:1032dc00a40107000080fa00000006000400fa00b8
:1032ec00000f7800110798001e0190009e007800d6
:1032fc00200020009b0107000080fa00000006005f
:10330c000400fa00000f7800110798001e019000cd
:10331c009e00780030002000920107000080fa0027
:10332c00000006000400fa00000f78001107980056
:10333c001e0190009e0078004000200089010700cb
:10334c000080fa00000006000400fa0020479800f4
:10335c0010002000000f7800b08080006200600038
:10336c000000e00032003a0070012100ae409000f5
:10337c0001487800b08080000000a100b080880077
:10338c00b08080000010a000b0808800b080800069
:10339c000030a100b0808800e0002000008188008f
:1033ac00401f2000f0808800b08080000020a0002a
:1033bc00b080880040ca2100208188000000eb000a
:1033cc008081880040ca2100308188000000eb0019
:1033dc009081880040ca2100408188000000eb00e9
:1033ec00a081880040ca2100508188000000eb00b9
:1033fc00b0818800e0ca2100608188000000eb00e9
:10340c00c08188002504070002040700c0c9210000
:10341c00d204070040c72100d604070040c7210092
:10342c00da040700e20307000000eb00000f78004d
:10343c001e0078000080fa00000006000200fa006e
:10344c00004f7800700121001e4878000080fa00bf
:10345c00000006000200fa0010002000000f7800a7
:10346c00b0808000610060000000e0000a003a00bb
:10347c00b08080000010a100b08088007001210095
:10348c0080c0eb0001487800e2030700dc03070072
:10349c0011818000010f78001e0078000080fa0076
:1034ac00000006000200fa00004f7800d403070069
:1034bc001e80fb00f0808800bd0307000080fa002e
:1034cc00000006000400fa00000f780011079800b5
:1034dc00b0808000640060000000e0000700320053
:1034ec001e007800c08088009e009000d18088006b
:1034fc00b08080000020a100b08088000080fa001d
:10350c00000006000400fa0020479800100020007c
:10351c00000f7800b0808000610060000000e000c7
:10352c0013003a00b08080000000a000b08088003a
:10353c000000eb00000f78002e4090000004e0002b
:10354c0003003200100020000081880002003700c8
:10355c002000200000818800f20307009903070077
:10356c000004a2000004e000010032000d0007007e
:10357c001e0078000080fa00000006000000fa002f
:10358c0010c0b300dfff07000080fa000000060047
:10359c000000fa000040eb00daff07000080fa00a0
:1035ac00000006000000fa00030037000000eb00ea
:1035bc00a2030700c9000700b08080006100600012
:1035cc000000e000f9ff3a000080fa00000006005d
:1035dc000000fa00d0030700b08080000000a100ba
:1035ec00b08088000000eb0010818800e000200013
:1035fc000080fa00000006000000fa00b080800095
:10360c000000a100b08088000000eb001081880051
:10361c00e00020000080fa00000006000000fa0024
:10362c00c4030700100020000080fa000000060010
:10363c000000fa00bf030700200020000080fa0001
:10364c00000006000000fa00ba030700100020007a
:10365c000080fa00000006000000fa00b903070021
:10366c000000eb000080fa00000006000000fa00e9
:10367c00b08080000030a000b08088007001210074
:10368c00104078000080fb000000400000407800f3
:10369c000004a000c3030700500020000080fa00c3
:1036ac00000006000000fa00b08080000030a0008e
:1036bc00b08088007001210010407800004040006c
:1036cc00b8030700300020000080fa00000006005c
:1036dc000000fa00b08080000030a100b0808800ab
:1036ec00a7030700400020000080fa00000006003d
:1036fc000000fa00b1030700500020000080fa001f
:10370c00000006000000fa00b1030700a000200032
:10371c000080fa00000006000000fa00ac0307006d
:10372c00900020000080fa00000006000000fa0063
:10373c00b08080000030a100b08088002000200004
:10374c001081880041818000a0818000010001006f
:10375c000080e900e10f500002003e00b9ff0700b5
:10376c0001003700bcff07000080fa0000000600d3
:10377c000000fa00770307000004e0000e0032009e
:10378c0051818000b081800001000100e20f5000e7
:10379c0003003200e30f5000030032000400370036
:1037ac009eff070016003700a1ff0700140037002a
:1037bc00a9ff070012003700b08080000030a10084
:1037cc00b0808800c0808000904078000000e80045
:1037dc00c08088000140780072030700d080800010
:1037ec000000e900d0808800d08080000000e0005c
:1037fc000200320030002000010037006000200081
:10380c000080fa00000006000000fa00881f780013
:10381c00c88080005e030700004c78000800e800b8
:10382c00c0808800d08080000000e900d080880033
:10383c00d08080000000e000030032005f0307002e
:10384c00500020000c003700b08080000020a00049
:10385c00b0808800218180008081800001000100ff
:10386c000080e900e10f500002003e00aaff0700b3
:10387c0001003700a3ff07004f0478000080fa0016
:10388c00000006000000fa00b08080000020a000bc
:10389c00b0808800218180008081800001000100bf
:1038ac00e20f50000a003900e30f5000030036000d
:1038bc00e40f5000030032000500370061ff0700e1
:1038cc0004003700d8020700300020000100370048
:1038dc0061ff07000080fa00000006000000fa00fb
:1038ec00cc020700b0808000680060000000e0009f
:1038fc0005003200170307000004e000020032004c
:10390c00f0002000008188000081800080004000d1
:10391c00c00321000080400010007800000001006e
:10392c00008188000080fa00000006000000fa0008
:10393c00760307000080fa00000006000200fa007f
:10394c00000f7800100020000080fa000000060034
:10395c000200fa00000f7800500020000080fa00ee
:10396c00000006000600fa00000f7800110798000e
:10397c00220798001e0090000000e0000f003200ab
:10398c009e007800678040008000400060012100ac
:10399c00008040009e009000010878009e00780096
:1039ac006d804000800040006001210000804000dc
:1039bc00ae009000010878000e0037009e007800e1
:1039cc0067804000800040006001210000804000c2
:1039dc0041ca2100010878009e0078006d804000eb
:1039ec008000400060012100008040008000eb005e
:1039fc00010878000080fa00000006000000fa00c0
:103a0c00b1738000f00f200000806000b07388005c
:103a1c0091738000f00f200000806000907388008c
:103a2c00776ea900774ea900736ea900734ea9009a
:103a3c00774ea800005c260021052000d009070065
:103a4c008002200008010700c000200006010700ca
:103a5c0060002000040107006000070010c0b300e4
:103a6c000080fa00000006000400fa00000f780045
:103a7c00110798000a0037001e00780010407800eb
:103a8c000000fb000000e000110032001e00780076
:103a9c00104078001e0fe800100007000000000026
:103aac001e00900000f0a7000000ea000000ea00f1
:103abc004f00de00004078009e0090008100e9007d
:103acc00110798000004e000ebff3a0001003700fa
:103adc00000000000080fa00000006000200fa005e
:103aec00004f78001e00fb00ea0f50000e00320061
:103afc00ea0f500003003c00e80f500015003200a4
:103b0c001b003700ec0f500017003200ed0f500077
:103b1c0017003a000cd0bf00ea4f500029003200c9
:103b2c0037000700280037000cd0bf00ed4f5000c5
:103b3c0001003200320007000ad0bf000004e00090
:103b4c0002003a007b0007001f0037006e000700e0
:103b5c001d0037003600070000c2b300dfff07006e
:103b6c0033000700180037001c0007001600370050
:103b7c000bd0bf00f04f50000c003a000b70ef0060
:103b8c000ad0bf000004e00005003a00000c200041
:103b9c00b500070010c0b3000af0b70003003700ef
:103bac0000082000b00007000a70ef001e407800eb
:103bbc00770007000bd0bf000040e8000bf0b70007
:103bcc0001003700000000001e417800c1002100f8
:103bdc00824878000080fa00000006000000fa001d
:103bec0010002000a0000700200020009e0007000d
:103bfc000a70ef000b70ef000080fa000000060066
:103c0c000000fa000ad0bf000004e00003003a00f4
:103c1c00000820009400070002003700000c200070
:103c2c00910007000b70ef000080fa000000060006
:103c3c000200fa000bd0bf000004e00014003a00b0
:103c4c000ad0bf000004e00005003a00000c200080
:103c5c008500070010c0b3000af0b700030037005e
:103c6c0000082000800007000a70ef000040eb0005
:103c7c00004f7800020037000c0007001e4fe800d0
:103c8c001e407800ee4f5000fbff36000500370059
:103c9c000bd0bf000040e9000bf0b7000001200082
:103cac00710007000080fa00000006000000fa0016
:103cbc00400120006c0007000bd0bf000040e80062
:103ccc000bf0b7000bd0bf00f04f50000c003a00c7
:103cdc000b70ef000ad0bf000004e00005003a00b2
:103cec00000c20006000070010c0b3000af0b70001
:103cfc0003003700000820005b0007000a70ef008b
:103d0c000080fa00000006000200fa000040eb0000
:103d1c00004f780002003700c5ff07001e4fe80077
:103d2c001e407800ef4f5000fbff36000080fa0079
:103d3c00000006000200fa000040eb00004f780083
:103d4c0002003700d9ff07001e4fe8001e40780024
:103d5c00ef4f5000fbff36000080fa000000060019
:103d6c000200fa00004f78001e4078000004e000ca
:103d7c0003003200f00020003b0007000200370077
:103d8c00c0002000380007000080fa000000060088
:103d9c000800fa00604798006e4090000000fb009d
:103dac004800dd00000f780000002f001e006000ae
:103dbc001007980000f020001e00600020079800fb
:103dcc002e0090004400dd0020079800776ea800bc
:103ddc00b1738000f0ff200000806000b073880099
:103dec00b17380001e00900001007000b073880059
:103dfc00400b200001002000e1080700774ea800ce
:103e0c00400b200001002000dd080700774ea900c0
:103e1c00b1738000f0ff200000806000b073880058
:103e2c00b17380002e00900001007000b073880008
:103e3c00400b200001002000d1080700774ea8009d
:103e4c00400b200001002000cd080700774ea90090
:103e5c00776ea9008032220001002000c8080700fc
:103e6c000080fa00000006000800fa0030079800f5
:103e7c003e0090004800dd00000f780000002f008d
:103e8c001e0060001007980000f020001e0060006b
:103e9c00200798002e0090004400dd0020079800b9
:103eac00776ea900b1738000f0ff200000806000e5
:103ebc00b0738800b17380001e0090000100700088
:103ecc00b0738800774ea800400b20000100200042
:103edc00ab080700774ea900776ea900b17380007c
:103eec00f0ff200000806000b0738800b173800088
:103efc002e00900001007000b0738800774ea8006f
:103f0c00400b2000010020009d080700774ea900ff
:103f1c003e009000f40f50000d003200f40f5000e2
:103f2c0005003e00ec0f500009003200f00f50006d
:103f3c00070032000a00370081022000810f500078
:103f4c000300320081032000810f500004003a006e
:103f5c00803222000100200089080700040037008d
:103f6c0000502600410020008508070000000000da
:103f7c000080fa00000006000000fa00d221ef00d9
:103f8c0000082800d00f88001048a9003048a8006d
:103f9c001068a9003068a8000080fa000000060034
:103fac000000fa00aff107000080fa0000000600e4
:103fbc000000fa00208b2800012020000001be0028
:103fcc008000eb001000200086f107000080fa0052
:103fdc00000006000000fa00d321a8000080fa00bf
:103fec00000006000000fa0088a00a00d4010000be
:103ffc000080fb0000f0a7000000ea000000ea00cf
:10400c004f00de00004078000080fa00000006003f
:10401c000000fa00d321a9000080fa00000006007d
:10402c000000fa0099a00a00d40100000080fb00f7
:10403c0000f0a7000000ea000000ea004f00de00dc
:10404c00004078000080fa00000006000000fa0032
:10405c00d301a8000080fa00000006000000fa005e
:10406c00d301a9000080fa00000006000200fa004b
:10407c00a10e800000002400008060000000e00021
:10408c00030032000000eb00000f78000200370044
:10409c0010002000000f78001e0078000080fa004d
:1040ac00000006000200fa00000f78001e007800e5
:1040bc000000e00003003a00d5c1a9000000000098
:1040cc0001003700000000000080fa00000006002c
:1040dc000200fa0040002000000f7800a10e8000c2
:1040ec0000002400008060000000e00003003200ab
:1040fc0050002000000f780015003700dca00a00eb
:10410c00d40100000080fb00e10f500007003200da
:10411c00e20f5000080032000000e00009003a00f5
:10412c000000eb00000f7800090037003000200081
:10413c00000f78000600370020002000000f7800e8
:10414c000300370040002000000f78000000000042
:10415c001e0078000080fa00000006000600fa003d
:10416c0010079800210798000000eb00000f780062
:10417c000e003700d00f8000610060000000e000ee
:10418c000e003a00e10f80001e009000010878003c
:10419c001e0090000080e800100798002e00900090
:1041ac000000e900200798001e0fe8002e00900088
:1041bc000000e000efff3a000100370000000000b3
:1041cc001e0078000080fa00000006000600fa00cd
:1041dc0010079800210798000000eb00000f7800f2
:1041ec000f003700d10f80000020200000806000fd
:1041fc000000e0000e003a001e0090001000780055
:10420c00f00f88001e0090000080e8001007980056
:10421c002e0090000000e900200798001e0fe80017
:10422c002e0090000000e000eeff3a000100370085
:10423c00000000001e0078000080fa00000006005c
:10424c000400fa00100798000040eb00004f7800c3
:10425c001a0007000004e00006003200d10e8000b6
:10426c001e0090000108780010c0b300004f7800c9
:10427c00020037000040eb00004f78001e40780031
:10428c000080fa00000006000000fa0000a00a00fe
:10429c00760e00000004a200614060000080fb006c
:1042ac0061006000b17380000100a100010070008a
:1042bc00b07388000080fa00000006000000fa00cd
:1042cc0000a00a00d80100000080fb0000f0a7004d
:1042dc000000ea000000ea004f00de000040780019
:1042ec000080fa00000006000400fa001007980095
:1042fc000040eb00004f78001f0007000004e000b6
:10430c00150032001e00900010007800e00e8800ae
:10431c001e00900010009000f00e88001e0090000f
:10432c0020009000000f88001e00900030009000cc
:10433c00100f88001e00900040009000200f880095
:10434c001e00900050009000300f880010c0b30089
:10435c00004f7800020037000040eb00004f78005f
:10436c001e4078000080fa00000006000000fa00f1
:10437c000080fa00000006000000fa00c00e800069
:10438c006200600000f0a7000000ea000000e900f5
:10439c004f00de00004078000080fa0000000600ac
:1043ac000000fa0001e2a9000080fa0000000600fb
:1043bc000000fa002228a8002208a8000080fa00b9
:1043cc00000006000000fa0010418000620060004e
:1043dc000000e00004003a00104180006100600021
:1043ec000000e00002003200100020000100370045
:1043fc000000eb00004078000080fa00000006008e
:10440c000000fa002228a9002208a9000080fa0066
:10441c00000006000000fa000228a9000208a9000a
:10442c000080fa00000006000000fa000228a80034
:10443c000208a8000080fa00000006000200fa0042
:10444c00000f780010408000620060000000e00067
:10445c0010003a0010408000610060000000e00095
:10446c000c003a0010408000620060000000e00088
:10447c0008003a0010408000610060000000e0007d
:10448c0004003a0080322200010020003c070700a3
:10449c00f4ff37000080fa00000006000000fa006c
:1044ac000110800000002800008060000000e00087
:1044bc0007003a000422ef000000280000108800da
:1044cc00001c20008010880010c0b30001003700d1
:1044dc000040eb000080fa00000006000000fa002b
:1044ec000110800000002800008060000000e00047
:1044fc0006003a000222a8000202a80000c2a8008e
:10450c0001e2a80010c0b300010037000040eb002e
:10451c000080fa00000006000000fa000080fa009b
:10452c00000006000000fa000002a8000080fa005b
:10453c00000006000000fa000022a8000080fa002b
:10454c00000006000000fa000042a8000080fa00fb
:10455c00000006000000fa00ffa00a0004020000a0
:10456c000080fb0000f0a7000000ea000000ea0059
:10457c004f00de00004078000080fa0000000600ca
:10458c000000fa000062a8000080fa00000006009b
:10459c000000fa00c0108000004078000080fa0093
:1045ac00000006000200fa00004f78001e80fb009d
:1045bc00a01088000080fa00000006000000fa003d
:1045cc0000a2a9000082a8000080fa0000000600ea
:1045dc000000fa0000a2a8000082a8000080fa00e7
:1045ec00000006000000fa000182a8000080fa001a
:1045fc00000006000000fa0020108000620060003d
:10460c000000e00004003a0020108000610060000f
:10461c000000e00002003200100020000100370012
:10462c000000eb00004078000080fa00000006005b
:10463c000000fa0033a00a00040200000080fb0016
:10464c0000f0a7000000ea000000ea004f00de00c6
:10465c00004078000080fa00000006000000fa001c
:10466c0021108000000220000080600000f0a700f4
:10467c000000ea000000e9004f00de000040780076
:10468c000080fa00000006000000fa0044a00a00b6
:10469c00040200000080fb0000f0a7000000ea000c
:1046ac000000ea004f00de00004078000080fa00b5
:1046bc00000006000000fa0055a00a0004020000e9
:1046cc000080fb0000f0a7000000ea000000ea00f8
:1046dc004f00de00004078000080fa000000060069
:1046ec000000fa0022a00a00040200000080fb0077
:1046fc0000f0a7000000ea000000ea004f00de0016
:10470c00004078000080fa00000006000000fa006b
:10471c000542a9000080fa00000006000000fa0023
:10472c0002a2a8000080fa00000006000000fa00b7
:10473c0002a2a9000080fa00000006000000fa00a6
:10474c0002c2a8000080fa00000006000000fa0077
:10475c0002c2a9000080fa00000006000200fa0064
:10476c00000f78009e007800018088000080fa001d
:10477c00000006000200fa00000f78009e0078008e
:10478c00118088000080fa00000006000200fa0088
:10479c00000f78009e007800218088000080fa00cd
:1047ac00000006000200fa00000f78001100200043
:1047bc001e00780043fb07008000eb000000eb00bc
:1047cc00b4fa0700400020000080fa000000060048
:1047dc000400fa00004f7800114798002247980017
:1047ec00000000001e407800d7fa07000000e0002f
:1047fc00fcff32000e80e80080007800803d220033
:10480c00a4fa07000e00e800110020002dfb0700a1
:10481c008000eb0020092300b0fa07005cfb0700c6
:10482c00000000000bfb0700e10f5000fdff320001
:10483c000080fa00000006000600fa00004f780025
:10484c001107980022079800000000001e40780015
:10485c00bdfa07000000e000fcff3200ae00900043
:10486c001e00900017fb07008000eb0020092300be
:10487c009afa070046fb070000000000f5fa070053
:10488c00e10f5000fdff32000080fa00000006002e
:10489c000200fa00000f7800110020001e007800c2
:1048ac0008fb07008000eb000000eb0079fa070022
:1048bc00200020000080fa00000006000800fa002a
:1048cc006047980071479800a0c2b3004047980019
:1048dc0020002000000f78001900370000000000b5
:1048ec006e40900098fa07000000e000fcff3200d8
:1048fc006400470080007800e044220065fa07005d
:10490c006700470011002000eefa07008000eb0062
:10491c002009230071fa07001dfb0700cdfa0700e0
:10492c00100798001e009000e10f5000fbff3200b2
:10493c001e0090000000e000050032001e0fe90090
:10494c001e0078000000e000e4ff3a000100370090
:10495c00000000004e4090000080fa0000000600ad
:10496c000200fa00000f7800210020001e007800e1
:10497c00d4fa07008000eb000000eb0045fa0700ba
:10498c00200020000080fa00000006000400fa005d
:10499c002047980031479800000000002e409000fe
:1049ac0069fa07000000e000fcff32008e0078007e
:1049bc00604b220037fa070063004700110020000b
:1049cc00c0fa07008000eb002009230043fa07001f
:1049dc00effa0700000000009efa0700e10f5000fc
:1049ec00fdff32001e007800c800dd004800de002c
:1049fc00008070000080fa00000006000200fa003f
:104a0c00000f7800210020001e007800adfa07008e
:104a1c008000eb000000eb001efa070040002000b5
:104a2c000080fa00000006000400fa00004f780035
:104a3c001147980012079800000000001e407800f3
:104a4c0041fa07000000e000fcff32000e80e80095
:104a5c0080007800405022000efa07000e00e8009b
:104a6c001100200097fa07008000eb0020092300ba
:104a7c001afa0700c6fa07000000000075fa0700d2
:104a8c00e10f5000fdff32000080fa00000006002c
:104a9c000200fa00000f78001e00780090007800e9
:104aac001e0078001000900086fa07008000eb00d2
:104abc000000eb00f7f90700200020000080fa004e
:104acc00000006000a00fa00404798005147980081
:104adc0032079800430798003e009000100798009a
:104aec00ce009000010f7800000000004e409000b6
:104afc0015fa07000000e000fcff32008e00780081
:104b0c00e0542200e3f90700650047001100200083
:104b1c006cfa07008000eb0020092300eff9070076
:104b2c009bfa0700000000004afa0700e10f500052
:104b3c00fdff32000080fa00000006000600fa00bb
:104b4c00004f780011079800220798000000000021
:104b5c001e407800fcf907000000e000fcff32006a
:104b6c00ae0090001e00900056fa070083fa070072
:104b7c000000000037fa0700e10f5000fdff320083
:104b8c000080fa00000006000000fa00ae22ef00e0
:104b9c00b022ef00b422ef00f00f2000e0158800e7
:104bac00c022ef00c222ef00c422ef00c622ef00a9
:104bbc0010622800601588000080fa0000000600d2
:104bcc000400fa00000f78001107980000000000a4
:104bdc00a0158000620060000000e000fcff3a00bd
:104bec001e00780010007800c0158800000000003e
:104bfc00a115800000022000008060000000e00091
:104c0c00fbff3a001e009000c115800001087800df
:104c1c000080fa00000006001800fa00100f98003f
:104c2c00210f9800320f98000000eb00000f780065
:104c3c000000eb00100798000000eb0070079800d4
:104c4c000000eb00000f9800200020006007980087
:104c5c002e0890000000d100200f98001e08900034
:104c6c000000e00005003a000000eb00500798003f
:104c7c00700047002007980004003700ee009000f9
:104c8c00510798009e089000210798003e0890005c
:104c9c000000e00005003a000000eb00400798001f
:104cac006e0047003007980005003700ee009000ba
:104cbc0041079800be0890003107980000000000e2
:104ccc00a0158000620060000000e000fcff3a00cc
:104cdc001b003700a0158000620060000000e0009f
:104cec0008003a002e00900010007800c0158800d3
:104cfc00ae0090005e0090000080400020079800fd
:104d0c001e0fe800a115800000022000008060004a
:104d1c000000e0000a003a003e009000c11580003f
:104d2c0001087800be0090004e009000008040000a
:104d3c00300798001e0090000000e8001007980053
:104d4c002e0890009e007800808f5000e1ff390003
:104d5c000f003700a11580000002200000806000c9
:104d6c000000e0000a003a003e009000c1158000ef
:104d7c0001087800be0090004e00900000804000ba
:104d8c00300798001e0090000000e8001007980003
:104d9c009e0090002e089000808f5000edff39008f
:104dac001e0078000080fa00000006000400fa00e3
:104dbc00100798008e0078000e80e80080ff070036
:104dcc001e0078000080fa00000006000600fa00c1
:104ddc00000f78001107980022079800ae00900091
:104dec001e007800010178009e0090008aff0700e9
:104dfc000080fa00000006000000fa006115800037
:104e0c0000802000008060000000e0000200320002
:104e1c0020002000080037006115800000402000b1
:104e2c00008060000000e000020032001000200052
:104e3c00010037000000eb000080fa0000000600c3
:104e4c000000fa00a01580000080fa0000000600a7
:104e5c000200fa00004f78001e80fb0001092100bf
:104e6c00614078000080fa00000006000200fa00a1
:104e7c00004f7800114798001e80fb0001092100ab
:104e8c001e419000827078000080fa00000006003d
:104e9c000000fa00000e2000804a88005229ef0022
:104eac005429ef005629ef005a29ef005c29ef0036
:104ebc006029ef006229ef0000002500204b8800dc
:104ecc0040002000304b88006829ef006c29ef006f
:104edc007029ef007229ef0051e9a80000c8a90061
:104eec0000e8a90020c8a80020e8a8000080fa006b
:104efc00000006000000fa00400a21008040eb0090
:104f0c0001487800500a21008040eb0001487800ed
:104f1c00600a21008040eb000148780051e9a800ac
:104f2c000080fa00000006000000fa0051e9a90018
:104f3c000080fa00000006000c00fa00881f7800c0
:104f4c000040eb00c2ff07000004fb0010c0b300e0
:104f5c00bfff07000000fb004800dd00000044001c
:104f6c00000f780020c0b300b9ff07000004fb005d
:104f7c0030c0b300b6ff07000000fb004800dd00a6
:104f8c00000044001007980040c0b300b0ff0700b9
:104f9c000004fb0050c0b300adff07000000fb0095
:104fac004800dd0000004400200798000e00780047
:104fbc00cdfc070007fc07000000000009fc0700ff
:104fcc000004a2000004e000fcff3a0010fc070003
:104fdc000000000003fc07000004e000fdff3a00a5
:104fec004f0478000080fa00000006000400fa006c
:104ffc00008fbe001e007800204b88001e00be00f3
:10500c004008de0000007800304b8800600a210068
:10501c008040eb00014878000080fa000000060098
:10502c000400fa000080eb008080eb00008fbe00d3
:10503c00304b80008000eb00c001dd00020020003e
:10504c00204b80008000eb00001f71000197710065
:10505c001e00be000080fa00000006000400fa00ea
:10506c00008fbe001e007800004b88001e00be00a2
:10507c004008de0000007800104b8800600a210018
:10508c008040eb00014878000080fa000000060028
:10509c000400fa000080eb008080eb00008fbe0063
:1050ac00104b80008000eb00c001dd0002002000ee
:1050bc00004b80008000eb00001f71000197710015
:1050cc001e00be000080fa00000006000200fa007c
:1050dc00600a2100104f78001e4078000004e000a8
:1050ec0003003200600a21008040eb000148780088
:1050fc001e4078000080fa00000006000000fa0054
:10510c00007c80000080fa00000006000200fa001b
:10511c00faff0700000f78001e007800240007003b
:10512c000004e000020032000000280071000700bb
:10513c001e0078002a0007000004e0000200320084
:10514c00000024006b0007001e00780032000700ee
:10515c000004e0000200320000202000650007007f
:10516c001e0078003a0007000004e0000200320044
:10517c00000820005f0007001e00780042000700b6
:10518c000004e00002003200000420005900070077
:10519c001e0078004a0007000004e0000200320004
:1051ac0000012000530007000080fa0000000600f8
:1051bc000400fa00100798000040eb00004f780044
:1051cc001e0090000000e00002003d0010c0b30083
:1051dc00004f78001e4078000080fa0000000600a6
:1051ec000400fa00100798000040eb00004f780014
:1051fc009e00900000002400008060000000e00091
:10520c000200320010c0b300004f78001e4078003e
:10521c000080fa00000006000400fa001007980055
:10522c000040eb00004f78009e0090000020200012
:10523c00008060000000e0000200320010c0b300eb
:10524c00004f78001e4078000080fa000000060035
:10525c000400fa00100798000040eb00004f7800a3
:10526c009e00900000082000008060000000e0001c
:10527c000200320010c0b300004f78001e407800ce
:10528c000080fa00000006000400fa0010079800e5
:10529c000040eb00004f78009e00900000042000be
:1052ac00008060000000e0000200320010c0b3007b
:1052bc00004f78001e4078000080fa0000000600c5
:1052cc000400fa00100798000040eb00004f780033
:1052dc001e009000700060000000e0000200320030
:1052ec0010c0b300004f78001e4078000080fa0018
:1052fc00000006000200fa00000f78009e80ea0011
:10530c00007c800000806000007c88000080fa0037
:10531c00000006000000fa00802fef000080fa0069
:10532c00000006000000fa00000c2000a04b8800d2
:10533c007629ef007829ef007a29ef007e29ef001b
:10534c008029ef008429ef008629ef00d06e26001b
:10535c00404c88008a29ef008c29ef009029ef003f
:10536c009429ef009629ef0075e9a80002e8a9003e
:10537c000308a90022e8a8002308a8000080fa006e
:10538c00000006000000fa00800a21008040eb00bb
:10539c0001487800900a21008040eb000148780019
:1053ac00a00a21008040eb000148780075e9a800b4
:1053bc000080fa00000006000000fa0075e9a90060
:1053cc000080fa00000006000200fa000040eb002a
:1053dc009ffe070008f0b70010c0b3009cfe07004a
:1053ec000000fb003080880060002100810021005b
:1053fc0070000700000f78001e00780046020700be
:10540c000080fa00000006000000fa000080fa009c
:10541c00000006000200fa00000f78009e007800e1
:10542c00414c8800800a21008040eb000148780044
:10543c000080fa00000006000200fa00000f78005d
:10544c009e007800514c8800900a21008040eb00af
:10545c00014878000080fa00000006000000fa0005
:10546c00404c80000080fa00000006000000fa00aa
:10547c00504c80000080fa00000006000200fa0088
