:020000040000fa
:080000000002040000000000f2
:020000040000fa
:040008009803000059
:020000040000fa
:04000c00aa03000043
:020000040000fa
:04001000ba0300002f
:020000040000fa
:04001400a003000045
:020000040000fa
:04001800b20300002f
:020000040000fa
:04001c0000040000dc
:020000040000fa
:04002000c203000017
:020000040000fa
:0400240000040000d4
:020000040000fa
:0400280000040000d0
:020000040000fa
:04002c00ca03000003
:020000040000fa
:0400300000040000c8
:020000040000fa
:0400340000040000c4
:020000040000fa
:0400380000040000c0
:020000040000fa
:04003c0000040000bc
:020000040000fa
:0400400000040000b8
:020000040000fa
:0400440000040000b4
:020000040000fa
:0400480000040000b0
:020000040000fa
:04004c0000040000ac
:020000040000fa
:0400500000040000a8
:020000040000fa
:0400540000040000a4
:020000040000fa
:0400580000040000a0
:020000040000fa
:04005c00000400009c
:020000040000fa
:040060000004000098
:020000040000fa
:040064000004000094
:020000040000fa
:040068000004000090
:020000040000fa
:04006c00000400008c
:020000040000fa
:040070000004000088
:020000040000fa
:040074000004000084
:020000040000fa
:040078000004000080
:020000040000fa
:04007c00000400007c
:020000040000fa
:040080000004000078
:020000040000fa
:040084000004000074
:020000040000fa
:040088000004000070
:020000040000fa
:04008c00000400006c
:020000040000fa
:040090000004000068
:020000040000fa
:040094000004000064
:020000040000fa
:040098000004000060
:020000040000fa
:04009c00000400005c
:020000040000fa
:0400a0000004000058
:020000040000fa
:0400a4000004000054
:020000040000fa
:0400a8000004000050
:020000040000fa
:0400ac00000400004c
:020000040000fa
:0400b0000004000048
:020000040000fa
:0400b4000004000044
:020000040000fa
:0400b8000004000040
:020000040000fa
:0400bc00000400003c
:020000040000fa
:0400c0000004000038
:020000040000fa
:0400c4000004000034
:020000040000fa
:0400c8000004000030
:020000040000fa
:0400cc00000400002c
:020000040000fa
:0400d0000004000028
:020000040000fa
:0400d4000004000024
:020000040000fa
:0400d8000004000020
:020000040000fa
:0400dc00000400001c
:020000040000fa
:0400e0000004000018
:020000040000fa
:0400e4000004000014
:020000040000fa
:0400e8000004000010
:020000040000fa
:0400ec00000400000c
:020000040000fa
:0400f0000004000008
:020000040000fa
:0400f4000004000004
:020000040000fa
:0400f8000004000000
:020000040000fa
:0400fc0000040000fc
:020000040000fa
:0401000000040000f7
:020000040000fa
:0401040000040000f3
:020000040000fa
:0401080000040000ef
:020000040000fa
:04010c0000040000eb
:020000040000fa
:0401100000040000e7
:020000040000fa
:0401140000040000e3
:020000040000fa
:0401180000040000df
:020000040000fa
:04011c0000040000db
:020000040000fa
:0401200000040000d7
:020000040000fa
:0401240000040000d3
:020000040000fa
:0401280000040000cf
:020000040000fa
:04012c0000040000cb
:020000040000fa
:0401300000040000c7
:020000040000fa
:0401340000040000c3
:020000040000fa
:0401380000040000bf
:020000040000fa
:04013c0000040000bb
:020000040000fa
:0401400000040000b7
:020000040000fa
:0401440000040000b3
:020000040000fa
:0401480000040000af
:020000040000fa
:04014c0000040000ab
:020000040000fa
:0401500000040000a7
:020000040000fa
:0401540000040000a3
:020000040000fa
:04015800000400009f
:020000040000fa
:04015c00000400009b
:020000040000fa
:040160000004000097
:020000040000fa
:040164000004000093
:020000040000fa
:04016800000400008f
:020000040000fa
:04016c00000400008b
:020000040000fa
:040170000004000087
:020000040000fa
:040174000004000083
:020000040000fa
:04017800000400007f
:020000040000fa
:04017c00000400007b
:020000040000fa
:040180000004000077
:020000040000fa
:040184000004000073
:020000040000fa
:04018800000400006f
:020000040000fa
:04018c00000400006b
:020000040000fa
:040190000004000067
:020000040000fa
:040194000004000063
:020000040000fa
:04019800000400005f
:020000040000fa
:04019c00000400005b
:020000040000fa
:0401a0000004000057
:020000040000fa
:0401a4000004000053
:020000040000fa
:0401a800000400004f
:020000040000fa
:0401ac00000400004b
:020000040000fa
:0401b0000004000047
:020000040000fa
:0401b4000004000043
:020000040000fa
:0401b800000400003f
:020000040000fa
:0401bc00000400003b
:020000040000fa
:0401c0000004000037
:020000040000fa
:0401c4000004000033
:020000040000fa
:0401c800000400002f
:020000040000fa
:0401cc00000400002b
:020000040000fa
:0401d0000004000027
:020000040000fa
:0401d4000004000023
:020000040000fa
:0401d800000400001f
:020000040000fa
:0401dc00000400001b
:020000040000fa
:0401e0000004000017
:020000040000fa
:0401e4000004000013
:020000040000fa
:0401e800000400000f
:020000040000fa
:0401ec00000400000b
:020000040000fa
:0401f0000004000007
:020000040000fa
:0401f4000004000003
:020000040000fa
:0401f80000040000ff
:020000040000fa
:0401fc0000040000fb
:020000040000fa
:0402000000040000f6
:020000040000fa
:0402040000040000f2
:020000040000fa
:0402080000040000ee
:020000040000fa
:04020c0000040000ea
:020000040000fa
:0402100000040000e6
:020000040000fa
:0402140000040000e2
:020000040000fa
:0402180000040000de
:020000040000fa
:04021c0000040000da
:020000040000fa
:0402200000040000d6
:020000040000fa
:0402240000040000d2
:020000040000fa
:0402280000040000ce
:020000040000fa
:04022c0000040000ca
:020000040000fa
:040230005c0300006b
:020000040000fa
:040234007a03000049
:020000040000fa
:0402380000040000be
:020000040000fa
:04023c0000040000ba
:020000040000fa
:0402400000040000b6
:020000040000fa
:0402440000040000b2
:020000040000fa
:0402480000040000ae
:020000040000fa
:04024c0000040000aa
:020000040000fa
:0402500000040000a6
:020000040000fa
:0402540000040000a2
:020000040000fa
:04025800000400009e
:020000040000fa
:04025c00000400009a
:020000040000fa
:040260000004000096
:020000040000fa
:040264000004000092
:020000040000fa
:04026800000400008e
:020000040000fa
:04026c00000400008a
:020000040000fa
:040270000004000086
:020000040000fa
:040274000004000082
:020000040000fa
:04027800000400007e
:020000040000fa
:04027c00000400007a
:020000040000fa
:040280000004000076
:020000040000fa
:040284000004000072
:020000040000fa
:04028800000400006e
:020000040000fa
:04028c00000400006a
:020000040000fa
:040290000004000066
:020000040000fa
:040294000004000062
:020000040000fa
:04029800000400005e
:020000040000fa
:04029c00000400005a
:020000040000fa
:0402a0000004000056
:020000040000fa
:0402a4000004000052
:020000040000fa
:0402a800000400004e
:020000040000fa
:0402ac00000400004a
:020000040000fa
:0402b0000004000046
:020000040000fa
:0402b4000004000042
:020000040000fa
:0402b800000400003e
:020000040000fa
:0402bc00000400003a
:020000040000fa
:0402c0000004000036
:020000040000fa
:0402c4000004000032
:020000040000fa
:0402c800000400002e
:020000040000fa
:0402cc00000400002a
:020000040000fa
:0402d0000004000026
:020000040000fa
:0402d4000004000022
:020000040000fa
:0402d800000400001e
:020000040000fa
:0402dc00000400001a
:020000040000fa
:0402e0000004000016
:020000040000fa
:0402e4000004000012
:020000040000fa
:0402e800000400000e
:020000040000fa
:0402ec00000400000a
:020000040000fa
:0402f0000004000006
:020000040000fa
:0402f4000004000002
:020000040000fa
:0402f80000040000fe
:020000040000fa
:0402fc0000040000fa
:020000040000fa
:0403000000040000f5
:020000040000fa
:0403040000040000f1
:020000040000fa
:0403080000040000ed
:020000040000fa
:04030c0000040000e9
:020000040000fa
:0403100000040000e5
:020000040000fa
:0403140000040000e1
:020000040000fa
:0403180000040000dd
:020000040000fa
:04031c0000040000d9
:020000040000fa
:0403200000040000d5
:020000040000fa
:100400002f0c21000eff24000e01880000002000a8
:100410000000e000020032000001200020028800fd
:1004200014000700350107000000e00003003a0057
:10043000c0bf2100010020000200370000002000a2
:1004400001002000810f70004220ae000f00070065
:10045000000020000000e0004220ae00000002008a
:1004600000000000a41c0200000000000040da00b0
:100470000000fe00800120000000e00002003200c9
:10048000002020009001880000000600a1028800e2
:10049000800478000000eb001f003700e284440075
:1004a00054a0b4009905ba00e284440054a0b400fa
:1004b0009906ba00e284440054a0b4000006eb00a0
:1004c000476fde00fd07b200ae018800636ce100fb
:1004d00003003a000ad801000000eb000e003700cc
:1004e000606ce10008003a00004deb000a05e800ee
:1004f000020039003420ec000af0a0008b05e9006e
:10050000f9ff3e00040037006168e100010032009d
:100510000086eb000b00070019c7ba001905ba00e6
:100520000e04e00003003a000a00e000dbff3a009e
:1005300000000600fe07b200ae0288008a047800c0
:10054000f5ff37000cd0a300e20f4d001c0039006e
:1005500089027800354dba000a05e800020039002a
:100560003420ec000af0a0008b05e9000f003200f7
:10057000254dba000a05e800020039003420ec00dd
:100580000af0a0008b05e900080032000c00e00032
:100590000600320015cdba000a05e8000200390055
:1005a0003420ec000af0a0008b05e9008984e80003
:1005b00054a0b4000b00e000e2ff3a000000060087
:1005c0009902ba00055d78008b05e900f7ff32005b
:1005d000c82ade00055d78008b05e900f3ff3200d4
:1005e0000c00e000f1ff320019ddba00eeff370029
:1005f0006100e10001003200100005003200f80047
:100600003400f8000002be00930188003200be00f2
:100610000100e0000700320032037800c733de003b
:10062000a7018800f607b2007f30e1000400320025
:10063000200020003400f9003200f900000006001c
:100640008100e9000500e00003003a000180090094
:1006500032100300edff37000180090032900300e3
:10066000d561ae00e9ff370030002000f1ff370010
:1006700050052000b00e8800a00a2000b00e8800af
:10068000d3e1a8000000060050052000b00e88004d
:10069000a00a2000b00e8800d3e1a90000000600e7
:1006a0003e1a0400000000004c0704000000000097
:1006b00000000400000000003600f800809fbe002b
:1006c000829fbe00849fbe00869fbe000000fa008d
:1006d000f10a07001048a9000080fa004f03be008d
:1006e0004f02be004f01be004f00be003600f900b1
:1006f000004006003600f800809fbe00829fbe00ca
:10070000849fbe00869fbe000000fa00120b070007
:100710001068a9000080fa004f03be004f02be001f
:100720004f01be004f00be003600f9000040060039
:100730003600f800c028a9000000eb00780d070083
:100740003600f8007a0d0700c048a900100020000c
:10075000730d07003600f800c068a90020002000d3
:100760006f0d07003600f800c088a9003000200097
:100770006b0d07003600f800c608a90070002000c5
:10078000670d07003600f800c408a900b00020007b
:10079000630d07003600f800809fbe00829fbe00f8
:1007a000849fbe00869fbe000000fa00308080005b
:1007b0000000e000020032003080800000000100f4
:1007c000b00b2100104078008040e800b00b210001
:1007d00001487800a00b210011c0b3000148780047
:1007e0000028a9000080fa004f03be004f02be009f
:1007f0004f01be004f00be003600f9000040060069
:100800000040da000000fe000a00fa00110020009b
:10081000b1bf9f00c0bf9f006a805700530207000e
:100820004fb897000080fa00000006000a00fa00a6
:1008300051002000b1bf9f00c0bf9f006a805700d9
:100840004c0207005fb897000080fa000000060025
:10085000889fbe0080047800008680000000e000d1
:1008600004003a000e0007000084eb000000e000e6
:1008700008003500088680000900e000050032000d
:1008800009004400060007000000e00001003d00f0
:100890000084eb00080078004f04be000000060052
:1008a000800078000100e00003003a000000200012
:1008b00000868800000005000080eb000200200098
:1008c000828f500002003e00018688000000eb008d
:1008d000000006000600fa00000f780011079800db
:1008e000220798001e009000ae00900062080700ea
:1008f0002e0090000080fa000000060000000500b5
:10090000010321006a000700800078000080eb00ee
:100910000100e0000400350001032100a0002000d8
:10092000020007004f80de0000000600889fbe0026
:100930008a1f78000004be00c90090006900900082
:10094000808f50000500390009007800b7000700cb
:100950008080eb000000e0001600350008457800bc
:100960004900900008587800c004980019007800e9
:1009700000b8a30004003a0000a8a300070032005a
:10098000ea4f540005003a00090078000d00070006
:100990008080eb000000e00006003a0000c020006c
:1009a000190060000200320049009000e004980045
:1009b0008a80fb00010078004f0578004f04be00dc
:1009c00000000600889fbe008a1f7800000478009f
:1009d0000800e0000d003a00e8072100700544001f
:1009e0008004eb00580078000000e00004003200b2
:1009f000f4ff07000000e00001003d008084eb00f0
:100a00008a0f5400f7ff3a0025003700000022004b
:100a1000180060008004eb0021003200a804900060
:100a20000f00370009015100384090000000fb0022
:100a300089007800a7ff07000000e00007003c00e5
:100a4000280090004004980060049800500c980022
:100a50001890a0008084eb001100370080844400cf
:100a600048019000828f5400eeff3900280090006a
:100a7000400498009800780002c0200002816000c5
:100a800001003a003800900001e8a30002003200a3
:100a90006004980001003700500c98008004eb00bf
:100aa000090078004f0578004f04be0000000600e2
:100ab000889fbe008a9fbe008004780001047800f1
:100ac0002c003700c800900068009000808f500014
:100ad0000400390008007800540007000000e0001e
:100ae0003700350000402000180060000900320087
:100af000a10020000900780042000700800578006e
:100b00000b00e00003003200618514000a854500f7
:100b10000400370009007800340007000005780061
:100b20008005eb0048009000e800900080805000b5
:100b30008a8f500002003100010578008005eb002b
:100b40000a01780089007800210007004800900021
:100b50000a004000400498000b00e000040032004e
:100b60000800780097ff07000000e00014003a003a
:100b70008a8444001904e000d2ff3a00008020007b
:100b80001800600006003200080078008dff0700a2
:100b9000800078000080eb000100e00009003a00ce
:100ba00001c02000988060000000eb0005003200ca
:100bb00048009000600498000000eb00010037003e
:100bc0000080eb004f05be004f04be000000060091
:100bd0008001780002003700b15978000201e90075
:100be0000200e000fcff3a000000060080007800f0
:100bf000010178003104e000fdff3a0000005100df
:100c0000000006000001eb0000027800b04178000f
:100c100081cf510001003a00040178000304e00094
:100c2000f9ff3a000200780000000600889fbe002d
:100c30008a1f780000047800c800900068019000c6
:100c40000000eb00828f50003c0039001800780053
:100c50002200290002016000e20f5100070032006b
:100c6000012024000000e00001003d0001202000e0
:100c7000008c70000080eb0030003700020026007e
:100c800002006000820f500009003a003800900016
:100c9000808f5000060039000800780049ff0700e7
:100ca000800078000080eb000100e00023003a00a3
:100cb0001805780000c020000000650018003a0008
:100cc000a80490006002200008004000808f5400bb
:100cd00013003a0000202000f000070020049800d4
:100ce0000000e00005003a0029049800490498003b
:100cf0008904e80039049800080037000a60a00061
:100d00000a0c7800400498000120200080804000f8
:100d100031049800400c9800500c98000c0007001b
:100d2000280090005004980038009000600498005b
:100d300000002600180c70000000eb004f05780042
:100d40004f04be0000000600c0742000620037009f
:100d5000881f7800c80b21001804e00003003a0047
:100d6000f9ff070020c0b300004c78004f04780062
:100d700000000600889fbe0000047800080078008c
:100d800010ff07008004780066800a001800000049
:100d90000000e00002003200280090005a00070026
:100da0000000eb0020049800384090000004e000b0
:100db000050035000000fb0093fe07000000e00086
:100dc000010032008084eb00181090000000e00069
:100dd0000800320095fe07000000e000010032002c
:100de0008084eb0018109000470007000000eb0023
:100df0001014980000082000180060001500320050
:100e00000001eb006000b800030821000202d000de
:100e100063027a00880f520005003a00000040008b
:100e200081804800008041000008eb000600370088
:100e300061004000e08048000201e800e80f500037
:100e4000e08f5800f0ff3a00080078002e000700fd
:100e50000e003700000c780000c0eb003044980012
:100e60006002200008004000200498004004980020
:100e700050049800400c980060049800500c9800b2
:100e80007004980076004400000c98000900780077
:100e90004f04be0000000600881f78000004eb002d
:100ea0006140b800e2ff2f00f3ff2f00b3000700fe
:100eb000e2082100620078000000e000010032003a
:100ec000acff07000804e800e80f5400f4ff3a0004
:100ed0004f04780000000600010020000100e0003f
:100ee00008003200010080000100e000050032002f
:100ef0008100e900010088008100d000020080002c
:100f000000b17800000006000000e0002f00320071
:100f1000c0017800e38f51002c0036000308a300c5
:100f20002a003a00c18580000100e0000200320082
:100f3000810f50000400310011009800c085880026
:100f40001600370082007800110190000200e000d6
:100f500002003200800f5100faff390011027800c0
:100f600084824000850f500018003900808f5200a5
:100f700003003a00830842000100780007003700b0
:100f80000200e0000300320083014000830f5100a3
:100f90000e00390012009800900098009000900018
:100fa0000100e0000900320010014000828f500073
:100fb00006003a00620b21000009eb0010017800e6
:100fc00011084100910090001100980000000600f7
:100fd000889fbe0000047800b18580000100e00019
:100fe00002003200010078000d003700c18580004a
:100ff000800b210004003700910f540025003600bb
:101000000180e800910090000100e000faff3a0042
:1010100010003700920f54001e0036000280e800d6
:10102000100178000200e000faff3a001101780098
:10103000c1858000800b210004003700910f54000f
:10104000140036000180e80091009000828f50006b
:10105000faff3a00f9858000888f540001003100c2
:101060008804780009007800360007000000e000de
:1010700004003a00888f5400050032008904d10032
:10108000f5ff3700091878009fff0700d2ff3700ef
:101090000000eb004f04be0000000600881f78002f
:1010a000630440000800a1008000eb00800f5400a2
:1010b00021003600e30f540001003e0048002000ec
:1010c00008007800c2ff07008000eb000000e0008d
:1010d000190032009000780091017800648151007d
:1010e000880f5100030031001101900002087800c0
:1010f0000700370008814000020878009101900045
:101100001301980010017800110914008808780074
:10111000100178000000eb000200e0000400320043
:10112000920190000300e000010032000280e8001c
:10113000b08588008180e800010078004f047800c5
:1011400000000600800078000000eb000100e000d5
:101150000500340001007800bdfd0700e10f4000ec
:1011600001003a000000eb000000060000c0da00b9
:101170000000060000c0da0000000600020ab90004
:10118000001bb9000200b80081004200810043004a
:041190000000060055
:020000040000fa
:101194000c4300006f6d0000756e00006963000071
:1011a40061740000696f00006e200000436f00004e
:1011b4006e740000726f00006c2000000d000000cf
:020000040000fa
:1011c40000000000ca0000001f000000000204002c
:1011d400000000003a0300004c0300005c03000020
:1011e4004203000054030000fe04000064030000f6
:1011f400fe040000fe0400006c030000fe04000076
:10120400fe040000fe040000fe040000fe040000d2
:10121400fe040000fe040000fe040000fe040000c2
:10122400fe040000fe040000fe040000fe040000b2
:10123400fe0400009c030000fe040000fe04000005
:10124400fe040000fe040000fe040000fe04000092
:10125400fe040000fe040000fe040000fe04000082
:10126400fe040000fe040000fe040000fe04000072
:10127400fe040000fe040000fe040000fe04000062
:10128400fe040000fe040000fe040000fe04000052
:10129400fe040000fe040000fe040000fe04000042
:1012a400fe040000fe040000fe040000fe04000032
:1012b400fe040000fe040000fe040000fe04000022
:1012c400fe040000fe040000fe040000fe04000012
:1012d400fe040000fe040000fe040000fe04000002
:1012e400fe040000fe040000fe040000fe040000f2
:1012f400fe040000fe040000fe040000fe040000e2
:10130400fe040000fe040000fe040000fe040000d1
:10131400fe040000fe040000fe040000fe040000c1
:10132400fe040000fe040000fe040000fe040000b1
:10133400fe040000fe040000fe040000fe040000a1
:10134400fe040000fe040000fe040000fe04000091
:10135400fe040000fe040000fe040000fe04000081
:10136400fe040000fe040000fe040000fe04000071
:10137400fe040000fe040000fe040000fe04000061
:10138400fe040000fe040000fe040000fe04000051
:10139400fe040000fe040000fe040000fe04000041
:1013a400fe040000fe040000fe040000fe04000031
:1013b400fe040000fe040000fe040000fe04000021
:1013c400fe040000fe040000fe040000fe04000011
:1013d400fe040000fe040000fe040000fe04000001
:1013e400fe040000fe040000fe040000fe040000f1
:1013f400fe040000fe040000fe040000fe020000e3
:101404001c030000fe040000fe040000fe040000b3
:10141400fe040000fe040000fe040000fe040000c0
:10142400fe040000fe040000fe040000fe040000b0
:10143400fe040000fe040000fe040000fe040000a0
:10144400fe040000fe040000fe040000fe04000090
:10145400fe040000fe040000fe040000fe04000080
:10146400fe040000fe040000fe040000fe04000070
:10147400fe040000fe040000fe040000fe04000060
:10148400fe040000fe040000fe040000fe04000050
:10149400fe040000fe040000fe040000fe04000040
:1014a400fe040000fe040000fe040000fe04000030
:1014b400fe040000fe040000fe040000fe04000020
:1014c400fe040000fe040000fe040000fe04000010
:1014d400fe040000fe040000fe040000fe04000000
:1014e400fe040000fe040000fe0400000000fe00f4
:1014f4000000fe0000020000000200001f000000c7
:10150400ef0321000eff21000e01880000000000ff
:10151400000020000000e000020032000001200072
:101524002002880014000700760107000000e00094
:1015340003003a0000bd2000010020000200370033
:101544000000200001002000810f70000100320023
:101554000f000700000020000000e000020032003d
:101564000000020000000000e60902000000000084
:101574000040da000000fe00200020000000e0002f
:1015840002003200100020009001880000000600d4
:10159400a1028800800478000000eb001f003700df
:1015a400e284440054a0b4009905ba00e2844400e3
:1015b40054a0b4009906ba00e284440054a0b400d4
:1015c4000006eb00476fde00fd07b200ae018800a5
:1015d400636ce10003003a000ad801000000eb004c
:1015e4000e003700606ce10008003a00004deb008b
:1015f4000a05e800020039003420ec000af0a000db
:101604008b05e900f9ff3e00040037006168e10042
:10161400010032000086eb000b00070019c7ba0076
:101624001905ba000e04e00003003a000a00e000c5
:10163400dbff3a0000000600fe07b200ae0288009d
:101644008a047800f5ff37000cd0a300e20f4d00a8
:101654001c00390089027800354dba000a05e800fb
:10166400020039003420ec000af0a0008b05e900e8
:101674000f003200254dba000a05e80002003900c7
:101684003420ec000af0a0008b05e90008003200c9
:101694000c00e0000600320015cdba000a05e8008f
:1016a400020039003420ec000af0a0008b05e900a8
:1016b4008984e80054a0b4000b00e000e2ff3a0083
:1016c400000006009902ba00055d78008b05e90068
:1016d400f7ff3200c82ade00055d78008b05e900bb
:1016e400f3ff32000c00e000f1ff320019ddba0014
:1016f400eeff370070090400000000003600f80017
:10170400809fbe00829fbe00849fbe00869fbe0055
:101714000000fa00980107001048a9000080fa00b0
:101724004f03be004f02be004f01be004f00be007b
:101734003600f900004006003600f800809fbe0025
:10174400829fbe00849fbe00869fbe000000fa00f8
:10175400ae0107001068a9000080fa004f03be0024
:101764004f02be004f01be004f00be003600f9001c
:10177400004006003600f800c028a9000000eb0075
:101784008c0407003600f8008e040700c048a90046
:1017940010002000870407003600f800c068a90084
:1017a40020002000830407003600f800c088a90048
:1017b400300020007f0407003600f800c608a900a6
:1017c400700020007b0407003600f800c408a9005c
:1017d400b0002000770407003600f800809fbe00a8
:1017e400829fbe00849fbe00869fbe000000fa0058
:1017f400c08180000000e00002003200c08180004f
:10180400000001003bd0bf000040e8003bf0b700ff
:1018140010c0b3003af0b7000028a9000080fa0015
:101824004f03be004f02be004f01be004f00be007a
:101834003600f900004006003600f800809fbe0024
:10184400829fbe00849fbe00869fbe000200fa00f5
:1018540010818000e20f500088003200e20f500037
:1018640003003900e30f5000770032009500370081
:101874000110800000402000008060000000e000b3
:1018840005003a0021108000000220000080600062
:101894000000e0000a00320001108000000820006f
:1018a400008060000000e00024003200211080006d
:1018b40000202000008060000000e0001f003200d3
:1018c40020108000640060000000e0000c003a007a
:1018d40010002000c4010700208180000000e00007
:1018e4000400320020818000c11080008140780013
:1018f400014878001000200010818800360037006d
:10190400c0108000004f78000000eb00b601070013
:10191400308180000000e00005003200308180004a
:10192400104078000080fb00a01088000182a8000d
:10193400200020001081880027003700011080005b
:1019440000402000008060000000e000220032001f
:101954002110800000022000008060000000e000f0
:101964001d003a0020108000640060000000e000c8
:1019740004003a002c70ef00300020001081880031
:10198400130037002cd0bf000004e0000d0032002b
:101994000000eb0094010700308180000000e000ab
:1019a4000500320030818000104078000080fb0088
:1019b400a01088000182a800200020001081880067
:1019c400030037002c70ef003000200010818800e5
:1019d400c0108000004f780010818000e10f50009b
:1019e40039003a00211080000002200000806000cd
:1019f4000000e000360032002110800000042000c6
:101a0400008060000000e0000b003a0020818000ac
:101a14000000e0000400320020818000c11080003a
:101a24008140780001487800200020006e01070002
:101a340036f0b70029003700c0108000004f78004e
:101a440004c2a90025003700300020006601070009
:101a540036f0b70010c0b3002cf0b70036d0bf008a
:101a64000004e00002003200c0108000004f780043
:101a74001000200010818800180037002110800019
:101a840000002800008060000000e0000b003a0025
:101a94000000eb0054010700308180000000e000ea
:101aa4000d00320030818000104078000080fb007f
:101ab400a01088000182a800080037002230ef003f
:101ac40006003700ffff3700000000000300370066
:101ad4000000000001003700000000000208a90017
:101ae4000080fa004f03be004f02be004f01be004b
:101af4004f00be003600f900004006000040da0046
:101b04000000fe00000005000000fa00d221ef00f2
:101b14001048a9003048a8001068a9003068a8003f
:101b24000080fa00000006000000fa00d321a8009b
:101b34000080fa00000006000000fa0088a00a00f5
:101b4400d40100000080fb0000f0a7000000ea00c0
:101b54000000ea004f00de00004078000080fa0038
:101b6400000006000000fa00d321a9000080fa005a
:101b7400000006000000fa0099a00a00d401000049
:101b84000080fb0000f0a7000000ea000000ea006b
:101b94004f00de00004078000080fa0000000600dc
:101ba4000000fa00d301a8000080fa00000006003b
:101bb4000000fa00d301a9000080fa00000006002a
:101bc4000200fa0030002000000f7800a10e80000f
:101bd40000002800008060000000e00003003200e4
:101be40040002000000f780015003700dca00a0038
:101bf400d40100000080fb00e10f50000700320018
:101c0400e20f5000080032000000e00009003a0032
:101c14000000eb00000f78000900370020002000ce
:101c2400000f78000600370010002000000f780035
:101c34000300370030002000000f7800000000008f
:101c44001e0078000080fa00000006000600fa007a
:101c540010079800210798000000eb00000f78009f
:101c64000f003700d10f80000010200000806000ba
:101c74000000e0000e003a00f10f80001e0090000a
:101c8400010878001e0090000080e800100798000a
:101c94002e0090000000e900200798001e0fe800c5
:101ca4002e0090000000e000eeff3a000100370033
:101cb400000000001e0078000080fa00000006000a
:101cc4000600fa0010079800210798000000eb00b6
:101cd400000f78000e003700d00f80006200600013
:101ce4000000e0000e003a001e0090001000780092
:101cf400e00f88001e0090000080e80010079800a4
:101d040000060000000200001f0000002e009000ea
:101d14000000e900200798001e0fe8002e00900044
:101d24000000e000efff3a0001003700000000006f
:101d34001e0078000080fa00000006000400fa008b
:101d4400100798000040eb00004f780010000700d7
:101d54000004e000060032001e009000100078002d
:101d6400d00e880010c0b300004f78000200370086
:101d74000040eb00004f78001e4078000080fa001d
:101d8400000006000000fa000080fa0000000600cf
:101d94000000fa00c00e80006100600000f0a7009f
:101da4000000ea000000e9004f00de000040780077
:101db4000080fa00000006000400fa0010079800f2
:101dc4000040eb00004f7800160007000004e0001c
:101dd4000c003200e10e80001e0090000108780023
:101de400f10e80001e00900011009800010f800089
:101df4001e0090002100980010c0b300004f78002e
:101e0400020037000040eb00004f78001e407800cd
:101e14000080fa00000006000000fa000080fa00ca
:101e2400000006000000fa0011a00a00d80100001a
:101e34000080fb0000f0a7000000ea000000ea00b8
:101e44004f00de00004078000080fa000000060029
:101e54000000fa0030742500b07d88000080fa008c
:101e6400000006000200fa00004f78009e80fb008c
:101e7400e002210000804000104078000080fa0059
:101e8400000006000200fa00004f78001147980095
:101e94009e80fb00e0022100008040009e409000f4
:101ea400014878000080fa00000006000000fa00f3
:101eb40000002800001088000422ef00d000200059
:101ec40025000700d00020001d0007002230ef008d
:101ed4000000eb00060007000000eb000a0007000a
:101ee4000208a9002208a8000080fa0000000600e9
:101ef4000200fa00000f78009e007800318188000b
:101f04000080fa00000006000200fa00000f7800ca
:101f14009e007800218188000080fa0000000600fd
:101f24000000fa00308180000080fa000000060002
:101f34000000fa00208180000080fa000000060002
:101f44000200fa00000f78009e00780061108800fb
:101f54000080fa00000006000200fa00000f78007a
:101f6400f00720009e007800808f500002003600a9
:101f74000142a800010037000142a9002230ef000d
:101f84009e007800411088000080fa0000000600de
:101f94000000fa00308180000000e00006003200fa
:101fa40030818000104078000080fb00a010880081
:101fb4000182a80001003700000000000080fa0040
:101fc400000006000000fa00208180000000e0000c
:101fd4000500320020818000c1108000814078001b
:101fe4000148780001003700000000000080fa007a
:101ff400000006000200fa00000f780011a00a0099
:10200400760e00000004a200614060000080fb0026
:102014006100600000004000b17380000110a10065
:1020240001007000b073880089ff07001e0078006b
:10203400e10f500011003200e10f5000030039009d
:10204400e20f500013003200350037004081800059
:10205400e1022100810040000000e8004081880086
:1020640001007800a2ff070040818000e50f5000c6
:10207400260036002830ef00290037002a30ef0010
:1020840010c0b30035f0b700400321009eff0700e5
:102094002300370035d0bf000004e0000e003200fa
:1020a400508180000000e00005003a0034d0bf00f9
:1020b4000080fb00408188002a30ef003570ef007b
:1020c40040818000e50f50001200360060002000bf
:1020d40040818800120037004081800042032100c3
:1020e40012417800e102210081004000824878001a
:1020f4000000e8004081880040818000e50f500026
:10210400060036002830ef0005003700000000000c
:102114000300370000000000010037000000000049
:1021240010c0b3000080fa00000006000000fa00ae
:10213400007c80000080fa00000006000200fa0023
:10214400faff0700000f78001e0078002400070043
:102154000004e000020032000000280071000700c3
:102164001e0078002a0007000004e000020032008c
:10217400000024006b0007001e00780032000700f6
:102184000004e00002003200002020006500070087
:102194001e0078003a0007000004e000020032004c
:1021a400000820005f0007001e00780042000700be
:1021b4000004e0000200320000042000590007007f
:1021c4001e0078004a0007000004e000020032000c
:1021d40000012000530007000080fa000000060000
:1021e4000400fa00100798000040eb00004f78004c
:1021f4001e0090000000e00002003d0010c0b3008b
:10220400004f78001e4078000080fa0000000600ad
:102214000400fa00100798000040eb00004f78001b
:102224009e00900000002400008060000000e00098
:102234000200320010c0b300004f78001e40780046
:102244000080fa00000006000400fa00100798005d
:102254000040eb00004f78009e009000002020001a
:10226400008060000000e0000200320010c0b300f3
:10227400004f78001e4078000080fa00000006003d
:102284000400fa00100798000040eb00004f7800ab
:102294009e00900000082000008060000000e00024
:1022a4000200320010c0b300004f78001e407800d6
:1022b4000080fa00000006000400fa0010079800ed
:1022c4000040eb00004f78009e00900000042000c6
:1022d400008060000000e0000200320010c0b30083
:1022e400004f78001e4078000080fa0000000600cd
:1022f4000400fa00100798000040eb00004f78003b
:102304001e009000700060000000e0000200320037
:1023140010c0b300004f78001e4078000080fa001f
:10232400000006000200fa00000f78009e80ea0018
:10233400007c800000806000007c88000080fa003f
:10234400000006000000fa00802fef000080fa0071
:10235400000006000000fa000421ef00104e2e00d9
:10236400400888000003280000088800c08180001d
:102374000000e00002003a00009720002f00070050
:102384000028a9002028a8003a70ef000080fa0075
:10239400000006000200fa00000f78009e0078009a
:1023a400410888003a70ef000080fa00000006003f
:1023b4000000fa00400880000080fa0000000600d7
:1023c4000200fa00000f78009e00780021088800bf
:1023d4003a70ef000080fa00000006000000fa00e6
:1023e400200880000080fa00000006000200fa00c5
:1023f4000040eb009bfe07000080fb00000f78000c
:102404000e0078004dfe0700cafd07000000000022
:10241400ccfd07000004a2000004e000fcff3a0029
:10242400d3fd070000000000c6fd07000004e00023
:10243400fdff3a000080fa00000006000200fa00e6
:10244400000f78002028a9009e007800c181880030
:102454002028a8000080fa00000006000000fa000e
:102464003a70ef002028a80001e1a8000080fa00db
:10247400000006000000fa0001e1a9002028a900dc
:102484000080fa00000006000200fa00a103210007
:1024940091407800014f78001e4078000004e0006d
:1024a400010032003a70ef001e4078000080fa000c
:1024b400000006000000fa003bd0bf000080fb00d3
:1024c4000080fa00000006000000fa003b70ef00f4
:1024d4000080fa00000006000a00fa00e600070087
:1024e4000000eb00100798000000eb0020079800a4
:1024f40000000000a2fd07000004a2000004e000a8
:10250400fcff3a00a9fd070000000000000a0000db
:102514003a0100001f0000009cfd07000004e000d9
:10252400fdff3a00a8fd07006400470025fe0700f0
:102534000e80e80004fe070081fd07000000000093
:1025440083fd07000004a2000004e000fcff3a0041
:102554008afd0700000000007dfd07000004e00084
:10256400fdff3a001e80fb0064fe07001e40900041
:102574000080fb0067fe0700010037000000000038
:1025840082fd07000004e000fcff32008afd070022
:10259400000000007dfd07000004e000fdff3a009c
:1025a4006400470007fe070087fd07002e00900027
:1025b400004078008040780010c0b30034fe07006b
:1025c4003e009000004078008040780020c0b300b6
:1025d4002ffe07003e0090004800de000040780017
:1025e4008040780030c0b30029fe07004e00900000
:1025f400004078008040780040c0b30024fe07000b
:102604004e0090004800de000040780080407800d2
:1026140050c0b3001efe0700d9ff37000000fa00c7
:1026240010002300307c880060092000407c880072
:1026340010042000507c880010102000707c88005a
:1026440060092000807c880010042000907c8800b1
:10265400b82fef00ba2fef00002def00a42fef00ea
:10266400a62fef00aa2fef00ae2fef00b02fef0040
:10267400b22fef001200200080072000a1092000e3
:1026840053f8200080497800814978008249780015
:1026940012002000600420007105200043f820008f
:1026a4008049780081497800824978000000000060
:1026b400207c8000610060000000e000fcff3a0024
:1026c40000000000217c80000002200000806000e7
:1026d4000000e000fbff32000080fa00000006006a
:1026e4000000fa00062eef00222eef003e2eef002f
:1026f4005a2eef00762eef00f001200010708800b3
:102704000080eb00f0708800f0cf2f00d0718800bb
:102714000080eb00b0728800d0fe2f009073880018
:102724000c2eef00282eef00442eef00602eef0059
:102734007c2eef000a2eef00262eef00422eef0033
:102744005e2eef007a2eef00082eef00242eef000d
:10275400402eef005c2eef00782eef00e001200009
:1027640000708800f0092000e0708800f00c200060
:10277400c071880000c02700a072880000042000f7
:10278400807388000080fa00000006000200fa004e
:10279400000f780003003700804f22001100200052
:1027a4007c0007001e00780000f0a7000000ea008b
:1027b4000000ea004f00de00004078001e0fe90030
:1027c4000004e000f4ff3a000080fa000000060074
:1027d4000200fa00000f7800050037000096200080
:1027e400010020006b00070001fe2f001e8f400037
:1027f4001e007800ff0f5000f8ff3e000300370072
:10280400b004200001002000620007001e007800d0
:1028140000f0a7000000ea000000ea004f00de001c
:10282400004078001e0fe9000004e000f4ff3a00c5
:102834000080fa00000006000200fa00000f780091
:1028440021028000200f2000008060001e00700024
:10285400200288000080fa00000006000000fa0050
:10286400c3e8a80000000000000000000080fa0097
:10287400000006000000fa00b5efa8000080fa008e
:10288400000006000000fa0095ff070063ff070040
:102894001e000700a2fc070087fd0700b0fe07002a
:1028a400eeff070000022000e3ff0700f1ff07002e
:1028b4000080fa00000006003c1000000200000046
:1028c40082000000ffff0000001000002000000054
:1028d40080000000381000000400000080000000a8
:1028e400201000000e000000800000002e100000e8
:1028f4000a00000082000000010203000405060033
:10290400aa01010000000000000000000000fa001d
:1029140011002000a8210a008008000011002000f6
:10292400ec210a00800800001100200064210a0044
:10293400480800001100200020210a004808000077
:102944001100200064210a00400800000080fa0001
:10295400000006000000fa0030ff07000080fa00c3
:10296400000006000000fa00007c80000080fa00ed
:10297400000006000000fa00f3fd07000080fa00e2
:10298400000006000000fa0071fe07000080fa0053
:1029940000000600f03fb1000180b10006003500e0
:1029a400ee03090000000000403fb1000180b100c7
:1029b400fbff3d001000b000203fb00002003500d6
:1029c400008009000000000000000600000f7800ed
:1029d4009e007800e1818800ffff37000000fa00c4
:1029e4000000210080077800800121000001880098
:1029f4000080fa00000006000000fe000000fe0057
:082a04000000000000000000ca
:020000040000fa
:102a0c000000fa00b1738000f00f2000008060001d
:102a1c00b073880091738000f00f2000008060007c
:102a2c0090738800776ea900774ea900736ea90089
:102a3c00734ea900774ea800005c260021052000eb
:102a4c009a0407008002200008010700c000200043
:102a5c000601070060002000040107006000070069
:102a6c0010c0b3000080fa00000006000400fa0059
:102a7c00000f7800110798000a0037001e0078003c
:102a8c00104078000000fb000000e0001100320054
:102a9c001e007800104078001e0fe80010000700a0
:102aac00000000001e00900000f0a7000000ea00eb
:102abc000000ea004f00de00004078009e0090000d
:102acc008100e900110798000004e000ebff3a00d8
:102adc0001003700000000000080fa000000060032
:102aec000200fa00004f78001e00fb00ea0f5000b5
:102afc000e003200ea0f500003003c00e80f5000bb
:102b0c00150032001b003700ec0f5000170032008c
:102b1c00ed0f500017003a0002d0bf00ea4f5000f2
:102b2c0029003200370007002800370002d0bf0010
:102b3c00ed4f5000010032003200070000d0bf0002
:102b4c000004e00002003a007b0007001f00370081
:102b5c006e0007001d0037003600070000c2b300ee
:102b6c00dfff070033000700180037001c000700c8
:102b7c001600370001d0bf00f04f50000c003a0097
:102b8c000170ef0000d0bf000004e00005003a0027
:102b9c00000c2000b500070010c0b30000f0b70017
:102bac000300370000082000b00007000070ef00a1
:102bbc001e4078007700070001d0bf000040e800fd
:102bcc0001f0b70001003700000000001e41780042
:102bdc0021002100824878000080fa0000000600e5
:102bec000000fa0010002000a000070020002000c8
:102bfc009e0007000070ef000170ef000080fa00eb
:102c0c00000006000000fa0000d0bf000004e00045
:102c1c0003003a000008200094000700020037006f
:102c2c00000c2000910007000170ef000080fa00fa
:102c3c00000006000200fa0001d0bf000004e00012
:102c4c0014003a0000d0bf000004e00005003a0078
:102c5c00000c20008500070010c0b30000f0b70086
:102c6c000300370000082000800007000070ef0010
:102c7c000040eb00004f7800020037000c0007000a
:102c8c001e4fe8001e407800ee4f5000fbff360050
:102c9c000500370001d0bf000040e90001f0b7008b
:102cac0000012000710007000080fa0000000600ff
:102cbc000000fa00400120006c00070001d0bf00aa
:102ccc000040e80001f0b70001d0bf00f04f500009
:102cdc000c003a000170ef0000d0bf000004e000cf
:102cec0005003a00000c20006000070010c0b30083
:102cfc0000f0b70003003700000820005b0007005d
:102d0c000070ef000080fa00000006000200fa00dc
:102d1c000040eb00004f780002003700c5ff0700b1
:102d2c001e4fe8001e407800ef4f5000fbff3600ae
:102d3c000080fa00000006000200fa000040eb00e0
:102d4c00004f780002003700d9ff07001e4fe80043
:102d5c001e407800ef4f5000fbff36000080fa0059
:102d6c00000006000200fa00004f78001e407800b8
:102d7c000004e00003003200f00020003b000700dc
:102d8c0002003700c0002000380007000080fa0065
:102d9c00000006000800fa00604798006e409000a2
:102dac000000fb004800dd00000f780000002f0041
:102dbc001e0060001007980000f020001e0060004c
:102dcc00200798002e0090004400dd00200798009a
:102ddc00776ea800b1738000f0ff200000806000c7
:102dec00b0738800b17380001e0090000100700069
:102dfc00b0738800400b200001002000ab030700db
:102e0c00774ea800400b200001002000a70307000c
:102e1c00774ea900b1738000f0ff200000806000a5
:102e2c00b0738800b17380002e0090000100700018
:102e3c00b0738800400b2000010020009b030700aa
:102e4c00774ea800400b20000100200097030700dc
:102e5c00774ea900776ea900803222000100200075
:102e6c00920307000080fa00000006000800fa0038
:102e7c00300798003e0090004800dd00000f7800fd
:102e8c0000002f001e0060001007980000f02000ca
:102e9c001e006000200798002e0090004400dd000a
:102eac0020079800776ea900b1738000f0ff200016
:102ebc0000806000b0738800b17380001e00900029
:102ecc0001007000b0738800774ea800400b200002
:102edc000100200075030700774ea900776ea9004a
:102eec00b1738000f0ff200000806000b073880098
:102efc00b17380002e00900001007000b073880048
:102f0c00774ea800400b200001002000670307004b
:102f1c00774ea9003e009000f40f50000d003200d7
:102f2c00f40f500005003e00ec0f50000900320079
:102f3c00f00f5000070032000a0037008102200019
:102f4c00810f50000300320081032000810f5000dc
:102f5c0004003a00803222000100200053030700d5
:102f6c000400370000502600410020004f030700ea
:102f7c00000000000080fa00000006000000fa00cb
:102f8c00d221ef0000082800d00f88001048a900bb
:102f9c003048a8001068a9003068a8000080fa002a
:102fac00000006000000fa00aef507000080fa00f1
:102fbc00000006000000fa00208e280001202000ee
:102fcc000001be008000eb001000200085f507001a
:102fdc000080fa00000006000000fa00d321a800cf
:102fec000080fa00000006000000fa0088a00a0029
:102ffc00d40100000080fb0000f0a7000000ea00f4
:10300c000000ea004f00de00004078000080fa006b
:10301c00000006000000fa00d321a9000080fa008d
:10302c00000006000000fa0099a00a00d40100007c
:10303c000080fb0000f0a7000000ea000000ea009e
:10304c004f00de00004078000080fa00000006000f
:10305c000000fa00d301a8000080fa00000006006e
:10306c000000fa00d301a9000080fa00000006005d
:10307c000200fa00a10e8000000024000080600015
:10308c000000e000030032000000eb00000f7800ad
:10309c000200370010002000000f78001e0078009e
:1030ac000080fa00000006000200fa00000f780011
:1030bc001e0078000000e00003003a00d5c1a90012
:1030cc000000000001003700000000000080fa0042
:1030dc00000006000200fa0040002000000f7800fb
:1030ec00a10e800000002400008060000000e000c1
:1030fc000300320050002000000f7800150037004c
:10310c00dca00a00d40100000080fb00e10f50009d
:10311c0007003200e20f5000080032000000e0000f
:10312c0009003a000000eb00000f7800090037009e
:10313c0030002000000f780006003700200020002f
:10314c00000f78000300370040002000000f7800cb
:10315c00000000001e0078000080fa00000006004d
:10316c000600fa0010079800210798000000eb00f9
:10317c00000f78000e003700d00f80006100600057
:10318c000000e0000e003a00e10f80001e009000ed
:10319c00010878001e0090000080e80010079800dd
:1031ac002e0090000000e900200798001e0fe80098
:1031bc002e0090000000e000efff3a000100370005
:1031cc00000000001e0078000080fa0000000600dd
:1031dc000600fa0010079800210798000000eb0089
:1031ec00000f78000f003700d10f80000020200066
:1031fc00008060000000e0000e003a001e0090000d
:10320c0010007800f00f88001e0090000080e8008d
:10321c00100798002e0090000000e900200798008d
:10322c001e0fe8002e0090000000e000eeff3a00b8
:10323c0001003700000000001e0078000080fa003a
:10324c00000006000400fa00100798000040eb0094
:10325c00004f78001a0007000004e000060032005e
:10326c00d10e80001e0090000108780010c0b30041
:10327c00004f7800020037000040eb00004f780050
:10328c001e4078000080fa00000006000000fa00e2
:10329c0000a00a00760e00000004a200614060004d
:1032ac000080fb0061006000b17380000100a10090
:1032bc0001007000b07388000080fa000000060066
:1032cc000000fa0000a00a00d80100000080fb00fa
:1032dc0000f0a7000000ea000000ea004f00de004a
:1032ec00004078000080fa00000006000400fa009c
:1032fc00100798000040eb00004f78001600070004
:10330c000004e0000c0032001e0090001000780059
:10331c00e00e88001e00900010009000f00e880057
:10332c001e00900020009000000f880010c0b30019
:10333c00004f7800020037000040eb00004f78008f
:10334c001e4078000080fa00000006000000fa0021
:10335c000080fa00000006000000fa00c00e800099
:10336c006200600000f0a7000000ea000000e90025
:10337c004f00de00004078000080fa0000000600dc
:10338c000200fa00004f78001e80fb00010b2100a8
:10339c00614078000080fa00000006000200fa008c
:1033ac00004f7800114798001e80fb00010b210094
:1033bc001e419000827078000080fa000000060028
:1033cc000000fa000421ef00104e2e004008880087
:1033dc000003280000088800308080000000e00016
:1033ec0002003a00e0a32100490007000028a900d0
:1033fc002028a800a00b21008040eb000148780099
:10340c000080fa00000006000200fa00000f7800ad
:10341c009e00780041088800a00b21008040eb0042
:10342c00014878000080fa00000006000000fa0055
:10343c00400880000080fa00000006000200fa003c
:10344c00000f78009e00780021088800a00b210056
:10345c008040eb00014878000080fa000000060074
:10346c000000fa00200880000080fa00000006002e
:10347c000600fa00881f780010c0b300c0ff0700d8
:10348c000080fb00000f780020c0b300bcff0700d9
:10349c000084fb0030c0b300b9ff07000080fb00c4
:1034ac004800dd00000044001007980040c0b30045
:1034bc00b3ff07000084fb0050c0b300b0ff07004f
:1034cc000080fb004800dd0000004400200798004d
:1034dc000e00780085ff0700bffe0700000000000b
:1034ec00c1fe07000004a2000004e000fcff3a004b
:1034fc00c8fe070000000000bbfe07000004e0004f
:10350c00fdff3a004f0478000080fa00000006002e
:10351c000200fa00000f78002028a9009e00780015
:10352c00318088002028a8000080fa0000000600e6
:10353c000000fa00a00b21008040eb00014878004d
:10354c002028a80001e1a8000080fa000000060075
:10355c000000fa0001e1a9002028a9000080fa006f
:10356c00000006000200fa00a00b2100104f7800aa
:10357c001e4078000004e00003003200a00b210084
:10358c008040eb00014878001e4078000080fa0073
:10359c00000006000000fa00b00b2100104078007b
:1035ac000080fb000080fa00000006000000fa001a
:1035bc00b00b21008040eb00014878000080fa003d
:1035cc00000006000000fa00007c80000080fa0079
:1035dc00000006000200fa00faff0700000f780056
:1035ec001e007800240007000004e00002003200f6
:1035fc0000002800710007001e0078002a00070058
:10360c000004e00002003200000024006b00070000
:10361c001e007800320007000004e00002003200b7
:10362c0000202000650007001e0078003a0007000b
:10363c000004e00002003200000820005f000700d8
:10364c001e007800420007000004e0000200320077
:10365c0000042000590007001e0078004a000700f3
:10366c000004e000020032000001200053000700bb
:10367c000080fa00000006000400fa001007980011
:10368c000040eb00004f78001e0090000000e000ae
:10369c0002003d0010c0b300004f78001e407800bf
:1036ac000080fa00000006000400fa0010079800e1
:1036bc000040eb00004f78009e00900000002400ba
:1036cc00008060000000e0000200320010c0b30077
:1036dc00004f78001e4078000080fa0000000600c1
:1036ec000400fa00100798000040eb00004f78002f
:1036fc009e00900000202000008060000000e00090
:10370c000200320010c0b300004f78001e40780059
:10371c000080fa00000006000400fa001007980070
:10372c000040eb00004f78009e0090000008200045
:10373c00008060000000e0000200320010c0b30006
:10374c00004f78001e4078000080fa000000060050
:10375c000400fa00100798000040eb00004f7800be
:10376c009e00900000042000008060000000e0003b
:10377c000200320010c0b300004f78001e407800e9
:10378c000080fa00000006000400fa001007980000
:10379c000040eb00004f78001e00900070006000ad
:1037ac000000e0000200320010c0b300004f7800af
:1037bc001e4078000080fa00000006000200fa00ab
:1037cc00000f78009e80ea00007c80000080600082
:1037dc00007c88000080fa00000006000000fa005f
:0c37ec00802fef000080fa0000000600b3
:020000040000fa
:1037f800901000002000000080000000041000006d
:103808000200000082000000ffff0000001000001e
:103818000400000080000000b01000000600000056
:10382800820000000102030004050600ba1000002f
:1038380002000000800000000610000002000000e6
:1038480080000000081000008800000082000000ce
:1038580001000000002e10002f102e00102e100066
:103868002e102e00101e10000000000000000000a6
:103878000000000000000000000000000000000040
:103888000000000000020800010156001057100057
:103898005610560010561000561046001000000032
:1038a8000000000000000000000000000000000010
:1038b80000000000000000000000020008020200f2
:1038c8007e107f00107e10007e107e00107e10009b
:1038d8006e10000000000000000000000000000062
:1038e80000000000000000000000000000000000d0
:1038f8000810300010581000000000000000000000
:103908000000000000000000bc10000002000000e1
:1039180080000000be1000000200000082000000cd
:1039280004000000b6100000040000008000000041
:10393800c01000000200000080000000000000002d
:020000040000fa
:103948000200fa00bf0007002efc07009afd0700de
:1039580095fd07000000eb00000f7800a08c280000
:10396800e5f3070000000000affd07000004a20017
:103978000004e000fcff3a00b6fd0700000000006c
:10398800a9fd07000004e000fdff3a00b5fd0700af
:103998000e0078002cfe0700a3fd07000004e000dd
:1039a80010003200abfd0700000000009efd07007c
:1039b8000004e000fdff3a000e00780022fe070038
:1039c800a8fd07009e007800f00f2000008060002e
:1039d800e50f500002003600766ea800010037009f
:1039e800766ea90022a00a00760e00000004a2004c
:1039f800614060000080fb00610060004200dd0063
:103a0800b17380000120a10001007000b07388002c
:103a1800e1ff37000200fa00000f780003003700ca
:103a2800804f220011002000a10007001e0078002e
:103a380000f0a7000000ea000000ea004f00de00e6
:103a4800004078001e0fe9000004e000f4ff3a008f
:103a58000080fa00000006000200fa00000f78005b
:103a680005003700009620000100200090000700a4
:103a780001fe2f001e8f40001e007800ff0f50002f
:103a8800f8ff3e0003003700b004200001002000ca
:103a9800870007001e00780000f0a7000000ea0079
:103aa8000000ea004f00de00004078001e0fe90029
:103ab8000004e000f4ff3a000080fa00000006006d
:103ac8000000fa0010002300307c88006009200004
:103ad800407c88008c2fef0010042000507c880068
:103ae80010102000707c880060092000807c88000d
:103af80010042000907c88009a2fef00b82fef0068
:103b0800ba2fef00002def00a42fef00a62fef0033
:103b1800a82fef00aa2fef00ae2fef00b02fef0075
:103b2800b22fef001200200080072000a10920001a
:103b380053f820008049780081497800824978004c
:103b48000001eb00600420007105200043f820000c
:103b58008049780081497800824978000080fa001d
:103b6800000006000000fa00062eef00222eef00eb
:103b78003e2eef005a2eef00762eef00f0012000c7
:103b880010708800d0cf2f00f07088000080eb0004
:103b9800d07188000080eb00b072880000fe2f0012
:103ba800907388000c2eef00282eef00442eef00b3
:103bb800602eef007c2eef000a2eef00262eef007d
:103bc800422eef005e2eef007a2eef00082eef0057
:103bd800242eef00402eef005c2eef00782eef0031
:103be800f00120000070880050082000e070880074
:103bf800f0082000c071880000402000a0728800f2
:103c08000080fa00000006000200fa00000f7800a9
:103c180021028000200f2000008060001e0070003c
:103c2800200288000080fa00000006000000fa0068
:103c3800c3e8a80000000000000000000080fa00af
:103c4800000006000000fa00c6ff07009cff0700fe
:103c580025000700cafc0700dafd0700f3ff07008c
:103c680000022000e8ff07000080fa0000000600bc
:103c78000000fa0092ff07000080fa00000006002a
:103c88000000fa00007c80000080fa0000000600b6
:103c98000000fa0050fe07000080fa00000006004d
:103ca8000000fa00cefe07000080fa0000000600bf
:020000040000fa
:103cb800f03fb1000180b10006003500ee030900b5
:103cc80000000000403fb1000180b100fbff3d0053
:103cd8001000b000203fb00002003500008009004d
:083ce8000000000000000600ce
:020000040000fa
:103cf0000000fa0011002000a8210a00800800003e
:103d000011002000ec210a008008000011002000b2
:103d100064210a00400800000080fa00000006004c
:103d2000000f78009e00780021808800ffff370098
:103d30000000fa000009210080077800800a2100b5
:0c3d4000000188000080fa00000006006e
:020000040000fa
:020000040002f8
:04be0000ffff000040
:020000040000fa
:020000040002f8
:04be2000ffffff0021
:020000040000fa
:020000040002f8
:04be3000f9ffff0017
:020000040000fa
:020000040002f8
:04be3800bfffff0049
:020000040000fa
:020000040002f8
:04be40007053ff003c
:020000040000fa
:020000040002f8
:04be5000deffff0012
:020000040000fa
:020000040002f8
:04be58000000ff00e7
:020000040000fa
:020000040002f8
:04be60000000ff00df
:020000040000fa
:020000040002f8
:04be68000000ff00d7
:020000040000fa
:020000040002f8
:04be70000000ff00cf
:020000040000fa
:020000040002f8
:04be7800ffffff00c9
:020000040000fa
:020000040002f8
:04be8000ffffff00c1
:020000040000fa
:020000040002f8
:04be8800ffffff00b9
:020000040000fa
:020000040002f8
:04be9000f1ffff00bf
:020000040000fa
:020000040002f8
:04be980030ffff0078
:020000040000fa
:020000040002f8
:04bea000ffffff00a1
:020000040000fa
:020000040002f8
:04bea800fcffff009c
:020000040000fa
:020000040002f8
:04beb000ffffff0091
:020000040000fa
:020000040002f8
:04bec000fffcff0084
:020000040000fa
:020000040002f8
:04bed000ffffff0071
:020000040000fa
:020000040002f8
:04bee000ffffff0061
:020000040000fa
:020000040002f8
:04bef000edffff0063
:020000040000fa
:020000040002f8
:04bf0000f8ffff0047
:020000040000fa
:020000040002f8
:04bf08003bffff00fc
:020000040000fa
:020000040002f8
:04bf1000e953ff00f2
:020000040000fa
:020000040002f8
:04bf2000fdffff0022
:020000040000fa
:020000040002f8
:04bf2800ffbfff0058
:020000040000fa
:020000040002f8
:04bf3000ffffff0010
:00000001FF
