:020000040000fa
:080000000002040000000000f2
:020000040000fa
:0400080000040000f0
:020000040000fa
:04000c0012040000da
:020000040000fa
:0400100022040000c6
:020000040000fa
:0400140008040000dc
:020000040000fa
:040018001a040000c6
:020000040000fa
:04001c00f0040000ec
:020000040000fa
:040020002a040000ae
:020000040000fa
:04002400f0040000e4
:020000040000fa
:04002800f0040000e0
:020000040000fa
:04002c00320400009a
:020000040000fa
:04003000f0040000d8
:020000040000fa
:04003400f0040000d4
:020000040000fa
:04003800f0040000d0
:020000040000fa
:04003c00f0040000cc
:020000040000fa
:04004000f0040000c8
:020000040000fa
:04004400680400004c
:020000040000fa
:04004800f0040000c0
:020000040000fa
:04004c00f0040000bc
:020000040000fa
:04005000f0040000b8
:020000040000fa
:04005400f0040000b4
:020000040000fa
:04005800f0040000b0
:020000040000fa
:04005c00f0040000ac
:020000040000fa
:04006000f0040000a8
:020000040000fa
:04006400d2040000c2
:020000040000fa
:04006800b4040000dc
:020000040000fa
:04006c0096040000f6
:020000040000fa
:04007000f004000098
:020000040000fa
:04007400f004000094
:020000040000fa
:04007800f004000090
:020000040000fa
:04007c00f00400008c
:020000040000fa
:04008000f004000088
:020000040000fa
:04008400f004000084
:020000040000fa
:04008800f004000080
:020000040000fa
:04008c00f00400007c
:020000040000fa
:04009000f004000078
:020000040000fa
:04009400f004000074
:020000040000fa
:04009800f004000070
:020000040000fa
:04009c00f00400006c
:020000040000fa
:0400a000f004000068
:020000040000fa
:0400a400f004000064
:020000040000fa
:0400a800f004000060
:020000040000fa
:0400ac00f00400005c
:020000040000fa
:0400b000f004000058
:020000040000fa
:0400b400f004000054
:020000040000fa
:0400b800f004000050
:020000040000fa
:0400bc00f00400004c
:020000040000fa
:0400c000f004000048
:020000040000fa
:0400c400f004000044
:020000040000fa
:0400c800f004000040
:020000040000fa
:0400cc00f00400003c
:020000040000fa
:0400d000f004000038
:020000040000fa
:0400d400f004000034
:020000040000fa
:0400d800f004000030
:020000040000fa
:0400dc00f00400002c
:020000040000fa
:0400e000f004000028
:020000040000fa
:0400e400f004000024
:020000040000fa
:0400e800f004000020
:020000040000fa
:0400ec00f00400001c
:020000040000fa
:0400f000f004000018
:020000040000fa
:0400f400f004000014
:020000040000fa
:0400f800f004000010
:020000040000fa
:0400fc00f00400000c
:020000040000fa
:04010000f004000007
:020000040000fa
:04010400f004000003
:020000040000fa
:04010800f0040000ff
:020000040000fa
:04010c00f0040000fb
:020000040000fa
:04011000f0040000f7
:020000040000fa
:04011400f0040000f3
:020000040000fa
:04011800f0040000ef
:020000040000fa
:04011c00f0040000eb
:020000040000fa
:04012000f0040000e7
:020000040000fa
:04012400f0040000e3
:020000040000fa
:04012800f0040000df
:020000040000fa
:04012c00f0040000db
:020000040000fa
:04013000f0040000d7
:020000040000fa
:04013400f0040000d3
:020000040000fa
:04013800f0040000cf
:020000040000fa
:04013c00f0040000cb
:020000040000fa
:04014000f0040000c7
:020000040000fa
:04014400f0040000c3
:020000040000fa
:04014800f0040000bf
:020000040000fa
:04014c00f0040000bb
:020000040000fa
:04015000f0040000b7
:020000040000fa
:04015400f0040000b3
:020000040000fa
:04015800f0040000af
:020000040000fa
:04015c00f0040000ab
:020000040000fa
:04016000f0040000a7
:020000040000fa
:04016400f0040000a3
:020000040000fa
:04016800f00400009f
:020000040000fa
:04016c00f00400009b
:020000040000fa
:04017000f004000097
:020000040000fa
:04017400f004000093
:020000040000fa
:04017800f00400008f
:020000040000fa
:04017c00f00400008b
:020000040000fa
:04018000f004000087
:020000040000fa
:04018400f004000083
:020000040000fa
:04018800f00400007f
:020000040000fa
:04018c00f00400007b
:020000040000fa
:04019000f004000077
:020000040000fa
:04019400f004000073
:020000040000fa
:04019800f00400006f
:020000040000fa
:04019c00f00400006b
:020000040000fa
:0401a000f004000067
:020000040000fa
:0401a400f004000063
:020000040000fa
:0401a800f00400005f
:020000040000fa
:0401ac00f00400005b
:020000040000fa
:0401b000f004000057
:020000040000fa
:0401b400f004000053
:020000040000fa
:0401b800f00400004f
:020000040000fa
:0401bc00f00400004b
:020000040000fa
:0401c000f004000047
:020000040000fa
:0401c400f004000043
:020000040000fa
:0401c800f00400003f
:020000040000fa
:0401cc00f00400003b
:020000040000fa
:0401d000f004000037
:020000040000fa
:0401d400f004000033
:020000040000fa
:0401d800f00400002f
:020000040000fa
:0401dc00f00400002b
:020000040000fa
:0401e000f004000027
:020000040000fa
:0401e400f004000023
:020000040000fa
:0401e800f00400001f
:020000040000fa
:0401ec00f00400001b
:020000040000fa
:0401f000f004000017
:020000040000fa
:0401f400f004000013
:020000040000fa
:0401f800f00400000f
:020000040000fa
:0401fc00f00400000b
:020000040000fa
:04020000f004000006
:020000040000fa
:04020400f004000002
:020000040000fa
:04020800f0040000fe
:020000040000fa
:04020c00f0040000fa
:020000040000fa
:04021000f0040000f6
:020000040000fa
:04021400f0040000f2
:020000040000fa
:04021800f0040000ee
:020000040000fa
:04021c00f0040000ea
:020000040000fa
:04022000f0040000e6
:020000040000fa
:04022400f0040000e2
:020000040000fa
:04022800f0040000de
:020000040000fa
:04022c00f0040000da
:020000040000fa
:04023000c403000003
:020000040000fa
:04023400e2030000e1
:020000040000fa
:04023800f0040000ce
:020000040000fa
:04023c00f0040000ca
:020000040000fa
:04024000f0040000c6
:020000040000fa
:04024400f0040000c2
:020000040000fa
:04024800f0040000be
:020000040000fa
:04024c00f0040000ba
:020000040000fa
:04025000f0040000b6
:020000040000fa
:04025400f0040000b2
:020000040000fa
:04025800f0040000ae
:020000040000fa
:04025c00f0040000aa
:020000040000fa
:04026000f0040000a6
:020000040000fa
:04026400f0040000a2
:020000040000fa
:04026800f00400009e
:020000040000fa
:04026c00f00400009a
:020000040000fa
:04027000f004000096
:020000040000fa
:04027400f004000092
:020000040000fa
:04027800f00400008e
:020000040000fa
:04027c00f00400008a
:020000040000fa
:04028000f004000086
:020000040000fa
:04028400f004000082
:020000040000fa
:04028800f00400007e
:020000040000fa
:04028c00f00400007a
:020000040000fa
:04029000f004000076
:020000040000fa
:04029400f004000072
:020000040000fa
:04029800f00400006e
:020000040000fa
:04029c00f00400006a
:020000040000fa
:0402a000f004000066
:020000040000fa
:0402a400f004000062
:020000040000fa
:0402a800f00400005e
:020000040000fa
:0402ac00f00400005a
:020000040000fa
:0402b000f004000056
:020000040000fa
:0402b400f004000052
:020000040000fa
:0402b800f00400004e
:020000040000fa
:0402bc00f00400004a
:020000040000fa
:0402c000f004000046
:020000040000fa
:0402c400f004000042
:020000040000fa
:0402c800f00400003e
:020000040000fa
:0402cc00f00400003a
:020000040000fa
:0402d000f004000036
:020000040000fa
:0402d400f004000032
:020000040000fa
:0402d800f00400002e
:020000040000fa
:0402dc00f00400002a
:020000040000fa
:0402e000f004000026
:020000040000fa
:0402e400f004000022
:020000040000fa
:0402e800f00400001e
:020000040000fa
:0402ec00f00400001a
:020000040000fa
:0402f000f004000016
:020000040000fa
:0402f400f004000012
:020000040000fa
:0402f800f00400000e
:020000040000fa
:0402fc00f00400000a
:020000040000fa
:04030000f004000005
:020000040000fa
:04030400f004000001
:020000040000fa
:04030800f0040000fd
:020000040000fa
:04030c00f0040000f9
:020000040000fa
:04031000f0040000f5
:020000040000fa
:04031400f0040000f1
:020000040000fa
:04031800f0040000ed
:020000040000fa
:04031c00f0040000e9
:020000040000fa
:04032000f0040000e5
:020000040000fa
:100400004f1121000eff24000e0188000000200083
:100410000000e000020032000001200020028800fd
:1004200014000700ad0107000000e00003003a00df
:1004300060d92200010020000200370000002000e7
:1004400001002000810f70004220ae000f00070065
:10045000000020000000e0004220ae00000002008a
:1004600000000000ae2c0200000000000040da0096
:100470000000fe00800120000000e00002003200c9
:10048000002020009001880000000600a1028800e2
:10049000800478000000eb001f003700e284440075
:1004a00054a0b4009905ba00e284440054a0b400fa
:1004b0009906ba00e284440054a0b4000006eb00a0
:1004c000476fde00fd07b200ae018800636ce100fb
:1004d00003003a000ad801000000eb000e003700cc
:1004e000606ce10008003a00004deb000a05e800ee
:1004f000020039003420ec000af0a0008b05e9006e
:10050000f9ff3e00040037006168e100010032009d
:100510000086eb000b00070019c7ba001905ba00e6
:100520000e04e00003003a000a00e000dbff3a009e
:1005300000000600fe07b200ae0288008a047800c0
:10054000f5ff37000cd0a300e20f4d001c0039006e
:1005500089027800354dba000a05e800020039002a
:100560003420ec000af0a0008b05e9000f003200f7
:10057000254dba000a05e800020039003420ec00dd
:100580000af0a0008b05e900080032000c00e00032
:100590000600320015cdba000a05e8000200390055
:1005a0003420ec000af0a0008b05e9008984e80003
:1005b00054a0b4000b00e000e2ff3a000000060087
:1005c0009902ba00055d78008b05e900f7ff32005b
:1005d000c82ade00055d78008b05e900f3ff3200d4
:1005e0000c00e000f1ff320019ddba00eeff370029
:1005f0006100e10001003200100005003200f80047
:100600003400f8000002be00930188003200be00f2
:100610000100e0000700320032037800c733de003b
:10062000a7018800f607b2007f30e1000400320025
:10063000200020003400f9003200f900000006001c
:100640008100e9000500e00003003a000180090094
:1006500032100300edff37000180090032900300e3
:10066000d561ae00e9ff370030002000f1ff370010
:1006700050052000b00e8800a00a2000b00e8800af
:10068000d3e1a8000000060050052000b00e88004d
:10069000a00a2000b00e8800d3e1a90000000600e7
:1006a000ea1f040000000000f41f04000000000026
:1006b000e21f040000000000ba1f04000000000058
:1006c000481e040000000000821e0400000000001c
:1006d0009e1e040000000000041f04000000000033
:1006e000501f040000000000b41e040000000000c1
:1006f0008e1f0400000000005a1e040000000000cd
:10070000641e0400000000006e1e040000000000d3
:10071000781e040000000000c41e04000000000059
:10072000ce1e040000000000d81e040000000000df
:10073000341e040000000000e21e0400000000005f
:100740000a250400000000004631040000000000fb
:100750008025040000000000e825040000000000df
:10076000362604000000000080260400000000007f
:10077000ca2e040000000000ba0a040000000000b5
:1007800000000400000000003600f800809fbe005a
:10079000829fbe00849fbe00869fbe000000fa00bc
:1007a000591207001048a9000080fa004f03be004c
:1007b0004f02be004f01be004f00be003600f900e0
:1007c000004006003600f800809fbe00829fbe00f9
:1007d000849fbe00869fbe000000fa0070120700d2
:1007e0001068a9000080fa004f03be004f02be004f
:1007f0004f01be004f00be003600f9000040060069
:100800003600f800c028a9000000eb00db16070046
:100810003600f800dd160700c048a90010002000cf
:10082000d61607003600f800c068a9002000200096
:10083000d21607003600f800c088a900300020005a
:10084000ce1607003600f800c608a9007000200088
:10085000ca1607003600f800c408a900b00020003e
:10086000c61607003600f800809fbe00829fbe00bb
:10087000849fbe00869fbe000000fa00708080004a
:100880000000e000020032007080800000000100e3
:10089000d0102100104078008040e800d0102100e6
:1008a00001487800c010210011c0b3000148780051
:1008b0000028a9000080fa004f03be004f02be00ce
:1008c0004f01be004f00be003600f9000040060098
:1008d0003600f800809fbe00829fbe00849fbe004d
:1008e000869fbe000000fa00014080000008200042
:1008f000008060000000e000050032006010210070
:1009000011c0b300014878001e13070000e8a900d9
:100910000080fa004f03be004f02be004f01be0030
:100920004f00be003600f900004006003600f80017
:10093000809fbe00829fbe00849fbe00869fbe0037
:100940000000fa0010808000000001000080fa0022
:100950004f03be004f02be004f01be004f00be005d
:100960003600f900004006003600f800809fbe0007
:10097000829fbe00849fbe00869fbe000000fa00da
:1009800020808000000001000080fa004f03be00bc
:100990004f02be004f01be004f00be003600f900fe
:1009a000004006003600f800809fbe00829fbe0017
:1009b000849fbe00869fbe000000fa003d1607001f
:1009c00001e8a9000080fa004f03be004f02be00fc
:1009d0004f01be004f00be003600f9000040060087
:1009e0000040da000000fe000a00fa0011002000ba
:1009f000b1bf9f00c0bf9f006a80570092030700ed
:100a00004fb897000080fa00000006000a00fa00c4
:100a100051002000b1bf9f00c0bf9f006a805700f7
:100a20008b0307005fb897000080fa000000060003
:100a3000889fbe0080047800908880000000e0005d
:100a400004003a000e0007000084eb000000e00004
:100a500008003500988880000900e0000500320099
:100a600009004400060007000000e00001003d000e
:100a70000084eb00080078004f04be000000060070
:100a8000800078000100e00003003a000000200030
:100a900090888800000005000080eb000200200024
:100aa000828f500002003e00918888000000eb0019
:100ab000000006000600fa00000f780011079800f9
:100ac000220798001e009000ae0090008c0d0700d9
:100ad0002e0090000080fa000000060000000500d3
:100ae00003f0a200889fbe008a9fbe008c1f780082
:100af000f3000700fa0033006450e1004f003200b9
:100b00006420e1005200320003826c0007003b00c9
:100b10000905d0000306d000820f54000c065d00ca
:100b200002003900020032008901780003067800d3
:100b30008582550004003d000003fd008103fd0097
:100b40008502ea008b854200840f720002003b00a0
:100b500060001000e08018006011b8000005eb0094
:100b60007a28e1000a00390006007800c75ddd0040
:100b7000f707b200878075002d0037008281710071
:100b80000a017800610560008180d1000080d300f7
:100b90008502e900f9ff3b00060440008784480015
:100ba00002003b0060041400e0841c000988a300dc
:100bb000070032008a817100828171006101640046
:100bc0008904d1000884d3008b05e80017003700a2
:100bd0000978a30013003a000b00e0001300340072
:100be0008b05e9000804440089844c000a44740021
:100bf0000978a3000d003a000b00e0000700340064
:100c00008b05e9000804440089844c0001003a0087
:100c10000b0020000978a300f7ff32000001eb0071
:100c200002003700828171000a0178006900070024
:100c30000cf0a70001f0a000b20037006420e10032
:100c400002003a00838f6c00b20033000801be003e
:100c50000200be00ab003700889fbe008a9fbe0026
:100c60008c1f7800960007009d00330003866c00ff
:100c70006450e1002e0032006420e10033003200b5
:100c80006150e1002f0032006120e10031003200ac
:100c900085855500eb07b0000900200008042000fe
:100ca000050037000804440089844c000a00310024
:100cb0000603430087834b000001530081815b00e2
:100cc000f8ff33000203be000800a000080444003f
:100cd00089844c00f6ff3900c639dd0083017300ba
:100ce00001003200130020008904d1000884d300e1
:100cf0000998a300050032000800a7000300a00027
:100d00008904d1000884d3008b05e8008904d10050
:100d10000884d3000001eb000281d2002d000700ff
:100d200001f0a1000cf0a70001f0a0007500370051
:100d30006420e100770032000801be000200be001e
:100d4000f7ff37006120e100720032006000b80058
:100d5000f3ff37000000200001f82700f0ff370004
:100d60000001be00410007000470a70003f0a100cd
:100d700003f8a30013003a006509b1001000320027
:100d8000090035006928e100020035000100280053
:100d90000000050000004000818048008502e90055
:100da000fcff3a0000000600f88f42000500350005
:100db0008100d1000080d3008502e800fcff3a00ea
:100dc000000006008000eb00000005006011b80084
:100dd0005300370081002000618055000b003d006a
:100de0000b00200061fe2f000100e1001d00340017
:100df00082817100610164008904d1000884d300fc
:100e00000000e800faff3a00710020006100640071
:100e10000300700002006000090032006104440019
:100e2000e0844c000988a500050032008b05e8002d
:100e30006808e10002003a008904d1000884d30068
:100e4000f20f20000258e10005003d00c75ddd0003
:100e5000f907b200898075000800780000000600dc
:100e60000bf827008b00780000000500c70ade00a1
:100e7000f107b200f50fb20008003200e1cf4200e6
:100e8000020032000170a00024000500810f7000f4
:100e9000010032000408050044000500810f7000c5
:100ea00002003a00140005008502e900000040003d
:100eb00081c04800fcff3b000170a0002400050039
:100ec0000004be00e9ff07000003be000405be00e9
:100ed0000200be00e5ff0700844f75000000060019
:100ee0000200be006450e100050036006420e1000d
:100ef000020036000968a30001003a000800be00a5
:100f00000160a0004f0678004f05be004f04be00f0
:100f100000000600f0ff2f00f1ff2700f9ff370067
:100f2000889fbe008a9fbe0000827000040271008c
:100f300004827100260032000004be000200be00e0
:100f40006011b8006b092000950220000182cf00db
:100f50000a0039000541b1000082cf0007003900c6
:100f60000541b1000982cf00040039000541b100fc
:100f70000882cf00010039000541b100054252004e
:100f8000120032000a003b0082817100610164009e
:100f90008100d1000080d3008984d3000884d3006d
:100fa0008b05e8000442e800f7ff3a00070037002d
:100fb0000804440089844c000000480081804800f7
:100fc0008b05e9000442e900f9ff3a0081ff0700c0
:100fd0004f05be004f04be00000006008103210043
:100fe0006a000700800078000080eb000100e0004c
:100ff0000400350081032100a0002000020007004a
:101000004f80de0000000600889fbe008a1f780027
:101010000004be00c900900069009000808f50005d
:101020000500390009007800b70007008080eb0058
:101030000000e000160035000845780049009000e7
:1010400008587800c00498001900780000b8a30080
:1010500004003a0000a8a30007003200ea4f540041
:1010600005003a00090078000d0007008080eb00c1
:101070000000e00006003a0000c0200019006000f7
:101080000200320049009000e00498008a80fb00d2
:10109000010078004f0578004f04be0000000600f4
:1010a000889fbe008a1f7800000478000800e000d6
:1010b0000d003a0068082100700544008004eb0030
:1010c000580078000000e00004003200f4ff070040
:1010d0000000e00001003d008084eb008a0f540016
:1010e000f7ff3a00250037000000220018006000da
:1010f0008004eb0021003200a80490000f003700ac
:1011000009015100384090000000fb008900780080
:1011100068fe07000000e00007003c002800900087
:101120004004980060049800500c98001890a000ab
:101130008084eb0011003700808444004801900057
:10114000828f5400eeff3900280090004004980080
:101150009800780002c020000281600001003a007f
:101160003800900001e8a3000200320060049800fb
:1011700001003700500c98008004eb000900780053
:101180004f0578004f04be0000000600889fbe0097
:101190008a9fbe0080047800010478002c0037008c
:1011a000c800900068009000808f50000400390053
:1011b00008007800540007000000e0003700350008
:1011c000004020001800600009003200a10020004b
:1011d0000900780042000700800578000b00e0005d
:1011e00003003200618514000a85450004003700c1
:1011f0000900780034000700000578008005eb0046
:1012000048009000e8009000808050008a8f5000d5
:1012100002003100010578008005eb000a0178002a
:101220008900780021000700480090000a00400073
:10123000400498000b00e000040032000800780031
:1012400097ff07000000e00014003a008a84440081
:101250001904e000d2ff3a0000802000180060006e
:1012600006003200080078008dff0700800078003b
:101270000080eb000100e00009003a0001c02000fe
:10128000988060000000eb000500320048009000ec
:10129000600498000000eb00010037000080eb00c4
:1012a0004f05be004f04be0000000600800178001c
:1012b00002003700b15978000201e9000200e000a5
:1012c000fcff3a0000000600800078000101780071
:1012d0003104e000fdff3a0000005100000006006c
:1012e0000001eb0000027800b041780081cf51008e
:1012f00001003a00040178000304e000f9ff3a001d
:101300000200780000000600889fbe008a1f780057
:1013100000047800c8009000680190000000eb0015
:10132000828f50003c00390018007800220029000c
:1013300002016000e20f510007003200012024008a
:101340000000e00001003d0001202000008c700042
:101350000080eb0030003700020026000200600031
:10136000820f500009003a0038009000808f500032
:10137000060039000800780049ff07008000780067
:101380000080eb000100e00023003a00180578001f
:1013900000c020000000650018003a00a80490007a
:1013a0006002200008004000808f540013003a00c3
:1013b00000202000f0000700200498000000e0005a
:1013c00005003a0029049800490498008904e800bf
:1013d00039049800080037000a60a0000a0c780061
:1013e00040049800012020008080400031049800d3
:1013f000400c9800500c98000c000700280090004a
:101400005004980038009000600498000000260006
:10141000180c70000000eb004f0578004f04be0070
:1014200000000600a0ab200062003700881f780093
:10143000e81021001804e00003003a00f9ff07005b
:1014400020c0b300004c78004f0478000000060074
:10145000889fbe00000478000800780010ff070095
:101460008004780066800a00180000000000e00098
:1014700002003200280090005a0007000000eb0034
:1014800020049800384090000004e000050035007a
:101490000000fb0054fd07000000e00001003200e6
:1014a0008084eb00181090000000e000080032007b
:1014b00056fd07000000e000010032008084eb00d0
:1014c00018109000470007000000eb00101498006f
:1014d0000008200018006000150032000001eb0039
:1014e0006000b800830821000202d00063027a0085
:1014f000880f520005003a0000004000818048003b
:10150000008041000008eb00060037006100400049
:10151000e08048000201e800e80f5000e08f58002a
:10152000f0ff3a00080078002e0007000e00370098
:10153000000c780000c0eb003044980060022000ee
:1015400008004000200498004004980050049800cf
:10155000400c980060049800500c980070049800ab
:1015600076004400000c9800090078004f04be008b
:1015700000000600881f78000004eb006140b800fe
:10158000e2ff2f00f3ff2f00b300070062092100e4
:10159000620078000000e00001003200acff0700ac
:1015a0000804e800e80f5400f4ff3a004f04780004
:1015b00000000600010020000100e00008003200e9
:1015c000010080000100e000050032008100e90018
:1015d000010088008100d0000200800000b1780086
:1015e000000006000000e0002f003200c00178007b
:1015f000e38f51002c0036000308a3002a003a00b4
:10160000518880000100e00002003200810f50008c
:10161000040031001100980050888800160037003f
:1016200082007800110190000200e0000200320008
:10163000800f5100faff39001102780084824000c7
:10164000850f500018003900808f520003003a00c7
:101650008308420001007800070037000200e00024
:101660000300320083014000830f51000e00390057
:101670001200980090009800900090000100e00097
:101680000900320010014000828f500006003a002d
:10169000821021000009eb001001780011084100c0
:1016a000910090001100980000000600889fbe0085
:1016b00000047800418880000100e0000200320050
:1016c000010078000d00370051888000a010210033
:1016d00004003700910f5400250036000180e80017
:1016e000910090000100e000faff3a00100037007e
:1016f000920f54001e0036000280e80010017800ae
:101700000200e000faff3a001101780051888000e1
:10171000a010210004003700910f5400140036007f
:101720000180e80091009000828f5000faff3a009b
:1017300089888000888f5400010031008804780077
:1017400009007800360007000000e00004003a00bd
:10175000888f5400050032008904d100f5ff37005e
:10176000091878009fff0700d2ff37000000eb0048
:101770004f04be0000000600881f7800630440008c
:101780000800a1008000eb00800f5400210036000b
:10179000e30f540001003e004800200008007800dc
:1017a000c2ff07008000eb000000e00019003200db
:1017b000900078009101780064815100880f5100f9
:1017c0000300310011019000020878000700370083
:1017d00008814000020878009101900013019800f0
:1017e00010017800110914008808780010017800b1
:1017f0000000eb000200e0000400320092019000c3
:101800000300e000010032000280e8004088880008
:101810008180e800010078004f0478000000060095
:10182000800078000000eb000100e00005003400bb
:10183000010078007efc0700e10f400001003a0043
:101840000000eb000000060000c0da000000060007
:1018500000c0da0000000600020ab900001bb9004f
:101860000200b80081004200810043000000060031
:020000040000fa
:101870000c4300006f6d0000756e0000696300008e
:1018800061740000696f00006e200000436f00006b
:101890006e740000726f00006c2000000d000000ec
:020000040000fa
:1018a00000000000ca0000001f0000000002040049
:1018b000000000003a0300004c0300005c0300003d
:1018c0004203000054030000fe0400006403000013
:1018d000fe040000fe0400006c030000fe04000093
:1018e000fe040000fe040000fe040000fe040000f0
:1018f000fe040000fe040000fe040000fe040000e0
:10190000fe040000fe040000fe040000fe040000cf
:10191000fe0400009c030000fe040000fe04000022
:10192000fe040000fe040000fe040000fe040000af
:10193000fe040000fe040000fe040000fe0400009f
:10194000fe040000fe040000fe040000fe0400008f
:10195000fe040000fe040000fe040000fe0400007f
:10196000fe040000fe040000fe040000fe0400006f
:10197000fe040000fe040000fe040000fe0400005f
:10198000fe040000fe040000fe040000fe0400004f
:10199000fe040000fe040000fe040000fe0400003f
:1019a000fe040000fe040000fe040000fe0400002f
:1019b000fe040000fe040000fe040000fe0400001f
:1019c000fe040000fe040000fe040000fe0400000f
:1019d000fe040000fe040000fe040000fe040000ff
:1019e000fe040000fe040000fe040000fe040000ef
:1019f000fe040000fe040000fe040000fe040000df
:101a0000fe040000fe040000fe040000fe040000ce
:101a1000fe040000fe040000fe040000fe040000be
:101a2000fe040000fe040000fe040000fe040000ae
:101a3000fe040000fe040000fe040000fe0400009e
:101a4000fe040000fe040000fe040000fe0400008e
:101a5000fe040000fe040000fe040000fe0400007e
:101a6000fe040000fe040000fe040000fe0400006e
:101a7000fe040000fe040000fe040000fe0400005e
:101a8000fe040000fe040000fe040000fe0400004e
:101a9000fe040000fe040000fe040000fe0400003e
:101aa000fe040000fe040000fe040000fe0400002e
:101ab000fe040000fe040000fe040000fe0400001e
:101ac000fe040000fe040000fe040000fe0400000e
:101ad000fe040000fe040000fe040000fe02000000
:101ae0001c030000fe040000fe040000fe040000d1
:101af000fe040000fe040000fe040000fe040000de
:101b0000fe040000fe040000fe040000fe040000cd
:101b1000fe040000fe040000fe040000fe040000bd
:101b2000fe040000fe040000fe040000fe040000ad
:101b3000fe040000fe040000fe040000fe0400009d
:101b4000fe040000fe040000fe040000fe0400008d
:101b5000fe040000fe040000fe040000fe0400007d
:101b6000fe040000fe040000fe040000fe0400006d
:101b7000fe040000fe040000fe040000fe0400005d
:101b8000fe040000fe040000fe040000fe0400004d
:101b9000fe040000fe040000fe040000fe0400003d
:101ba000fe040000fe040000fe040000fe0400002d
:101bb000fe040000fe040000fe040000fe0400001d
:101bc000fe040000fe040000fe0400000000fe0011
:101bd0000000fe0000020000000200001f000000e4
:101be000ef0321000eff21000e018800000000001d
:101bf000000020000000e000020032000001200090
:101c00002002880014000700760107000000e000b1
:101c100003003a0000bd2000010020000200370050
:101c20000000200001002000810f70000100320040
:101c30000f000700000020000000e000020032005a
:101c40000000020000000000e609020000000000a1
:101c50000040da000000fe00200020000000e0004c
:101c600002003200100020009001880000000600f1
:101c7000a1028800800478000000eb001f003700fc
:101c8000e284440054a0b4009905ba00e284440000
:101c900054a0b4009906ba00e284440054a0b400f1
:101ca0000006eb00476fde00fd07b200ae018800c2
:101cb000636ce10003003a000ad801000000eb0069
:101cc0000e003700606ce10008003a00004deb00a8
:101cd0000a05e800020039003420ec000af0a000f8
:101ce0008b05e900f9ff3e00040037006168e10060
:101cf000010032000086eb000b00070019c7ba0094
:101d00001905ba000e04e00003003a000a00e000e2
:101d1000dbff3a0000000600fe07b200ae028800ba
:101d20008a047800f5ff37000cd0a300e20f4d00c5
:101d30001c00390089027800354dba000a05e80018
:101d4000020039003420ec000af0a0008b05e90005
:101d50000f003200254dba000a05e80002003900e4
:101d60003420ec000af0a0008b05e90008003200e6
:101d70000c00e0000600320015cdba000a05e800ac
:101d8000020039003420ec000af0a0008b05e900c5
:101d90008984e80054a0b4000b00e000e2ff3a00a0
:101da000000006009902ba00055d78008b05e90085
:101db000f7ff3200c82ade00055d78008b05e900d8
:101dc000f3ff32000c00e000f1ff320019ddba0031
:101dd000eeff370070090400000000003600f80034
:101de000809fbe00829fbe00849fbe00869fbe0073
:101df0000000fa00980107001048a9000080fa00ce
:101e00004f03be004f02be004f01be004f00be0098
:101e10003600f900004006003600f800809fbe0042
:101e2000829fbe00849fbe00869fbe000000fa0015
:101e3000ae0107001068a9000080fa004f03be0041
:101e40004f02be004f01be004f00be003600f90039
:101e5000004006003600f800c028a9000000eb0092
:101e60008c0407003600f8008e040700c048a90063
:101e700010002000870407003600f800c068a900a1
:101e800020002000830407003600f800c088a90065
:101e9000300020007f0407003600f800c608a900c3
:101ea000700020007b0407003600f800c408a90079
:101eb000b0002000770407003600f800809fbe00c5
:101ec000829fbe00849fbe00869fbe000000fa0075
:101ed000c08180000000e00002003200c08180006c
:101ee000000001003bd0bf000040e8003bf0b7001d
:101ef00010c0b3003af0b7000028a9000080fa0033
:101f00004f03be004f02be004f01be004f00be0097
:101f10003600f900004006003600f800809fbe0041
:101f2000829fbe00849fbe00869fbe000200fa0012
:101f300010818000e20f500088003200e20f500054
:101f400003003900e30f500077003200950037009e
:101f50000110800000402000008060000000e000d0
:101f600005003a002110800000022000008060007f
:101f70000000e0000a00320001108000000820008c
:101f8000008060000000e00024003200211080008a
:101f900000202000008060000000e0001f003200f0
:101fa00020108000640060000000e0000c003a0097
:101fb00010002000c4010700208180000000e00024
:101fc0000400320020818000c11080008140780030
:101fd000014878001000200010818800360037008a
:101fe000c0108000004f78000000eb00b601070031
:101ff000308180000000e000050032003081800068
:10200000104078000080fb00a01088000182a8002a
:102010002000200010818800270037000110800078
:1020200000402000008060000000e000220032003c
:102030002110800000022000008060000000e0000d
:102040001d003a0020108000640060000000e000e5
:1020500004003a002c70ef0030002000108188004e
:10206000130037002cd0bf000004e0000d00320048
:102070000000eb0094010700308180000000e000c8
:102080000500320030818000104078000080fb00a5
:10209000a01088000182a800200020001081880084
:1020a000030037002c70ef00300020001081880002
:1020b000c0108000004f780010818000e10f5000b8
:1020c00039003a00211080000002200000806000ea
:1020d0000000e000360032002110800000042000e3
:1020e000008060000000e0000b003a0020818000ca
:1020f0000000e0000400320020818000c110800058
:102100008140780001487800200020006e0107001f
:1021100036f0b70029003700c0108000004f78006b
:1021200004c2a90025003700300020006601070026
:1021300036f0b70010c0b3002cf0b70036d0bf00a7
:102140000004e00002003200c0108000004f780060
:102150001000200010818800180037002110800036
:1021600000002800008060000000e0000b003a0042
:102170000000eb0054010700308180000000e00007
:102180000d00320030818000104078000080fb009c
:10219000a01088000182a800080037002230ef005c
:1021a00006003700ffff3700000000000300370083
:1021b0000000000001003700000000000208a90034
:1021c0000080fa004f03be004f02be004f01be0068
:1021d0004f00be003600f900004006000040da0063
:1021e0000000fe00000005000000fa00d221ef0010
:1021f0001048a9003048a8001068a9003068a8005d
:102200000080fa00000006000000fa00d321a800b8
:102210000080fa00000006000000fa0088a00a0012
:10222000d40100000080fb0000f0a7000000ea00dd
:102230000000ea004f00de00004078000080fa0055
:10224000000006000000fa00d321a9000080fa0077
:10225000000006000000fa0099a00a00d401000066
:102260000080fb0000f0a7000000ea000000ea0088
:102270004f00de00004078000080fa0000000600f9
:102280000000fa00d301a8000080fa000000060058
:102290000000fa00d301a9000080fa000000060047
:1022a0000200fa0030002000000f7800a10e80002c
:1022b00000002800008060000000e0000300320001
:1022c00040002000000f780015003700dca00a0055
:1022d000d40100000080fb00e10f50000700320035
:1022e000e20f5000080032000000e00009003a0050
:1022f0000000eb00000f78000900370020002000ec
:10230000000f78000600370010002000000f780052
:102310000300370030002000000f780000000000ac
:102320001e0078000080fa00000006000600fa0097
:1023300010079800210798000000eb00000f7800bc
:102340000f003700d10f80000010200000806000d7
:102350000000e0000e003a00f10f80001e00900027
:10236000010878001e0090000080e8001007980027
:102370002e0090000000e900200798001e0fe800e2
:102380002e0090000000e000eeff3a000100370050
:10239000000000001e0078000080fa000000060027
:1023a0000600fa0010079800210798000000eb00d3
:1023b000000f78000e003700d00f80006200600030
:1023c0000000e0000e003a001e00900010007800af
:1023d000e00f88001e0090000080e80010079800c1
:1023e00000060000000200001f0000002e00900008
:1023f0000000e900200798001e0fe8002e00900062
:102400000000e000efff3a0001003700000000008c
:102410001e0078000080fa00000006000400fa00a8
:10242000100798000040eb00004f780010000700f4
:102430000004e000060032001e009000100078004a
:10244000d00e880010c0b300004f780002003700a3
:102450000040eb00004f78001e4078000080fa003a
:10246000000006000000fa000080fa0000000600ec
:102470000000fa00c00e80006100600000f0a700bc
:102480000000ea000000e9004f00de000040780094
:102490000080fa00000006000400fa00100798000f
:1024a0000040eb00004f7800160007000004e00039
:1024b0000c003200e10e80001e0090000108780040
:1024c000f10e80001e00900011009800010f8000a6
:1024d0001e0090002100980010c0b300004f78004b
:1024e000020037000040eb00004f78001e407800eb
:1024f0000080fa00000006000000fa000080fa00e8
:10250000000006000000fa0011a00a00d801000037
:102510000080fb0000f0a7000000ea000000ea00d5
:102520004f00de00004078000080fa000000060046
:102530000000fa0030742500b07d88000080fa00a9
:10254000000006000200fa00004f78009e80fb00a9
:10255000e002210000804000104078000080fa0076
:10256000000006000200fa00004f780011479800b2
:102570009e80fb00e0022100008040009e40900011
:10258000014878000080fa00000006000000fa0010
:1025900000002800001088000422ef00d000200076
:1025a00025000700d00020001d0007002230ef00aa
:1025b0000000eb00060007000000eb000a00070027
:1025c0000208a9002208a8000080fa000000060006
:1025d0000200fa00000f78009e0078003181880028
:1025e0000080fa00000006000200fa00000f7800e8
:1025f0009e007800218188000080fa00000006001b
:102600000000fa00308180000080fa00000006001f
:102610000000fa00208180000080fa00000006001f
:102620000200fa00000f78009e0078006110880018
:102630000080fa00000006000200fa00000f780097
:10264000f00720009e007800808f500002003600c6
:102650000142a800010037000142a9002230ef002a
:102660009e007800411088000080fa0000000600fb
:102670000000fa00308180000000e0000600320017
:1026800030818000104078000080fb00a01088009e
:102690000182a80001003700000000000080fa005d
:1026a000000006000000fa00208180000000e00029
:1026b0000500320020818000c11080008140780038
:1026c0000148780001003700000000000080fa0097
:1026d000000006000200fa00000f780011a00a00b6
:1026e000760e00000004a200614060000080fb0044
:1026f0006100600000004000b17380000110a10083
:1027000001007000b073880089ff07001e00780088
:10271000e10f500011003200e10f500003003900ba
:10272000e20f500013003200350037004081800076
:10273000e1022100810040000000e80040818800a3
:1027400001007800a2ff070040818000e50f5000e3
:10275000260036002830ef00290037002a30ef002d
:1027600010c0b30035f0b700400321009eff070002
:102770002300370035d0bf000004e0000e00320017
:10278000508180000000e00005003a0034d0bf0016
:102790000080fb00408188002a30ef003570ef0098
:1027a00040818000e50f50001200360060002000dc
:1027b00040818800120037004081800042032100e0
:1027c00012417800e1022100810040008248780037
:1027d0000000e8004081880040818000e50f500043
:1027e000060036002830ef0005003700000000002a
:1027f0000300370000000000010037000000000067
:1028000010c0b3000080fa00000006000000fa00cb
:10281000007c80000080fa00000006000200fa0040
:10282000faff0700000f78001e0078002400070060
:102830000004e000020032000000280071000700e0
:102840001e0078002a0007000004e00002003200a9
:10285000000024006b0007001e0078003200070013
:102860000004e000020032000020200065000700a4
:102870001e0078003a0007000004e0000200320069
:10288000000820005f0007001e00780042000700db
:102890000004e0000200320000042000590007009c
:1028a0001e0078004a0007000004e0000200320029
:1028b00000012000530007000080fa00000006001d
:1028c0000400fa00100798000040eb00004f780069
:1028d0001e0090000000e00002003d0010c0b300a8
:1028e000004f78001e4078000080fa0000000600cb
:1028f0000400fa00100798000040eb00004f780039
:102900009e00900000002400008060000000e000b5
:102910000200320010c0b300004f78001e40780063
:102920000080fa00000006000400fa00100798007a
:102930000040eb00004f78009e0090000020200037
:10294000008060000000e0000200320010c0b30010
:10295000004f78001e4078000080fa00000006005a
:102960000400fa00100798000040eb00004f7800c8
:102970009e00900000082000008060000000e00041
:102980000200320010c0b300004f78001e407800f3
:102990000080fa00000006000400fa00100798000a
:1029a0000040eb00004f78009e00900000042000e3
:1029b000008060000000e0000200320010c0b300a0
:1029c000004f78001e4078000080fa0000000600ea
:1029d0000400fa00100798000040eb00004f780058
:1029e0001e009000700060000000e0000200320055
:1029f00010c0b300004f78001e4078000080fa003d
:102a0000000006000200fa00000f78009e80ea0035
:102a1000007c800000806000007c88000080fa005c
:102a2000000006000000fa00802fef000080fa008e
:102a3000000006000000fa000421ef00104e2e00f6
:102a4000400888000003280000088800c08180003a
:102a50000000e00002003a00009720002f0007006d
:102a60000028a9002028a8003a70ef000080fa0092
:102a7000000006000200fa00000f78009e007800b7
:102a8000410888003a70ef000080fa00000006005c
:102a90000000fa00400880000080fa0000000600f4
:102aa0000200fa00000f78009e00780021088800dc
:102ab0003a70ef000080fa00000006000000fa0003
:102ac000200880000080fa00000006000200fa00e2
:102ad0000040eb009bfe07000080fb00000f780029
:102ae0000e0078004dfe0700cafd07000000000040
:102af000ccfd07000004a2000004e000fcff3a0047
:102b0000d3fd070000000000c6fd07000004e00040
:102b1000fdff3a000080fa00000006000200fa0003
:102b2000000f78002028a9009e007800c18188004d
:102b30002028a8000080fa00000006000000fa002b
:102b40003a70ef002028a80001e1a8000080fa00f8
:102b5000000006000000fa0001e1a9002028a900f9
:102b60000080fa00000006000200fa00a103210024
:102b700091407800014f78001e4078000004e0008a
:102b8000010032003a70ef001e4078000080fa0029
:102b9000000006000000fa003bd0bf000080fb00f0
:102ba0000080fa00000006000000fa003b70ef0011
:102bb0000080fa00000006000a00fa00e6000700a4
:102bc0000000eb00100798000000eb0020079800c1
:102bd00000000000a2fd07000004a2000004e000c5
:102be000fcff3a00a9fd070000000000000a0000f9
:102bf0003a0100001f0000009cfd07000004e000f7
:102c0000fdff3a00a8fd07006400470025fe07000d
:102c10000e80e80004fe070081fd070000000000b0
:102c200083fd07000004a2000004e000fcff3a005e
:102c30008afd0700000000007dfd07000004e000a1
:102c4000fdff3a001e80fb0064fe07001e4090005e
:102c50000080fb0067fe0700010037000000000055
:102c600082fd07000004e000fcff32008afd07003f
:102c7000000000007dfd07000004e000fdff3a00b9
:102c80006400470007fe070087fd07002e00900044
:102c9000004078008040780010c0b30034fe070088
:102ca0003e009000004078008040780020c0b300d3
:102cb0002ffe07003e0090004800de000040780034
:102cc0008040780030c0b30029fe07004e0090001d
:102cd000004078008040780040c0b30024fe070028
:102ce0004e0090004800de000040780080407800f0
:102cf00050c0b3001efe0700d9ff37000000fa00e5
:102d000010002300307c880060092000407c88008f
:102d100010042000507c880010102000707c880077
:102d200060092000807c880010042000907c8800ce
:102d3000b82fef00ba2fef00002def00a42fef0007
:102d4000a62fef00aa2fef00ae2fef00b02fef005d
:102d5000b22fef001200200080072000a109200000
:102d600053f8200080497800814978008249780032
:102d700012002000600420007105200043f82000ac
:102d8000804978008149780082497800000000007d
:102d9000207c8000610060000000e000fcff3a0041
:102da00000000000217c8000000220000080600004
:102db0000000e000fbff32000080fa000000060087
:102dc0000000fa00062eef00222eef003e2eef004c
:102dd0005a2eef00762eef00f001200010708800d0
:102de0000080eb00f0708800f0cf2f00d0718800d9
:102df0000080eb00b0728800d0ff2f009073880035
:102e00000c2eef00282eef00442eef00602eef0076
:102e10007c2eef000a2eef00262eef00422eef0050
:102e20005e2eef007a2eef00082eef00242eef002a
:102e3000402eef005c2eef00782eef00e001200026
:102e400000708800f0092000e0708800f00c20007d
:102e5000c071880000c02700a07288000004200014
:102e6000807388000080fa00000006000200fa006b
:102e7000000f780003003700804f2200110020006f
:102e80007c0007001e00780000f0a7000000ea00a8
:102e90000000ea004f00de00004078001e0fe9004d
:102ea0000004e000f4ff3a000080fa000000060091
:102eb0000200fa00000f780005003700009620009d
:102ec000010020006b00070001fe2f001e8f400054
:102ed0001e007800ff0f5000f8ff3e00030037008f
:102ee000b004200001002000620007001e007800ee
:102ef00000f0a7000000ea000000ea004f00de003a
:102f0000004078001e0fe9000004e000f4ff3a00e2
:102f10000080fa00000006000200fa00000f7800ae
:102f200021028000200f2000008060001e00700041
:102f3000200288000080fa00000006000000fa006d
:102f4000c3e8a80000000000000000000080fa00b4
:102f5000000006000000fa00b5efa8000080fa00ab
:102f6000000006000000fa0095ff070063ff07005d
:102f70001e000700a2fc070087fd0700b0fe070047
:102f8000eeff070000022000e3ff0700f1ff07004b
:102f90000080fa00000006003c1000000200000063
:102fa00082000000ffff0000001000002000000071
:102fb00080000000381000000400000080000000c5
:102fc000201000000e000000800000002e10000005
:102fd0000a00000082000000010203000405060050
:102fe000aa01010000000000000000000000fa003b
:102ff00011002000a8210a00800800001100200014
:10300000ec210a00800800001100200064210a0061
:10301000480800001100200020210a004808000094
:103020001100200064210a00400800000080fa001e
:10303000000006000000fa0030ff07000080fa00e0
:10304000000006000000fa00007c80000080fa000a
:10305000000006000000fa00f3fd07000080fa00ff
:10306000000006000000fa0071fe07000080fa0070
:1030700000000600f03fb1000180b10006003500fd
:10308000ee03090000000000403fb1000180b100e4
:10309000fbff3d001000b000203fb00002003500f3
:1030a000008009000000000000000600000f78000a
:1030b0009e007800e1818800ffff37000000fa00e1
:1030c00000002100800778008001210000018800b5
:1030d0000080fa00000006000000fe000000fe0074
:0830e0000000000000000000e8
:020000040000fa
:1030e8000400fa0020479800ae409000c0c4b30026
:1030f8008c060700004f78001e4078000080fa0018
:10310800000006000200fa00004f780011479800fe
:103118001e4190009e407800c0c4b30046060700d8
:103128000080fa00000006000a00fa00004f98002c
:103138000e4890000080fb00e10f500013003200a1
:10314800e10f500003003c000000e00006003200e0
:1031580029003700e20f500015003200e30f50003d
:103168001c003200240037000040eb00dcff0700a1
:103178000080fb00000f780090c2b300d8ff070062
:103188000080fb00100798002000370010c0b30033
:10319800d3ff07000080fb00000f780000c1b300d8
:1031a800cfff07000080fb001007980017003700ca
:1031b80030c2b300caff07000080fb00000f780090
:1031c80040c2b300c6ff07000080fb00100798004c
:1031d8000e003700a0c2b300c1ff07000080fb004b
:1031e800000f7800b0c2b300bdff07000080fb00ed
:1031f80010079800050037000000eb00000f78006a
:103208000000eb0010079800000000001e00780086
:10321800c300dd001e0090004500de000080400075
:103228008000eb00e7f607002007980031079800b8
:1032380002002000031024002e009000be00900021
:1032480083f6070020079800310798000200200045
:10325800032824002e009000be0090001ef60700f0
:1032680020079800310798002e009000be009000bb
:103278000080fa00000006000600fa0020479800c7
:1032880021079800ae009000f00b2000808f5000be
:1032980003003400f00b20002007980006003700d8
:1032a800ae00900000fc2f00808f500002003d000f
:1032b80000fc2f00200798002e0090000004b000aa
:1032c800200798002e009000004f78002e409000b4
:1032d8000080fb00e10f50000e003200e10f5000ab
:1032e80003003c000000e000060032001500370033
:1032f800e20f50000b003200e30f50000d003200c7
:10330800100037009e40780050c0b3007dff0700d2
:103318000c0037009e40780070c0b30079ff0700aa
:10332800080037009e40780050c1b30075ff0700c1
:10333800040037009e407800c0c2b30071ff070048
:10334800000000000080fa00000006000600fa00f5
:103358002047980021079800ae009000f00b20004d
:10336800808f500003003400f00b200020079800e5
:1033780006003700ae00900000fc2f00808f500040
:1033880002003d0000fc2f00200798002e0090004e
:103398000004b000200798002e009000004f78002d
:1033a8002e4090000080fb00e10f50000e0032001c
:1033b800e10f500003003c000000e000060032006e
:1033c80015003700e20f50000b003200e30f5000e9
:1033d8000d003200100037009e40780060c0b30036
:1033e80048ff07000c0037009e40780080c0b300fb
:1033f80044ff0700080037009e40780060c1b30012
:1034080040ff0700040037009e407800d0c2b30098
:103418003cff0700000000000080fa0000000600e2
:103428000200fa00004f7800114798001e80fb0048
:10343800e20f500008003200e30f50000a0032008b
:10344800e10f50000d003a009e40900070c2b3009a
:103458002cff07000a0037009e40900080c2b3008e
:1034680028ff0700060037009e40900010c3b300f5
:1034780024ff0700000000000100370000000000e2
:103488000080fa00000006000200fa00004f7800f1
:10349800114798001e80fb00e10f50000300320026
:1034a800e20f500005003200080037009e409000ef
:1034b80050c2b30013ff0700040037009e4090007d
:1034c80060c2b3000fff0700000000000080fa0090
:1034d800000006000200fa00004f78009e407800c5
:1034e80010c2b30007ff07000080fa0000000600c2
:1034f8000600fa002047980021079800ae009000c7
:10350800f00b2000808f500003003400f00b2000e7
:103518002007980006003700ae00900000fc2f003e
:10352800808f500002003d0000fc2f00200798000b
:103538002e0090000004b000200798002e00900094
:10354800004f78002e4090000080fb00e10f5000f3
:103558000e003200e10f500003003c000000e000c4
:103568000600320015003700e20f50000b00320051
:10357800e30f50000d003200100037009e40780025
:1035880000c2b300dffe07000c0037009e40780041
:1035980090c1b300dbfe0700080037009e407800aa
:1035a800a0c1b300d7fe0700040037009e40780092
:1035b80000c3b300d3fe0700000000000080fa003b
:1035c800000006000000fa00f10b20000040eb00ac
:1035d80029ff070001fc2f000040eb005bff0700fc
:1035e800f10b200010c0b30023ff070001fc2f00df
:1035f80010c0b30055ff0700f10b200020c0b30036
:103608001dff070001fc2f0020c0b3004fff07007b
:10361800f10b200030c0b30017ff070001fc2f009a
:1036280030c0b30049ff070041c0b30030c0b30049
:10363800b4fe07008040eb00f0c1b300b1fe070004
:103648000040eb00a3ff07000080fa00000006001e
:103658000200fa00000f78001e00780050808800f1
:103668000080fa00000006000200fa00000f78004f
:103678009e007800518088000080fa000000060053
:103688000800fa00881f7800000478006147980055
:103698006e40900092fe0700004f780010c0b30003
:1036a800104798001e80fb00610060000040780011
:1036b8000004e0000300320010c0b3002047980067
:1036c800020037000040eb00204798001e80fb00f6
:1036d800620060000000e0000300320010c0b30088
:1036e80030479800020037000040eb003047980050
:1036f8001e80fb00640060000000e0000300320050
:1037080010c0b30040479800020037000040eb00ab
:10371800404798001e80fb00680060000000e00041
:103728000300320010c0b300504798000200370071
:103738000040eb0050479800e100470004000900f2
:10374800315c78005800b100080078004f04780018
:103758000080fa00000006001e00fa0020c0b30036
:103768005ffe0700004f78001e80fb0064006000c9
:103778000000e0000b003200b0c1b30058fe0700a3
:1037880010479800780047009e409000bcff070053
:10379800f20047007801470004000900b258780099
:1037a8000a0037000040eb00205798000040eb006b
:1037b800305798000040eb00405798000040eb005d
:1037c800505798000040eb00605798001e80fb009f
:1037d800700060000000e000080032007800470038
:1037e80051c3b300a6ff0700e30047007801470074
:1037f80004000900b25878000a0037000040eb00c6
:10380800304798000040eb00404798000040eb002c
:10381800504798000040eb00604798000040eb00dc
:10382800704798001e80fb00680060000000e00000
:10383800080032007800470061c3b30090ff07001a
:10384800e80047007801470004000900b2587800f2
:103858000a0037000040eb00004f98000040eb00e2
:10386800104f98000040eb00204f98000040eb00fc
:10387800304f98000040eb00404f98001e80fb003e
:10388800620060000000e000080032007800470095
:1038980071c3b3007aff0700ed00470078014700c5
:1038a80004000900b25878000a0037000040eb0015
:1038b800504f98000040eb00604f98000040eb002c
:1038c800704f98000040eb00005798000040eb0054
:1038d800105798001e4078000004e00003003d00e7
:1038e80010c0b30020479800020037000040eb00ea
:1038f8002047980050808000f6874700f6805700e0
:103908006201470009000900b2187800b25878002f
:103918005101b10000000100f68757000080fa004d
:10392800000006000400fa00000f78001107980054
:103938001e0190009e0078000000eb00ad0107001a
:103948000080fa00000006000400fa00000f78006a
:10395800110798001e0190009e00780010002000ba
:10396800a40107000080fa00000006000400fa0025
:10397800000f7800110798001e0190009e00780043
:10398800200020009b0107000080fa0000000600cc
:103998000400fa00000f7800110798001e0190003b
:1039a8009e00780030002000920107000080fa0095
:1039b800000006000400fa00000f780011079800c4
:1039c8001e0190009e007800400020008901070039
:1039d8000080fa00000006000400fa002047980062
:1039e80010002000000f7800c08480006200600092
:1039f8000000e00032003a0090092100ae4090003b
:103a080001487800c08480000000a100c0848800bc
:103a1800c08480000010a000c0848800c08480009a
:103a28000030a100c0848800e000200010858800d4
:103a3800401f200000858800c08480000020a0006e
:103a4800c0848800a0fe2100308588000000eb00bb
:103a580090858800a0fe2100408588000000eb00ca
:103a6800a0858800a0fe2100508588000000eb009a
:103a7800b0858800a0fe2100608588000000eb006a
:103a8800c085880040ff2100708588000000eb0099
:103a9800d08588001b030700f802070020fe2100dc
:103aa800c8030700a0fb2100cc030700a0fb2100ee
:103ab800d0030700d80207000000eb00000f7800d1
:103ac8001e0078000080fa00000006000200fa00dc
:103ad800004f7800900921001e4878000080fa0005
:103ae800000006000200fa0010002000000f780015
:103af800c0848000610060000000e0000a003a0015
:103b0800c08480000010a100c084880090092100b2
:103b180080c0eb0001487800d8020700d2020700f5
:103b280021858000010f78001e0078000080fa00cf
:103b3800000006000200fa00004f7800ca020700e1
:103b48001e80fb0000858800b30207000080fa0091
:103b5800000006000400fa00000f78001107980022
:103b6800c0848000640060000000e00007003200ac
:103b78001e007800d08488009e009000e1848800b0
:103b8800c08480000020a100c08488000080fa0062
:103b9800000006000400fa002047980010002000ea
:103ba800000f7800c0848000610060000000e00021
:103bb80013003a00c08480000000a000c084880080
:103bc8000000eb00000f78002e4090000004e00099
:103bd8000300320010002000108588000200370022
:103be8002000200010858800e80207008f020700e7
:103bf8000004a2000004e000010032000d000700ec
:103c08001e0078000080fa00000006000000fa009c
:103c180010c0b300dfff07000080fa0000000600b4
:103c28000000fa000040eb00daff07000080fa000d
:103c3800000006000000fa00030037000000eb0057
:103c480098020700c9000700c08480006100600076
:103c58000000e000f9ff3a000080fa0000000600ca
:103c68000000fa00c6020700c08480000000a1001e
:103c7800c08488000000eb0020858800e000200058
:103c88000080fa00000006000000fa00c0848000ee
:103c98000000a100c08488000000eb002085880097
:103ca800e00020000080fa00000006000000fa0092
:103cb800ba020700100020000080fa000000060089
:103cc8000000fa00b5020700200020000080fa007a
:103cd800000006000000fa00b002070010002000f3
:103ce8000080fa00000006000000fa00af0207009a
:103cf8000000eb000080fa00000006000000fa0057
:103d0800c08480000030a000c08488009009210091
:103d1800104078000080fb00000040000040780060
:103d28000004a000b9020700500020000080fa003b
:103d3800000006000000fa00c08480000030a000e7
:103d4800c08488009009210010407800004040009d
:103d5800ae020700300020000080fa0000000600d4
:103d68000000fa00c08480000030a100c0848800f0
:103d78009d020700400020000080fa0000000600b5
:103d88000000fa00a7020700500020000080fa0097
:103d9800000006000000fa00a7020700a0002000ab
:103da8000080fa00000006000000fa00a2020700e6
:103db800900020000080fa00000006000000fa00d1
:103dc800c08480000030a100c0848800200020004a
:103dd8002085880051858000b085800001000100a1
:103de8000080e900e10f500002003e00b9ff070023
:103df80001003700bcff07000080fa000000060041
:103e08000000fa006d0207000004e0000e00320016
:103e180061858000c085800001000100e20f50002c
:103e280003003200e30f50000300320004003700a3
:103e38009eff070016003700a1ff07001400370097
:103e4800a9ff070012003700c08480000030a100dd
:103e5800c0848800d0848000904078000000e8008a
:103e6800d08488000140780068020700e084800060
:103e78000000e900e0848800e08480000000e000a1
:103e880002003200300020000100370060002000ee
:103e98000080fa00000006000000fa00881f780081
:103ea800d884800054020700004c78000800e8001d
:103eb800d0848800e08480000000e900e084880065
:103ec800e08480000000e000030032005502070093
:103ed800500020000c003700c08480000020a000a3
:103ee800c084880031858000908580000100010031
:103ef8000080e900e10f500002003e00aaff070021
:103f080001003700a3ff07004f0478000080fa0083
:103f1800000006000000fa00c08480000020a00015
:103f2800c0848800318580009085800001000100f0
:103f3800e20f50000a003900e30f5000030036007a
:103f4800e40f5000030032000500370061ff07004e
:103f580004003700ce0107003000200001003700c0
:103f680061ff07000080fa00000006000000fa0068
:103f7800c2010700c0848000680060000000e00003
:103f8800050032000d0207000004e00002003200c4
:103f9800f000200010858800108580008000400017
:103fa800e00b2100008040001000780000000100b4
:103fb800108588000080fa00000006000000fa0062
:103fc8006c0207000080fa00000006000200fa00f8
:103fd800000f7800100020000080fa0000000600a2
:103fe8000200fa00000f7800500020000080fa005c
:103ff800000006000600fa00000f7800110798007c
:10400800220798001e0090000000e0000f00320018
:104018009e007800678040008000400080092100f1
:10402800008040009e009000010878009e00780003
:104038006d80400080004000800921000080400021
:10404800ae009000010878000e0037009e0078004e
:104058006780400080004000800921000080400007
:10406800a1fe2100010878009e0078006d804000c4
:104078008000400080092100008040008000eb00a3
:10408800010878000080fa00000006000000fa002d
:10409800b1738000f00f200000806000b0738800ca
:1040a80091738000f00f20000080600090738800fa
:1040b800776ea900774ea900736ea900734ea90008
:1040c800774ea800005c2600210520009b08070009
:1040d8008002200008010700c00020000601070038
:1040e80060002000040107006000070010c0b30052
:1040f8000080fa00000006000400fa00000f7800b3
:10410800110798000a0037001e0078001040780058
:104118000000fb000000e000110032001e007800e3
:10412800104078001e0fe800100007000000000093
:104138001e00900000f0a7000000ea000000ea005e
:104148004f00de00004078009e0090008100e900ea
:10415800110798000004e000ebff3a000100370067
:10416800000000000080fa00000006000200fa00cb
:10417800004f78001e00fb00ea0f50000e003200ce
:10418800ea0f500003003c00e80f50001500320011
:104198001b003700ec0f500017003200ed0f5000e5
:1041a80017003a0008d0bf00ea4f5000290032003b
:1041b800370007002800370008d0bf00ed4f500037
:1041c800010032003200070006d0bf000004e00002
:1041d80002003a007b0007001f0037006e0007004e
:1041e8001d0037003600070000c2b300dfff0700dc
:1041f80033000700180037001c00070016003700be
:1042080007d0bf00f04f50000c003a000770ef00d5
:1042180006d0bf000004e00005003a00000c2000b2
:10422800b500070010c0b30006f0b7000300370060
:1042380000082000b00007000670ef001e4078005c
:104248007700070007d0bf000040e80007f0b7007c
:1042580001003700000000001e41780081002100a5
:10426800824878000080fa00000006000000fa008a
:1042780010002000a0000700200020009e0007007a
:104288000670ef000770ef000080fa0000000600db
:104298000000fa0006d0bf000004e00003003a0066
:1042a800000820009400070002003700000c2000de
:1042b800910007000770ef000080fa000000060078
:1042c8000200fa0007d0bf000004e00014003a0022
:1042d80006d0bf000004e00005003a00000c2000f2
:1042e8008500070010c0b30006f0b70003003700d0
:1042f80000082000800007000670ef000040eb0077
:10430800004f7800020037000c0007001e4fe8003d
:104318001e407800ee4f5000fbff360005003700c6
:1043280007d0bf000040e90007f0b70000012000f7
:10433800710007000080fa00000006000000fa0083
:10434800400120006c00070007d0bf000040e800d3
:1043580007f0b70007d0bf00f04f50000c003a003c
:104368000770ef0006d0bf000004e00005003a0027
:10437800000c20006000070010c0b30006f0b70072
:1043880003003700000820005b0007000670ef00fc
:104398000080fa00000006000200fa000040eb006e
:1043a800004f780002003700c5ff07001e4fe800e5
:1043b8001e407800ef4f5000fbff36000080fa00e7
:1043c800000006000200fa000040eb00004f7800f1
:1043d80002003700d9ff07001e4fe8001e40780092
:1043e800ef4f5000fbff36000080fa000000060087
:1043f8000200fa00004f78001e4078000004e00038
:1044080003003200f00020003b00070002003700e4
:10441800c0002000380007000080fa0000000600f5
:104428000800fa00604798006e4090000000fb000a
:104438004800dd00000f780000002f001e0060001b
:104448001007980000f020001e0060002007980068
:104458002e0090004400dd0020079800776ea80029
:10446800b1738000f0ff200000806000b073880006
:10447800b17380001e00900001007000b0738800c6
:10448800400b200001002000ac070700774ea80071
:10449800400b200001002000a8070700774ea90064
:1044a800b1738000f0ff200000806000b0738800c6
:1044b800b17380002e00900001007000b073880076
:1044c800400b2000010020009c070700774ea80041
:1044d800400b20000100200098070700774ea90034
:1044e800776ea900803222000100200093070700a0
:1044f8000080fa00000006000800fa003007980063
:104508003e0090004800dd00000f780000002f00fa
:104518001e0060001007980000f020001e006000d8
:10452800200798002e0090004400dd002007980026
:10453800776ea900b1738000f0ff20000080600052
:10454800b0738800b17380001e00900001007000f5
:10455800b0738800774ea800400b200001002000af
:1045680076070700774ea900776ea900b17380001f
:10457800f0ff200000806000b0738800b1738000f5
:104588002e00900001007000b0738800774ea800dc
:10459800400b20000100200068070700774ea900a3
:1045a8003e009000f40f50000d003200f40f500050
:1045b80005003e00ec0f500009003200f00f5000db
:1045c800070032000a00370081022000810f5000e6
:1045d8000300320081032000810f500004003a00dc
:1045e8008032220001002000540707000400370031
:1045f800005026004100200050070700000000007e
:104608000080fa00000006000000fa0001e2a9009c
:104618000080fa00000006000000fa002228a80026
:104628002208a8000080fa00000006000000fa0036
:1046380010418000620060000000e00004003a00c1
:1046480010418000610060000000e00002003200bc
:1046580010002000010037000000eb000040780047
:104668000080fa00000006000000fa002228a900d5
:104678002208a9000080fa00000006000000fa00e5
:104688000228a9000208a9000080fa00000006001c
:104698000000fa000228a8000208a8000080fa001a
:1046a800000006000200fa00000f780010408000a9
:1046b800620060000000e00010003a001040800036
:1046c800610060000000e0000c003a00104080002b
:1046d800620060000000e00008003a00104080001e
:1046e800610060000000e00004003a00803222000f
:1046f8000100200011070700f4ff37000080fa00ce
:10470800000006000000fa000110800000002800e8
:10471800008060000000e00007003a000422ef007b
:104728000000280000108800001c2000801088006d
:1047380010c0b300010037000040eb000080fa0011
:10474800000006000000fa000110800000002800a8
:10475800008060000000e00006003a000222a80085
:104768000202a80000c2a80001e2a80010c0b3001d
:10477800010037000040eb000080fa00000006004e
:104788000000fa000080fa00000006000000fa00ad
:104798000002a8000080fa00000006000000fa00ed
:1047a8000022a8000080fa00000006000000fa00bd
:1047b8000042a8000080fa00000006000000fa008d
:1047c800ffa00a00040200000080fb0000f0a70020
:1047d8000000ea000000ea004f00de000040780018
:1047e8000080fa00000006000000fa000062a8003d
:1047f8000080fa00000006000000fa00c0108000e7
:10480800004078000080fa00000006000200fa006c
:10481800004f78001e80fb00a01088000080fa007e
:10482800000006000000fa0000a2a9000082a8000b
:104838000080fa00000006000000fa0000a2a800ac
:104848000082a8000080fa00000006000000fa00bc
:104858000182a8000080fa00000006000000fa00ab
:1048680020108000620060000000e00004003a00b0
:1048780020108000610060000000e00002003200ab
:1048880010002000010037000000eb000040780015
:104898000080fa00000006000000fa0033a00a00b9
:1048a800040200000080fb0000f0a7000000ea00fe
:1048b8000000ea004f00de00004078000080fa00a7
:1048c800000006000000fa0021108000000220000d
:1048d8000080600000f0a7000000ea000000e90086
:1048e8004f00de00004078000080fa00000006005b
:1048f8000000fa0044a00a00040200000080fb0047
:1049080000f0a7000000ea000000ea004f00de0007
:10491800004078000080fa00000006000000fa005d
:1049280055a00a00040200000080fb0000f0a70068
:104938000000ea000000ea004f00de0000407800b6
:104948000080fa00000006000000fa0022a00a0019
:10495800040200000080fb0000f0a7000000ea004d
:104968000000ea004f00de00004078000080fa00f6
:10497800000006000000fa000542a9000080fa00c5
:10498800000006000000fa0002a2a8000080fa0059
:10499800000006000000fa0002a2a9000080fa0048
:1049a800000006000000fa0002c2a8000080fa0019
:1049b800000006000000fa0002c2a9000080fa0008
:1049c800000006000200fa00000f78009e00780040
:1049d800018088000080fa00000006000200fa004a
:1049e800000f78009e007800118088000080fa008f
:1049f800000006000200fa00000f78009e00780010
:104a0800218088000080fa00000006000200fa00f9
:104a1800000f7800110020001e0078004dfc0700f0
:104a28008000eb000000eb00befb07004000200008
:104a38000080fa00000006000400fa00004f780029
:104a48001147980022479800000000001e40780097
:104a5800e1fb07000000e000fcff32000e80e800e8
:104a680080007800a0502200aefb07000e00e8008e
:104a78001100200037fc07008000eb0060142300c1
:104a8800bafb070066fc07000000000015fc0700e1
:104a9800e10f5000fdff32000080fa000000060020
:104aa8000600fa00004f78001107980022079800c6
:104ab800000000001e407800c7fb07000000e0006f
:104ac800fcff3200ae0090001e00900021fc0700a1
:104ad8008000eb0060142300a4fb070050fc0700d3
:104ae80000000000fffb0700e10f5000fdff32004f
:104af8000080fa00000006000200fa00000f7800ab
:104b0800110020001e00780012fc07008000eb0056
:104b18000000eb0083fb0700200020000080fa0063
:104b2800000006000800fa006047980071479800e6
:104b3800a0c2b3004047980020002000000f780072
:104b480019003700000000006e409000a2fb07002b
:104b58000000e000fcff320064004700800078009d
:104b6800005822006ffb0700670047001100200073
:104b7800f8fb07008000eb00601423007bfb0700b4
:104b880027fc0700d7fb0700100798001e009000bd
:104b9800e10f5000fbff32001e0090000000e00013
:104ba800050032001e0fe9001e0078000000e0003a
:104bb800e4ff3a0001003700000000004e4090007a
:104bc8000080fa00000006000200fa00000f7800da
:104bd800210020001e007800defb07008000eb00ab
:104be8000000eb004ffb0700200020000080fa00c7
:104bf800000006000400fa0020479800314798009a
:104c0800000000002e40900073fb07000000e00049
:104c1800fcff32008e007800805e220041fb070016
:104c28006300470011002000cafb07008000eb006a
:104c3800601423004dfb0700f9fb0700000000008b
:104c4800a8fb0700e10f5000fdff32001e007800ae
:104c5800c800dd004800de00008070000080fa0017
:104c6800000006000200fa00000f78002100200072
:104c78001e007800b7fb07008000eb000000eb0087
:104c880028fb0700400020000080fa000000060012
:104c98000400fa00004f78001147980012079800a6
:104ca800000000001e4078004bfb07000000e000f9
:104cb800fcff32000e80e80080007800606322006c
:104cc80018fb07000e00e80011002000a1fb0700f8
:104cd8008000eb006014230024fb0700d0fb0700d2
:104ce800000000007ffb0700e10f5000fdff3200cd
:104cf8000080fa00000006000200fa00000f7800a9
:104d08001e007800900078001e00780010009000c7
:104d180090fb07008000eb000000eb0001fb0700a0
:104d2800200020000080fa00000006000a00fa00b7
:104d38004047980051479800320798004307980069
:104d48003e00900010079800ce009000010f7800f8
:104d5800000000004e4090001ffb07000000e0002c
:104d6800fcff32008e00780000682200edfa070090
:104d7800650047001100200076fb07008000eb006b
:104d880060142300f9fa0700a5fb070000000000e3
:104d980054fb0700e10f5000fdff32000080fa00cd
:104da800000006000600fa00004f7800110798007e
:104db80022079800000000001e40780006fb07004c
:104dc8000000e000fcff3200ae0090001e009000e2
:104dd80060fb07008dfb07000000000041fb070097
:104de800e10f5000fdff32000080fa0000000600cd
:104df8000000fa00d221ef0000082800d00f880038
:104e08001048a9003048a8001068a9003068a80018
:104e18000080fa00000006000000fa0012ee070009
:104e28000080fa00000006000000fa0000c5280013
:104e3800012020000001be008000eb0010002000cf
:104e4800e9ed07000080fa00000006000000fa0003
:104e5800d321a8000080fa00000006000000fa0034
:104e680088a00a00d40100000080fb0000f0a70021
:104e78000000ea000000ea004f00de000040780071
:104e88000080fa00000006000000fa00d321a90003
:104e98000080fa00000006000000fa0099a00a004d
:104ea800d40100000080fb0000f0a7000000ea0029
:104eb8000000ea004f00de00004078000080fa00a1
:104ec800000006000000fa00d301a8000080fa00e4
:104ed800000006000000fa00d301a9000080fa00d3
:104ee800000006000200fa00a10e80000000240065
:104ef800008060000000e000030032000000eb00ca
:104f0800000f78000200370010002000000f780022
:104f18001e0078000080fa00000006000200fa0077
:104f2800000f78001e0078000000e00003003a003f
:104f3800d5c1a900000000000100370000000000f2
:104f48000080fa00000006000200fa00400020007d
:104f5800000f7800a10e800000002400008060008f
:104f68000000e0000300320050002000000f78002d
:104f780015003700dca00a00d40100000080fb0007
:104f8800e10f500007003200e20f50000800320025
:104f98000000e00009003a000000eb00000f780074
:104fa8000900370030002000000f780006003700a5
:104fb80020002000000f7800030037004000200088
:104fc800000f7800000000001e0078000080fa0042
:104fd800000006000600fa00100798002107980054
:104fe8000000eb00000f78000e003700d00f8000a3
:104ff800610060000000e0000e003a00e10f800050
:105008001e009000010878001e0090000080e80053
:10501800100798002e0090000000e9002007980073
:105028001e0fe8002e0090000000e000efff3a009d
:1050380001003700000000001e0078000080fa0020
:10504800000006000600fa001007980021079800e3
:105058000000eb00000f78000f003700d10f800030
:1050680000202000008060000000e0000e003a00f0
:105078001e00900010007800f00f88001e009000bd
:105088000080e800100798002e0090000000e9005a
:10509800200798001e0fe8002e0090000000e00096
:1050a800eeff3a0001003700000000001e00780003
:1050b8000080fa00000006000400fa0010079800bb
:1050c8000040eb00004f7800100007000004e000eb
:1050d80006003200d10e80001e0090000108780002
:1050e80010c0b300004f7800020037000040eb000a
:1050f800004f78001e4078000080fa00000006008b
:105108000000fa000080fa00000006000000fa0023
:1051180000a00a00d80100000080fb0000f0a700f2
:105128000000ea000000ea004f00de0000407800be
:105138000080fa00000006000400fa00100798003a
:105148000040eb00004f7800160007000004e00064
:105158000c0032001e00900010007800e00e88005d
:105168001e00900010009000f00e88001e009000b5
:1051780020009000000f880010c0b300004f780096
:10518800020037000040eb00004f78001e40780016
:105198000080fa00000006000000fa000080fa0013
:1051a800000006000000fa00c00e800062006000e7
:1051b80000f0a7000000ea000000e9004f00de0050
:1051c800004078000080fa00000006000000fa00a5
:1051d800ae22ef00b022ef00b422ef00f00f200063
:1051e800e0158800c022ef00c222ef00c422ef00c1
:1051f800c622ef0010622800601588000080fa00bf
:10520800000006000400fa00000f7800110798005b
:1052180000000000a0158000620060000000e000af
:10522800fcff3a001e00780010007800c0158800c6
:1052380000000000a115800000022000008060002e
:105248000000e000fbff3a001e009000c11580003e
:10525800010878000080fa00000006001800fa0033
:10526800100f9800210f9800320f98000000eb00f3
:10527800000f78000000eb00100798000000eb001a
:10528800700798000000eb00000f98002000200035
:10529800600798002e0890000000d100200f9800a9
:1052a8001e0890000000e00005003a000000eb0036
:1052b8005007980070004700200798000400370046
:1052c800ee009000510798009e0890002107980072
:1052d8003e0890000000e00005003a000000eb00e6
:1052e800400798006e004700300798000500370017
:1052f800ee00900041079800be0890003107980022
:1053080000000000a0158000620060000000e000be
:10531800fcff3a001b003700a01580006200600007
:105328000000e00008003a002e009000100078000d
:10533800c0158800ae0090005e009000008040001c
:10534800200798001e0fe800a11580000002200029
:10535800008060000000e0000a003a003e00900073
:10536800c115800001087800be0090004e00900032
:1053780000804000300798001e0090000000e80000
:10538800100798002e0890009e007800808f50002b
:10539800e1ff39000f003700a1158000000220004e
:1053a800008060000000e0000a003a003e00900023
:1053b800c115800001087800be0090004e009000e2
:1053c80000804000300798001e0090000000e800b0
:1053d800100798009e0090002e089000808f5000c3
:1053e800edff39001e0078000080fa00000006007a
:1053f8000400fa00100798008e0078000e80e8007c
:1054080080ff07001e0078000080fa0000000600f8
:105418000600fa00000f780011079800220798008c
:10542800ae0090001e007800010178009e009000f8
:105438008aff07000080fa00000006000000fa005a
:105448006115800000802000008060000000e000fe
:10545800020032002000200008003700611580009b
:1054680000402000008060000000e00002003200e0
:1054780010002000010037000000eb000080fa0057
